:020000040000FA
:10000000205E0020A142000009D6000075420000D9
:100010007542000075420000754200007542000004
:10002000000000000000000000000000E13A0000B5
:100030007542000000000000753A000075420000A3
:100040006D3B00006D3B00006D3B00006D3B000010
:100050006D3B00006D3B00006D3B00006D3B000000
:100060006D3B00006D3B00006D3B00006D3B0000F0
:100070006D3B00006D3B00006D3B00006D3B0000E0
:100080006D3B00006D3B00006D3B00006D3B0000D0
:100090006D3B00006D3B00006D3B00006D3B0000C0
:1000A0006D3B00006D3B00006D3B00006D3B0000B0
:1000B0006D3B00006D3B00006D3B00006D3B0000A0
:1000C0006D3B00006D3B00006D3B00006D3B000090
:1000D0006D3B00006D3B00006D3B00006D3B000080
:1000E0006D3B00006D3B00006D3B00006D3B000070
:1000F0006D3B00006D3B00006D3B00006D3B000060
:100100006D3B00006D3B00006D3B00006D3B00004F
:100110006D3B00006D3B00006D3B00006D3B00003F
:100120006D3B00006D3B00006D3B00006D3B00002F
:100130006D3B00006D3B00006D3B00006D3B00001F
:100140006D3B00006D3B00006D3B00006D3B00000F
:100150006D3B000053B94AB9002908BF00281CBFF5
:100160004FF0FF314FF0FF3000F00CB8ADF1080C4C
:100170006DE904CE00F008F8DDF804E0DDE90223C3
:1001800004B07047704700BF2DE9F04786468C46A3
:100190000846089E154674461946002B40F0C1805B
:1001A0008542B2FA82F245D94AB1C2F1200300FA7F
:1001B00002FC954094402EFA03F343EA0C0C4FEAFC
:1001C000154EA8B2230CBCFBFEF80EFB18CC08FBA6
:1001D00000F943EA0C43994528D9EB1808F1FF3799
:1001E00004D2994502D9A8F102072B44A3EB0903D5
:1001F000A4B2B3FBFEFC0EFB1C330CFB00F044EA84
:100200000344A04214D92C190CF1FF3304D2A042AC
:1002100002D9ACF102032C44241A43EA07401EB170
:10022000D440002334607360BDE8F0874746DDE7C3
:100230006346F1E792BB431B01214FEA154EAFB273
:10024000200CB3FBFEFC0EFB1C330CFB07F840EA52
:100250000343984561D9EB180CF1FF3004D298455F
:1002600002D9ACF102002B44A3EB0803A4B2B3FB08
:10027000FEFC0EFB1C330CFB07F744EA0344A742C9
:100280004DD92C190CF1FF3304D2A74202D9ACF19D
:1002900002032C44E41B43EA0040C0E7C2F1200300
:1002A0009540944020FA03F12EFA03F34FEA154EDD
:1002B0009040AFB20343B1FBFEFC0EFB1C10190CC7
:1002C0000CFB07F841EA0041884522D969180CF176
:1002D000FF3004D2884502D9ACF102002944A1EBD9
:1002E00008019BB2B1FBFEFC0EFB1C110CFB07F7D7
:1002F00043EA01439F420ED9EB180CF1FF3104D2BF
:100300009F4202D9ACF102012B44DB1B41EA0041C0
:1003100093E76046E3E76146F7E76046A4E7634694
:10032000B8E7834206D916B9002108467CE7C6E93A
:1003300000E0F9E7B3FA83F78FB9834201D372453E
:1003400008D8BEEB020460EB030301209C461EB9F3
:10035000002169E73846FAE7C6E9004CF8E7C7F13B
:10036000200CBB400EFA07F522FA0CF42EFA0CF121
:10037000BA401C4320FA0CF3B8404FEA1449014339
:100380001FFA84FEB3FBF9F809FB18300B0C08FBCD
:100390000EFA43EA00439A4540D9E31808F1FF30CA
:1003A00004D29A4502D9A8F102002344A3EB0A0320
:1003B00089B2B3FBF9F809FB183308FB0EFE41EADA
:1003C00003418E452CD9611808F1FF3304D28E45C4
:1003D00002D9A8F10203214443EA0040A1EB0E0137
:1003E000A0FB02984145CE46434602D306D14D4577
:1003F00004D20138B9EB020E68EB0403002EA7D03B
:10040000B5EB0E0261EB030101FA0CFC22FA07F3D3
:10041000F9404CEA0303C6E9003199E74046C5E7D5
:100420004346D9E710F8012B11F8013B012A28BFF8
:100430009A42F7D0D01A7047034613F8012B002ACE
:10044000FBD1181A013870470146014804F0FABA86
:1004500090030020F0B5204F204E91B04FF0FF32B6
:100460004FF0FF3338460DF012F9044640B91C49ED
:1004700089221C480CF011FD892119480CF006FD59
:10048000058A0FA90B352A46304608F09FF9294600
:1004900003A80EF052FC012204F1180103A80EF08B
:1004A000D1FB88B1238AE26801A903A8CDE9012321
:1004B0000EF0E1FB40B10221304603AA0EF00BFC26
:1004C000204604F0DFFAC9E70549462205480CF04A
:1004D000E4FC4621D1E700BF900300203C19010055
:1004E000BCF9000005FA000030B50D468FB00622B9
:1004F0000DA9044608F06AF9062101A80EF01DFCBA
:10050000294601A80EF0ADFB40B9074907482A2249
:100510000CF0C3FC2A2104480CF0B8FC204601A9C9
:1005200008F000FE0FB030BDBCF9000005FA000075
:1005300070B50C4688B00546012220460DF10F012A
:100540000EF0CBFAE8B1204604A90EF0D6FAC0B1FD
:10055000204606A90EF0D1FA98B1079B04990093A2
:100560009DF80F00DDE9052300F004FA0646214658
:1005700028460EF0DFFB31462846FFF7B5FF08B0EE
:1005800070BD0449044867220CF087FC67210148CC
:100590000CF07CFCBCF9000005FA000010B5044624
:1005A0000EF0C8FB044800F07FF901462046BDE884
:1005B0001040FFF799BF00BF4904000098B500AF95
:1005C0006C4688B06A4603680A49C2E905130323EA
:1005D00042F8103F00234FF4C251074802F07CFC60
:1005E000A546404080F311884FF0030002DFBD466E
:1005F00098BD00BF1DFA0000DCF50000F0B587B023
:100600006E4600AF0225184B3D617B6100234FF41D
:100610008651164807F1100202F05EFC144808F0FB
:100620008FFB0446A0B188B06A46124BC2E9053080
:10063000032342F8103F00234FF4C2510B4802F04D
:100640004BFC6FF00404B54620461C37BD46F0BD98
:10065000094BC7E904534FF48651034607F11002D2
:10066000024802F039FCEFE75AFA0000DCF500001E
:10067000BD05000069FA000081FA000070B50A4D5E
:100680000A4C4FF0FF324FF0FF3328460CF0FFFFCB
:10069000C168028A0431043AA36804485E684FF0D6
:1006A000FF33B047EDE700BFA403002080F2000055
:1006B000934228BF134670B500F10C0528461C462E
:1006C0000E460CF0E6FF844208D9084908486B2220
:1006D0000CF0E3FB6B2105480CF0D8FB22463146B9
:1006E00028460CF0DEFF204670BD00BFC8FA0000AF
:1006F00005FA00002DE9F04F0B7887B0032B12D8D4
:10070000DFE803F002020AA34B6853F8040C07B0B9
:10071000BDE8F04F04F0B6B9CC68554F554ED1E95D
:100720000195002C60D107B0BDE8F08F98F800303B
:10073000037601233B700135013CF2E7DFF838A175
:1007400033682246DAF8000009EB0501FFF7B0FF35
:10075000336880461B1A3360CBB9484BDAF8000087
:100760001A78C368022A16D0052A14D0012A08D0A4
:1007700002233B70424B1B687BB1984700233B70C0
:1007800005E09B78022233603A70002BF2D045449A
:10079000A4EB0804C5E75B88F4E73A4A0592022215
:1007A00004924FF48251384804AA02F095FBE5E721
:1007B000DFF8C4B033682246DBF8000009EB05011E
:1007C000FFF776FF336880461B1A3360002BDED1BB
:1007D0002B4B1B6813B1DBF80000CEE7294ACDE9AB
:1007E00004A2DEE700233B7097F800A0BAF1010FE6
:1007F000A4D0BAF1020FDBD0BAF1000FF2D119F890
:100800000520DFF87880531EDBB2012B88F800202A
:1008100001D9052A8FD1042B8CBF00231B4A1C4809
:1008200098BFD35C0022336000230CF02BFF124BE7
:10083000186000287FF47AAF1649174885220CF01B
:100840002CFB852113480CF021FB144A144D13682E
:100850001449013303F0010313608268002B18BFB1
:10086000294614698022234607B0BDE8F04F184797
:10087000E51D0020501100204C110020E41D002037
:100880005411002014FB00007CF5000080FB0000E8
:10089000B8030020C8FA000005FA00004811002043
:1008A000E41C0020641D0020F0B5284B87B000AF89
:1008B0001860274D28460EF052FA034680B9254AA3
:1008C0007A6102223A616FF004044FF482512248A7
:1008D00007F1100202F000FB20461C37BD46F0BDB8
:1008E000AE683368B3B1002228461C4998470446D5
:1008F00098B16D4688B06A46194BC2E905340323A6
:1009000042F8103F00234FF4C251134802F0E4FABA
:10091000AD46E1E76FF05704EBE7124A124913685E
:10092000013303F001031360104A002B08BF114686
:1009300042F21073F46880222846A047044600283B
:10094000CAD06D4688B06A46094BD6E754110020DC
:1009500080F200003AFB00007CF50000F506000084
:1009600050FB000048110020E41C0020641D002002
:1009700069FB00002DE9F341074614461D4600229D
:1009800000231A480E46DDF820800CF07BFE019013
:1009900048B10C300CF07DFE631D4344834207D9FF
:1009A000019804F06FF86FF00B0002B0BDE8F08121
:1009B000042201980DEB02010C300CF072FE01983C
:1009C00039460C300CF079FE0198224631460C3045
:1009D0000CF067FE0198424629460C300CF061FE8F
:1009E0000348019904F02EF80020DEE7E40300201C
:1009F000A40300202DE9F04F91B0009302F004030E
:100A00000293C2F3C2030133840705460E46DDF8A4
:100A100068900392059340F0E181041D30B10729ED
:100A200009D86FF01B0011B0BDE8F08F01F0070688
:100A3000341DC6F10806009B4FF000084FF0040A71
:100A4000591E4FF0FF3347460193C3465346CDF836
:100A500010800DB1009A22600598002800F3D7801D
:100A60009548009A824203D394488242C0F0CF80D6
:100A7000039AA4EB050E92074FEA9E0040F1DE8038
:100A80004FF0000CCCE07A285DD84B280ED84728D0
:100A900059D829282DD8252852D054D820287AD0A2
:100AA0002338D0F1000B4BEB000B74E04C382E28B0
:100AB00049D8DFE800F07048484848484848484866
:100AC00048484B484848484848484859484B4B597B
:100AD0005959704B6D487048184B18484883804BE3
:100AE00048484B48800000204FF0000B4FF0040AAC
:100AF00038E001222A38C0B202FA00F010EA0E0FE4
:100B000049D110F0625C2FD110EA020B43D060464D
:100B1000013C5444B4FBFAF40AFB04F4002D60D009
:100B2000A3EB050CA4446645FFF47BAF002867D116
:100B3000042B48D159F8043B2360042304342AE0F1
:100B4000019A013A01924FF0000B24E011F8010CD8
:100B50006C2835D1002011F8023C83466C2BC5D19E
:100B60004FF0080A5346D3E709F1070929F00709AE
:100B7000073424F00704F9E802AB35B106982044A5
:100B8000B0423FF64EAFC4E900AB4FF0000B083463
:100B90004FF0080A534611F8010F002800F0AA8010
:100BA000BBF1000F7FF46FAF2528F4D14FF0010B9C
:100BB000019B013301934FF0040AEBE7584693E79A
:100BC00000208346A4E7082B40F08B8009F1070939
:100BD00029F00709F9E80223C4E9002308230834AF
:100BE000D9E768B9042B02D109F10409A5E7082B5C
:100BF00077D109F1070929F0070909F10809EDE79B
:100C0000059A013A059259F8042B009221E7039ABC
:100C1000900744D54FF0010CA4EB050E4FEA9E005F
:100C2000BEF5007F1BD3264940F27B2225480CF0FD
:100C300034F940F27B2122480CF028F90F2F10D80C
:100C4000002D41D007F140020DEB020C019A0CF887
:100C5000200C0CF8102C0498013004901EE00F2F8B
:100C600008D917494FF4207216480CF016F94FF4C2
:100C70002071E0E7D5B107F140020DEB020E019AB9
:100C8000C0B20EF8200C0EF8102CBCF1000FE2D010
:100C900060F07F000EF8200C08F101080137C5F163
:100CA00008024FF6DA7E0434069274E7BCF1000FB6
:100CB0000AD00136F2E700BFA4F1000000150100E0
:100CC0009FFB000005FA0000029802360028E5D1DB
:100CD0000098CDE90631FFF7AFFBDDE906310644A8
:100CE000DCE7404940F2C5223F480CF0D6F840F21C
:100CF000C521A0E7631BB3F5806F08D3394940F2E3
:100D0000D12239480CF0C9F840F2D12193E71DB93E
:100D1000A6F10804E01886E6029A9B0828602B706A
:100D20009DF81030C2B1EB7085F80280B8F1000F69
:100D300005D0002208A8C5F1010C97420ED14FF052
:100D4000000AC5F101030DF1200901930DF1300BEB
:100D5000574512D1601B66E66B70E5E710F8013B62
:100D6000190608D504EB0C0E764503F07F03FFF45B
:100D700058AE04F8013B0132DFE7B8F1000F03D0B1
:100D800099F90020002A17DB029BD3B11AF80B2037
:100D900004F8012B0022019B981820448642FFF49E
:100DA00040AE99F80000009904F8010B2046039228
:100DB0000EF0B6F9039A14440AF1010A09F1010987
:100DC000C6E799F8002055F822300093029B00985E
:100DD00045F82230FFF730FB421CDCE76FF00D00D6
:100DE00021E600BF9FFB000005FA00002DE9F04F4F
:100DF00095B000AF8A4604467A62BB6150B9A949F2
:100E00004FF46572A8480CF048F84FF46571A54896
:100E10000CF03CF8BB6F90F802B0C3F3C0033B6129
:100E200041B9457800780BEB80002044554517D830
:100E3000A0EB040AE3787B61BBF1000F02D0BB6F2B
:100E4000D80716D47B6953BB7B6A1BB15146204639
:100E5000BA699847554628465437BD46BDE8F08FD5
:100E6000461C3046FFF7E8FA013030440AF1010A27
:100E7000DCE7237862683B629B00FB603B6AFA61B7
:100E800004EB83097B6A002B40F00081C8460026F2
:100E9000554609EB0B0AC24551D1D94413E0BB6F4B
:100EA0009907D1D5237899463B629B00FB60636824
:100EB00004EB8909FB617B6A002B7AD15546BBF1B3
:100EC000000F4FD15E46BB6F13F0050F0CBF4FF004
:100ED000020B4FF0010B7B6909EB430ABB6F03F078
:100EE00002037B62D145B6D019F8021B19F8013C08
:100EF00054F823806D4B984502D36D4B984538D3F9
:100F00003B69002B42D0F8690BF055FD00283DD01D
:100F1000E8468AB06A46674B5361FB69C2E906310D
:100F20004FF400731384644B42F8103F00234FF4D6
:100F30001251624801F0D0FF023DC546D2E718F8D1
:100F4000013B54F82300FFF777FAFB6F01303BB108
:100F5000D7F880309E423EBFFB6F23F81600013663
:100F6000054498E7BB6F13F004061CBF7E6AD944A2
:100F7000A9E73B6923B1F8690BF01DFD0028C7D133
:100F8000BB6FDA0705D4A5EB0B05ABE77B6A002B3B
:100F9000A8D04046FFF750FAFB6F43B1D7F8803036
:100FA0009E423FBFFA6F431C22F8163001360544BB
:100FB00098E7BBF1000F6FD0BB6F13F004066ED043
:100FC000D846002607F140005A4649460EF0A8F8D8
:100FD0007B69D9445B007B607B6909EB4303BB60A1
:100FE000BB6F03F002033B60BB68994568D1B96FE2
:100FF0006378B86F890748BF002106EB030258BF2A
:101000004FEA5801C507D2B200F1D98010F0040FA1
:1010100014BF40460020FB616270A070E170204662
:10102000BA69F9687B6A9847051EFFF614AF3B6AF8
:1010300041462370FB69BA6963707B6984F802B02A
:10104000E37007F140007B6A9847B0F10008C0F2F6
:10105000E380FB68AAEB0B01C91A7B684846C91AF2
:10106000BA697B6A98470028C0F2D8804FF0000B1D
:10107000A84408EB000507F1300AB345C0F0A18091
:101080000021BA6908467B6A9847E4E65E464FF05D
:10109000000807F1300097E75E46D84698E7B0466B
:1010A00096E700BF9FFB000005FA0000A4F10000D6
:1010B00000150100CDFB0000040000016CF50000EC
:1010C00019F8021B564B19F8015C54F82500984298
:1010D00002D3544B984214D33B6923B1F8690BF007
:1010E0006AFC002880D13B68002B47D00F2E3BD9EB
:1010F0004D494FF489624D480BF0CFFE4FF48961A2
:1011000085E63B692BB1F8690BF055FC00287FF4AC
:101110006BAFBB6FDB070AD50F2E25D9424940F2D2
:101120003E4242480BF0B9FE40F23E416FE6BB6FD3
:1011300058077FF559AFB8F10F0F08D93A4940F277
:1011400041423A480BF0A9FE40F241415FE608F106
:10115000280307F1280208F1010103EB020808F84F
:10116000105C5FFA81F83FE706F1280307F12802D7
:10117000711C9E1806F8205CCEB235E7B8F10F0F4F
:1011800008D9294940F24B4228480BF086FE40F22C
:101190004B413CE608F1280307F1280208F1010061
:1011A00003EB020C07F1500308F1020853FA80F038
:1011B0000CF8101C5FFA88F800F8105C14E70020A7
:1011C00029E71BF80A3054F8239087F82F30FB6F7B
:1011D000FBB133F81B800121BA697B6A07F12F004C
:1011E000984700281ADB0544B8F1000F06D148469D
:1011F000FFF722F900F101081FFA88F84146484636
:10120000BA697B6A9847002808DB05440BF1010B9B
:1012100033E7D7F87C80DEE745461CE605461AE64C
:10122000A4F10000001501009FFB000005FA00007A
:1012300080B505460E46174698460AF0F5F903466E
:101240000DF0A6FF0446DFF81890424649F800303A
:1012500039463046A84754F8090003F09BF800BF10
:101260000800000070B589B30668012230460BF013
:101270000EFC0146044630460BF0D1FBC30708D4F0
:101280001349AF2213480BF008FEAF2110480BF0B2
:10129000FDFD214630460BF0D8FB251829460022DB
:1012A00030460BF0BCFB2D1AAC4206D00849B722E1
:1012B00008480BF0F2FDB721E8E7214630460BF075
:1012C000CAFB2146BDE870400BF006BD70BD00BFF3
:1012D00081FC000005FA00002DE9F8430F4606687E
:1012E0001446B2684B1EB2F5004F34BF04210821EA
:1012F0003B4010D0C7F1000909EA0709494503F14D
:10130000FF3028BF494618420CD11F46BCB9002502
:101310002846BDE8F8838F420FD82146BDE8F84340
:101320000BF01CBD2C492D484FF4A2720BF0B5FDFB
:101330004FF4A27128480BF0A9FD9946E6E7B2EBFD
:10134000D40FE4D9E319591A10460BF0AAFB014651
:1013500030460BF000FC80460028D8D0B36809EB7B
:10136000C005B3F5004F34BF042308231D443544A2
:101370007B1E1D44B5FBF7F57D43A5EB090529460A
:1013800030460BF084FB2C44073424F00704A41BE4
:10139000804507464FEAE40408D2024641463046FB
:1013A0000BF013FC414630460BF054FC39463046F6
:1013B0000BF04BFB3844844208D239463046224673
:1013C0000BF003FC214630460BF044FC0122394669
:1013D00030460BF040FB9BE781FC000005FA000063
:1013E000B2F5802F2DE9F0410CD2042A20D83D49D6
:1013F0004FF4F9723C480BF050FD4FF4F971394845
:101400000BF044FD0823D21ACC1D114424F007042C
:1014100021F00701091B17294FEAD1060AD83149E3
:1014200040F2FB1230480BF038FD40F2FB11E6E7CA
:101430000423E8E70027046031463046A660E760F1
:101440000BF038FB0121421D804630460BF029FB92
:101450009200D51DED082844B0423AD8B8F1FF3FBC
:101460003946A2F1100204F11000B8BF3A460DF05F
:101470007EFE2A46394620460BF005FB3B463A469F
:10148000394620460BF0D6FAA6EB05082046394629
:1014900001220BF0E0FA424629460BF0F4FA2B4603
:1014A0003A46294620460BF0C5FA314620460BF055
:1014B000EAFA43463A46314620460BF0BBFA31463B
:1014C000204601220BF0C7FA2946BDE8F0410BF097
:1014D000C1BB04494FF4037203480BF0DEFC4FF428
:1014E00003718CE781FC000005FA00002DE9F84F3C
:1014F0000446A38B08461907164612D4022803F0A7
:10150000070162D120460BF05BFC88B1013804284A
:1015100000F22181DFE810F059001F017E00C400B5
:10152000F10001280CBF43F0100143F02001A1831A
:1015300004F1140008F0B0FA002800F0A98086F346
:101540001188BFF36F8FBDE8F88F03F00702501FBB
:1015500001281ED80020062A2768C4E9000014D1FB
:101560003A4603E0E08B0130E0831268002AF9D1AB
:1015700023F0070343F002022046A2830BF020FC75
:1015800090B342F02002A2832EE023F007039AB228
:10159000F2E7042A33D123F007039AB22046A2834C
:1015A0000BF00EFC10B142F02002A283A38B03F0DB
:1015B0000709894540F0D880A18BCA0640F11E81F9
:1015C00021F01003A38301F00701D4F81880A38B46
:1015D000B8F1000FB9DA0022276823F00703C4E945
:1015E000002243F00103A383A38B03F0070989457D
:1015F00040F0BB80002FDFD00025AA463EE08449A2
:1016000040F21B1283480BF048FC40F21B1180484B
:101610000BF03CFC41B17E494FF4AB727D480BF0BE
:101620003CFC4FF4AB71F2E7236843B9784940F2D0
:10163000571278480BF031FC40F25711E7E7236965
:101640001D6845B972494FF4AD7272480BF025FC24
:101650004FF4AD71DBE70F4688464FF00609A38BC8
:1016600023F0070343F006039BB2A383A268002A7A
:101670007DD1002F7ED1002D9ED0BA4643F00803C5
:1016800004F1140B5846A38308F006FA002873D11E
:101690006149F0225F480BF000FCF0215E48B7E79B
:1016A000022908D05A4940F25D125A480BF0F5FB66
:1016B00040F25D11ABE7E78B47B155494FF4AF728C
:1016C00054480BF0EAFB4FF4AF71A0E723695D6863
:1016D00045B94F4940F261124E480BF0DEFB40F233
:1016E000611194E7A38BB84623F0070343F004038A
:1016F0009BB24FF00409A383B8E7012908D04449FD
:101700004FF4B27243480BF0C8FB4FF4B2717EE75E
:10171000236843B93E4940F265123E480BF0BDFBD9
:1017200040F2651173E723699D6845B938494FF464
:10173000B47238480BF0B1FB4FF4B47167E700277F
:10174000A38BB84623F0070343F005039BB24FF089
:101750000509A3838AE72E4940F26B122D480BF04E
:101760009CFB40F26B1152E7002700257EE74FF00B
:10177000010A83E7924681E786F31188BFF36F8FF2
:10178000BAF1000F17D14FBB15B120462349A84726
:101790004FF02003EFF3118683F31288BFF36F8FAE
:1017A000584608F06BF908BB1B49722219480BF028
:1017B00074FB722172E7A1680029E4D00E68002949
:1017C000E1D043464A462046D1F804A0D0471EB196
:1017D000336831461E46F2E73346FAE73946434658
:1017E0004A4620463F680BF017FBCCE7584608F006
:1017F00061F9A38B23F00803A383DDE68B067FF555
:1018000097AE21F02003A38301F007017AE600BF21
:10181000A2FC000005FA0000C4FC00002118000032
:10182000F8B504460D4600F114064FF02003EFF31F
:10183000118783F31288BFF36F8F304608F01EF9CB
:1018400040B90A490A4872220BF027FB7221074867
:101850000BF01CFB304608F02DF9A5613A462046F6
:10186000BDE8F8400121FFF741BE00BFC4FC000005
:1018700005FA00002DE9F04704460F460BF0BCFACC
:10188000051E5CDB04F114094FF02003EFF3118A0D
:1018900083F31288BFF36F8F484608F0EFF8804655
:1018A00038B93249722232480BF0F7FA72212F48C8
:1018B0003AE0484608F0FEF84FF6FF72E38BA68B3D
:1018C000934206F007063DD0022E0ED13546013375
:1018D000E383484608F0E0F8002839D12349F02294
:1018E00023480BF0DAFAF021E1E7062E13D8DFE8FF
:1018F00006F0092C1212090409006FF085054FF05B
:101900000008E6E700233B6063687BB9C4E9007721
:101910007EB13546F3E7174915484FF4E4720BF0F2
:10192000BCFA4FF4E47113480BF0B0FA1F60676023
:10193000EEE7524602212046FFF7D8FD35462846FD
:10194000BDE8F0876FF00A05D9E76FF00405D6E728
:101950008AF31188BFF36F8FB8F1000FEFD0002327
:101960003246394620460BF057FAE8E7C4FC00003F
:1019700005FA0000A2FC000008B54268034602F028
:101980000302032A816002D02AB1002000E000682F
:1019900000225A6008BD0449044845220BF07DFA34
:1019A000452101480BF072FAF1FC000005FA000035
:1019B00038B50D460446202200210DF0D8FB002248
:1019C000EB68E361AB68A3612B6823626B68A2627A
:1019D00063622A6923B1591E194208BF42F001020D
:1019E00022610122002104F12C000DF041FA40B1E6
:1019F000044905482E220BF050FA2E2101480BF025
:101A000045FA38BD14FD000005FA00002DE9F04F3D
:101A1000002689B0CDE90123436A04468B428846FB
:101A2000B2460596079650D300F114074FF02003F5
:101A3000EFF3118B83F31288BFF36F8F3846D946CB
:101A400008F01CF840B94549722245480BF025FAC8
:101A5000722142480BF01AFA384608F02BF8079A20
:101A60002AB1314620460BF0F9FA0023079306A964
:101A700020460BF01FFA0699054641452ED32268F1
:101A8000236A204613F8221003EB820A21F0030197
:101A900003F82210216842460BF030FAE368206018
:101AA000984216D00025384607F0F6FF40B389F378
:101AB0001188BFF36F8F059929B1A2690AB1204639
:101AC000904700230593002DB0D1504609B0BDE8E2
:101AD000F08F236943F008032361E3E718B1204640
:101AE0000BF026FADFE7DDE9013213432ED0039134
:101AF0000DF071F9039948BB384607F0CDFF30B9B6
:101B00001649F02216480BF0C8F9F021A1E78BF333
:101B10001188BFF36F8F04F12C00DDE9012308F079
:101B200073FB05464FF02003EFF3118983F312880E
:101B3000BFF36F8F384607F0A1FF002883D0B5FAB6
:101B400085F5384607F0B6FF6D09ACE7204607ABD0
:101B500005AA26680BF00BFA0546A4E7C4FC0000B2
:101B600005FA00002DE9F0410446C36908460D4618
:101B7000984704F1140607464FF02003EFF311884D
:101B800083F31288BFF36F8F304607F077FF40B9B9
:101B90001449722214480BF080F9722111480BF09D
:101BA00075F9304607F086FF2B783A4643F001037B
:101BB0002B70616820460BF0A1F9606020460BF0A5
:101BC00068FA304607F068FF30B90649F022064847
:101BD0000BF063F9F021E1E788F31188BFF36F8F11
:101BE000BDE8F081C4FC000005FA00002DE9F843CF
:101BF000044600F114074FF02003EFF3118883F33C
:101C00001288BFF36F8F384607F038FF054640B99A
:101C10002F4972222F480BF040F972212C480BF00B
:101C200035F9384607F046FF2369A26813F0080F1C
:101C300002D163689A4200D9636A9B1A002B38D09C
:101C4000216A11F8223001EB820913F0030033D02E
:101C5000022803D151F82260B60805D1D80718D45C
:101C60004846E36998470646A168324620460BF08D
:101C700045F93146A06020460BF04EF9384607F092
:101C80000BFFD8B91249F02212480BF006F9F021E7
:101C9000C4E743F0020301F82230E3694846A5682F
:101CA00098472946024620460BF028F90025A060F7
:101CB000E4E71D46A946E1E70546FBE788F31188FE
:101CC000BFF36F8F002D96D14846BDE8F88300BF63
:101CD000C4FC000005FA00002DE9F0410446C36988
:101CE00008460D46984704F1140706464FF02003B6
:101CF000EFF3118883F31288BFF36F8F384607F034
:101D0000BDFE40B92149722221480BF0C6F872216C
:101D10001E480BF0BBF8384607F0CCFE2B786FF36B
:101D200000032B7023699B0705D5E268236A03EB48
:101D300082039D421BD12B786FF341032B70D4E9B2
:101D40000231994204D1324620460BF0D7F8A06008
:101D5000314620460BF0E0F8384607F09DFE58B9B2
:101D60000A49F0220A480BF098F8F021D0E72B68D6
:101D700066F39F032B60EFE788F31188BFF36F8F43
:101D800004F12C00BDE8F04108F0F8B9C4FC0000F3
:101D900005FA0000044608B54FF02002EFF3118366
:101DA00082F31288BFF36F8F04F03AFB204602F0F3
:101DB000A7FA03480AF026FE01F03EFDFCE700BF4B
:101DC0003AFD000008B543090CD0012B1BD0124985
:101DD000124840F22F320BF060F840F22F310E48DB
:101DE0000BF054F84FF0FF33C340DA07EFD50C4B3C
:101DF00003EB8003D3F8002222F0E04242EA0171B3
:101E0000C3F8001208BD4FF6FF7300F01F00C34077
:101E1000DB07DCD5034BEBE763FD000005FA0000B0
:101E2000002584500028845038B50124104B114DF2
:101E3000C3F8004502230321C5F8D0360020FFF780
:101E4000C1FF20460321FFF7BDFFC5F80447C5F8D1
:101E50000449C5F8004B0024074D012115F8010B7A
:101E60000134FFF7AFFF082CF7D1002038BD00BFC9
:101E7000001000500040005096FD000007B50DF125
:101E800007000CF00FF8114B98421CD14FF4806200
:101E90000F4B1049C3F8B8254FF40062C3F83C2536
:101EA0009DF8070004F04AFE0B499DF8070004F076
:101EB00031FE01209DF80730984004F01FFE0020FD
:101EC00003B05DF804FB6FF00B00F9E70000AD0B09
:101ED00000A002502CA0025028A10250052370B58A
:101EE000144D154E2C780134B4FBF3F303EB83034C
:101EF000E41A0BF06CFF114A137823B156F8243022
:101F0000C01A072814D94FF05023D3F8141141B147
:101F10000021C3F81411D3F814312C700CB901232B
:101F200013702C780BF053FF46F82400012070BD8D
:101F30000020FCE7E71D002058110020E61D0020CE
:101F400048B1054B054A1B68B3FBF2F35843044BF9
:101F500043F0010318477047A001002040420F00E2
:101F600030F60000F0B583B000AF381D05F016F86C
:101F70002F4B984258D104F0DBF9041E13DA38795C
:101F800005F012F86D4688B06A462A4BC2E905345E
:101F9000032342F8103F00234FF4C251264800F0BB
:101FA0009BFFAD463CE040F60703244D7C71AE68D4
:101FB000FB8074687B6814B96FF05704E2E708216E
:101FC00028461F4AA047041EDCDB3369002BF3D0F0
:101FD0000122082128469847041ED3DB01203B79C3
:101FE000984004F08BFDFE793D790F2E78790AD95F
:101FF0001449154840F2E7120AF04FFF40F2E7118A
:1020000010480AF043FF03F0BFFF0146284604F0E2
:1020100095FD0E4BB60045F000459D51002CB1D109
:1020200020460C37BD46F0BD6FF01204AAE700BF92
:102030000000AD0BD4FD0000ECF5000094F20000B0
:10204000D1200000A2FD000005FA000080A102508E
:1020500070B5049EC6F30744F5B2C6F307263046B2
:1020600003F07CFF0F2C01460AD91449144840F2B2
:10207000E1120AF012FF40F2E11110480AF006FFE7
:10208000284604F06FFD002201200E4BA400E4B2AC
:102090001A51A84004F038FD304604F067F928468C
:1020A00004F082FF084B984207D008490448752283
:1020B0000AF0F3FE75210548E0E770BDA2FD0000BF
:1020C00005FA000080A002500000AD0BFCFD0000EE
:1020D0002DE9F743144683681B6943B92A492B4805
:1020E000CB220AF0DAFECB2127480AF0CFFE0022ED
:1020F000984706460028F1D1C4F30728404603F06C
:102100005BFFB4F1805F07465FFA84F94FEA14651C
:1021100009D31F4940F2E7121C480AF0BEFE40F204
:10212000E7111B48E1E7404603F02EFF0146484611
:1021300004F02CFD174BAD005E51404603F00EFF3E
:10214000C4F307450F2D014608D9114940F2E112A9
:102150000E480AF0A2FE40F2E111E2E70E4BAD009C
:1021600049F00042EDB25A51484604F0D3FC0B4B03
:1021700007F132020093404633460194520003F0C7
:10218000E7FF03B0BDE8F083FCFD000005FA0000A6
:10219000A2FD000080A1025080A00250512000004A
:1021A00004F08EBB7FB570B9124B13480593022320
:1021B0004FF4825104AA04930AF086FF6FF01500D1
:1021C00007B05DF804FB836863B90C4B0A480593BC
:1021D00002234FF4825104AA04930AF075FF6FF0B2
:1021E0000400EDE71B681BB107B05DF804EB18476E
:1021F0001846E5E73CFE00008CF500004DFE0000AF
:1022000030B587B008B101B16AB9134B13480593D3
:1022100002234FF4825104AA04930AF055FF6FF091
:10222000150007B030BD84680CB1E56865B90C4B8A
:102230000A48059302234FF4825104AA04930AF03A
:1022400043FF6FF00400ECE741F8040BE36807B0CC
:10225000BDE83040184700BF6BFE00008CF5000061
:102260004DFE000030B51346044687B068B91A4BDE
:102270001A48059302234FF4825104AA04930AF0EA
:1022800023FF6FF0150007B030BD006860B9144B34
:102290001248059302234FF4825104AA04930AF0D2
:1022A00013FF6FF00100EEE782680AB1956865B927
:1022B0000C4B0A48059302234FF4825104AA04935D
:1022C0000AF002FF6FF00400DDE70A46AC466168E1
:1022D00007B0BDE83040604797FE00008CF5000075
:1022E000A8FE00004DFE00000020014B1860704762
:1022F0000000072030B50C460E4985B00291D0F899
:10230000A4110546CDE9003100F1E0014FF0FF33A3
:10231000204605F08BFD50B9012384F86430D5F8D0
:10232000A03123B1204605B0BDE83040184705B0C4
:1023300030BD00BFBFD1000038B50C461146054680
:102340000AF03FFF034638B9284604490AF039FF2E
:1023500003460020236038BD0120FBE7B40D0100D7
:102360002DE9F04F012381460569466885B005F5E2
:102370005B77D7E8EF2F002A03D1C7E8E13F0029B8
:10238000F7D10CBF1A46002240F0B180B368B16AA1
:1023900005F5E0781C1F10460AF098FF84425FD8CC
:1023A000013A00F09E80B2FA82F24FF00044D4402D
:1023B00072682046073222F00302C5F85822B16A3B
:1023C0000AF084FFC5F85C02B36A404663430333F6
:1023D00023F0030302EB4302230103EB440309331D
:1023E00023F0030303EBC403C5F850221A44083258
:1023F000C5F84C227368C5F85442C5F848323D4BC5
:10240000C5E9A763316800F0BDF9044630BBD9F8CF
:1024100004A0D9F81090DAE9073409F52E7B012BD6
:10242000584608BF103C08F0FDF80023DAF82400F5
:1024300031494FF4806201EB8021009358462346D6
:1024400008F006F909F52A702C4908F085F8DAF841
:10245000140083685C682CB96FF05704002139E0E0
:10246000013298E74B46264ADAF81810A04704468E
:102470000028F3D1DAF8140083681B69002BEBD035
:102480000122DAF81810984704460028E6D11D4BBF
:102490002846C5F8A0311C4BC5F8A4311B4B03934B
:1024A000D5F808320293D5F80032CDE90083D5F88B
:1024B0006032B26AD5F8681300F02CF9044600289F
:1024C000CCD105F1E00005F04BFE0028C5F8700303
:1024D0000ADB022138460AF0A9FE204605B0BDE815
:1024E000F08F6FF00B04B9E76FF01504B6E76FF0EB
:1024F0007704F2E715D2000020320020FBD1000063
:10250000EFD1000011250000A3D300005DD2000030
:1025100013B5044640B100230122CDE90032074B38
:10252000D0E9091205F036FCA36E1B6823B1E06EFA
:1025300002B0BDE81040184702B010BDB40D010054
:1025400013B504460846216901F55B71D1E8AF1F58
:10255000022910D193B1A0B10121CDE90031134678
:10256000D0E9091205F016FC074B984208BF6FF03E
:102570000B0002B010BD6FF00F00FAE76FF04C00D7
:10258000F7E76FF00100F4E72EF8FFFF2DE9F743BE
:1025900088461546066906F55B73D3E8AF3F022B04
:1025A0005FD1136823B96FF0150003B0BDE8F08365
:1025B0001B78002BF7D0D6F86893B9F1000F33D110
:1025C00006F5D4774FF0FF324FF0FF33384607F06F
:1025D000CFFB30462A6801A9FFF7AEFE019C1CB96B
:1025E00038460AF021FEDEE705F10803A3666B69B1
:1025F00084F86490E366E46360B138460AF014FE40
:1026000021463046236E2A68FFF774FE0020C8F882
:102610000040CAE72022296804F140000CF048FD80
:1026200038460AF001FEF1E730460F490AF0C9FDCD
:1026300004460028B7D005F1080383666B69C063C0
:10264000C366002380F864302022296840300CF0F3
:102650002FFD22460121304600F03EF80028D5D05B
:10266000A1E76FF00F00A0E7B40D01002DE9F04FD6
:1026700005460E4690460027D0F8A8A085B0AAF5DA
:10268000AA7421463046FDF7CDFEE0B9114BA4F106
:10269000400B0293DAF810303246CDE90083294628
:1026A0004FF0FF335846AAF5CA7905F0BFFB60B971
:1026B0007023012203FB079383F86420DAF80C30BF
:1026C0000BB158469847703417B105B0BDE8F08F8C
:1026D0000127D6E705D400001FB5144690B18AB192
:1026E000012912D10A4B00F1E0010293D0F8A43184
:1026F000403201934FF0FF332046009305F096FBE4
:1027000004B010BD6FF01500FAE70020F8E700BF35
:1027100005D400002DE9F04387B00E46DDE90E81B7
:102720001446DDE910251F4630B329B3DFF850C049
:1027300000F1E009002D08BF65469EB9CDE90344CC
:1027400000F5CA74204605960CF0D8F803ABCDE925
:1027500000432A463B464146484605F027FD07B060
:10276000BDE8F083002241460E9248462A4607B053
:10277000BDE8F04305F042BE6FF01500EFE700BF83
:102780006D260000F0B50E46044689B000286FD0D3
:1027900001230246C3630023D0F89810364F40301F
:1027A00040F80C7C42F8301FCDE901334FF0FF3385
:1027B0000093C36D0BF00FFC304A06AB92E80300A8
:1027C00083E80300184605F0F7F90546D8B904F187
:1027D000340005F0D3F90546A8B93946284805AABA
:1027E0000BF0DBFB054670B9059B9A6872B10C33A0
:1027F000D4F89400C4F8A0300AF035FEC4F8D40030
:1028000030B96FF00B05284609B0F0BD0346EFE77D
:10281000D4F894000AF027FEC4F8D8000028F0D0BD
:10282000D4F88C30D4F8A010C4F8A8300423C4F82D
:10283000AC30C4F8C4300223A362124BB4F8942025
:10284000D4F8D470C4F8B810C4F8D010D4F89010EC
:10285000236204F1A403A4F8B020C4F8A470C4F85F
:10286000C010A4F8C820C4F8BC00A661E362CAE79F
:102870006FF01505C7E700BFD2FE000010F600009C
:10288000DCFE0000A4F6000030B5002289B00F493C
:102890000F480CF091FB002200230024CDE9062311
:1028A0000E230C4DCDE903344FF400622846CDE9E8
:1028B0000144094B0949009407F02AF808492846C1
:1028C0000CF08FFA204609B030BD00BF112A00007D
:1028D000400D0020A8080020B92C00002036002060
:1028E000E4FE00002DE9F047044607464FF00109D9
:1028F000DFF8508014B93846BDE8F08794FAA4F5A3
:10290000B5FA85F509FA05F32E0108EB05156FEA0E
:10291000030A24EA03042B7B002BEBD058F8063083
:102920001B694BB94644736804222846196807EAB4
:102930000A0700F0ADFADDE7284698470028D9D10C
:10294000F0E700BFFCF500002DE9F047DFF8AC90A0
:102950002B4C8046A9EB04039F2B0F460AD929492B
:1029600040F2191228480AF098FA40F21911254845
:102970000AF08CFA25480AF0C8FD064640B3002547
:102980002846BDE8F087237B73B12368DB680BB171
:102990002046984723681B6993B963680422204640
:1029A000196800F075FA013610344C4514D91549F0
:1029B0004FF4937214480AF070FA4FF49371D6E70B
:1029C000204698470028E8D00AFA06F31D43EAE7B4
:1029D00005464FF0010AE8E7D5D3B8F1000FCFD094
:1029E000002DCCD02846FFF77DFF0546002FF7D0FD
:1029F00000214FF4A47008F0EBFDF1E70CF60000A5
:102A0000FCF50000ECFE000005FA0000801100203B
:102A1000014807F0B3BB00BF80030020014B53F80F
:102A200020007047E4F6000008B5034608462BB1C5
:102A3000044A136000F062FD002008BD6FF015002D
:102A4000FBE700BF5401002010B5044C237813B9F4
:102A5000034807F093FB0123237010BDE81D0020FD
:102A60008003002010B5044606480AF04EFD3CB134
:102A7000054BD3E8EF1F0139C3E8E21F002AF8D164
:102A800010BD00BF781100207C11002000200146FD
:102A9000034BD3E8EF0FC3E8E21F002AF9D17047D8
:102AA0007811002070B5FFF7F1FF05460D4C0E4E72
:102AB000B44215D90D490E4840F2D1120AF0EDF991
:102AC00040F2D11109480AF0E1F963685B792BB152
:102AD00023685B6813B12946204698471034E7E71E
:102AE000F3D370BDFCF500000CF60000ECFE000016
:102AF00005FA000010B5044C04492046FEF758FFC3
:102B0000034B1C6010BD00BFC4020020D0F60000C3
:102B10007011002008B50023074A4FF400411370DC
:102B2000064A07481360074A1360FFF77DFFBDE8B8
:102B30000840FFF7DFBF00BFE91D0020781100202B
:102B400007D500007C110020014600220023014827
:102B5000FEF75CBFC40200200148FFF747B800BF82
:102B6000C4020020024B01461868FFF7B5B800BF49
:102B70007011002001480AF099BA00BFC402002079
:102B800070B52C4B1878002853D0FFF7E5FF0546A9
:102B900020B3294BD3E8EF1F0139C3E8E21F002A15
:102BA000F8D1264C264EB44214D92649264840F284
:102BB000C5120AF072F940F2C51122480AF066F90E
:102BC00063685B7923B12368294620461B689847D0
:102BD0001034E8E7F4D32846FFF7C4FF1B4B1C4C26
:102BE0001B68002B19DD0CF0A0F94FF47A72A0FBE2
:102BF000020302FB0131C30B43EA4143D4E9002045
:102C00009B1A40F2E9324FEAD13161EB0001934265
:102C100071F1000101D3FFF745FFD4E9003213F54C
:102C20007A7342F10002C4E90032BDE87040FFF758
:102C3000A1BF70BDE81D00207C110020FCF5000044
:102C40000CF60000ECFE000005FA000078110020F0
:102C5000380D002070B5134D297809BB0120FFF70E
:102C600073FE114C114EB44213D9114911484FF45F
:102C7000C4720AF012F94FF4C4710D480AF006F953
:102C800063685B791BB1236820469B6898471034C2
:102C9000E9E7F5D3FFF774FF0028FBD101232B7080
:102CA00070BD00BFE91D0020FCF500000CF600001F
:102CB000ECFE000005FA00002DE9F0472D4B2E4FE9
:102CC000FB1A1B090AD12D494FF457722C480AF000
:102CD000E4F84FF4577129480AF0D8F80021084663
:102CE000FFF732FE044650B340F267684FF0000928
:102CF0000CF04EFA234B244A1B58136033B1234B7C
:102D00001B68092B02DD224807F038FA0025DFF89E
:102D100080A044B12046FFF7E5FD044618B94FF006
:102D2000FF384FF0FF39FFF72BFF064628B95DB992
:102D300042464B46504607F067FA3546E9E74FF002
:102D4000FF384FF0FF39D3E70A4D08E0F0D22B6887
:102D50009B691BB100222846114698471035BD4299
:102D6000F4D906494FF4547205480AF096F84FF426
:102D70005471B0E7FCF500000CF60000ECFE00001A
:102D800005FA000008000000741100207C110020EA
:102D90008003002013B526480AF0B7FB254B1B78AB
:102DA00053B34FF02003EFF3118483F31288BFF382
:102DB0006F8F214806F062FE40B9204972222048F8
:102DC0000AF06BF872211D480AF060F81A4806F004
:102DD00071FEFFF7D5FE184806F05EFE30B91749C0
:102DE000F02217480AF059F8F021ECE784F3118833
:102DF000BFF36F8F02B010BD124B1B68002BF9D0D0
:102E000050B9002200231048CDE900234FF40042BE
:102E1000002309F015F8EDE70928EBD10A480CF07A
:102E2000D7F80A4802B0BDE8104007F0A7B900BFC4
:102E30007C110020E91D00206C110020C4FC000062
:102E400005FA000074110020400D002080030020CE
:102E500010B5064B04461B6898472146A0600448FD
:102E6000FEF780FEBDE81040FFF794BF540100203C
:102E7000C4020020044A054B9B1AB1EBD30F34BFA8
:102E800052F83100002070473CF50000FCF50000CE
:102E90000E4B10B5C31A1B110133DBB240B90C49FC
:102EA0000C48DF2209F0F9FFDF21094809F0EEFFA5
:102EB0004468237143689A7101224368196043682A
:102EC0005A71BDE81040FFF7BFBD00BFFCF5000020
:102ED0004AFF000005FA00002DE9F04F8FB0C1F362
:102EE0004A2804AF0D469146B8607B600C0DB8F1DE
:102EF000000F65D000264FF0040B4FF00A0A07F1CF
:102F00001403C7F80C80C7E907667E620193CDF809
:102F100008B0CDF800A007F11C0332464846F96816
:102F2000FDF764FFB0F5006F03461CD36C468AB012
:102F3000D9F8041004AB2B481A46C3E9050140F246
:102F4000FF71D9614FF400711984274B42F8103F8B
:102F50004FF4125133462548FFF7BEFFA5462C37E4
:102F6000BD46BDE8F08FC0F30A0804F1170018440D
:102F700020F0070080083B60FFF7E6FD68F353256B
:102F8000044628B33B6800F11001C7E9083607F191
:102F90001403F961CDE900A3CDF808B04846144AFE
:102FA000F96807F11C03FDF721FF002810DA114929
:102FB0001148592209F071FF59210E4809F066FFA6
:102FC00004F1170020F007008008FFF7BDFD04465C
:102FD00068F353252A4620467B68B9680AF0C7FA89
:102FE000BDE700BF8BFF00000400000194F5000066
:102FF00043D50000CAFF000005FA00002DE9F04F9C
:1030000087B00446DDE9105ADDE912690F469346A0
:103010009846A6B11021334652460020CDF80090C4
:10302000CDF81490FDF7E6FC011E09DA1E4978225E
:103030001E4809F032FF78211B4809F027FF31466E
:1030400005F1170008441A4B04F007040BF0070BB6
:10305000E40020F0070003EA412344EA8B148008CF
:103060001C430391FFF770FD44EA0554054688B1FF
:1030700086B1334652460399CDF800901030FDF7E3
:10308000B9FC002806DA08499222084809F005FF31
:103090009221D1E7434622463946284607B0BDE88B
:1030A000F04F0AF064BA00BFCAFF000005FA000042
:1030B00000FE0F000EB403B503AB53F8042B01461A
:1030C0000448019301F074FB02B05DF804EB03B017
:1030D000704700BFF5300000CA0605D48B064CBF10
:1030E00002490349FFF7E6BF704700BFB30D010077
:1030F000B20D010038B54B6805461A68CB680C461E
:103100009A4202D108460AF058FA6368D3E8EF2FD2
:10311000511CC3E8E01F0028F8D1A3689D546368E0
:103120001A68E3689A4208D9054906487A2209F0E4
:10313000B4FE7A21024809F0A9FE002038BD00BF84
:10314000F6FF000005FA00002DE9F04F89B09B461C
:10315000DDE914839DF84C700593169B04460D46DB
:10316000179E06920493002F00F09380042F0AD933
:10317000994940F2BF12994809F08FFE40F2BF1101
:10318000954809F083FE06F0080307930AF0D7F983
:1031900006F0020A024600284AD020469049FFF76E
:1031A00089FF8146BAF1000F08D016F0440F41D1D3
:1031B0002A4620468B49FFF77DFF814406F0010334
:1031C00053B1894B204653F82720884B8849002A61
:1031D00008BF1A46FFF76EFF06F00803002B55D014
:1031E000844B204653F827208349FFF763FF0546A9
:1031F000069B2BB11A4620468049FFF75BFF05442A
:10320000BBF1000F05D05A4620467D49FFF752FF1B
:1032100005444D44B8F1000F4CD1049B002B60D104
:10322000F30700F1D28031462046FFF755FFC6E094
:103230008146B7E7734B18680028BED0724B4FF435
:103240007A7A1B684FF46161B5FBF3F5B5FBF0F3D7
:1032500000FB13550AFB05F5B3FBF1F2B5FBF0FEDD
:103260004FF03C0C01FB123100FB1E55B1FBFCF38F
:103270000AFB05F5B5FBF0F50CFB13112046009198
:10328000CDE901E56149FFF715FF96E706F008056E
:10329000AEE7BBF1010F08D1B8F1000F1BD1049BC1
:1032A000002B00F08C8000251BE0B8F1000FF6D059
:1032B000574811E0574843462246574909F04AFB10
:1032C00000280BDA444940F21922444809F0E5FD90
:1032D00040F2192154E74F483D46ECE7049B002B90
:1032E0006AD0DFF83891DFF838A1DDF81080314678
:1032F000B8F1100F204628BF4FF010084FF0000B18
:10330000FFF7EAFE5D4543DC059B514620461A78EF
:10331000FFF7D0FE4FF0010B1BF0070F03D149461A
:103320002046FFF7C7FED84539D9059B51462046B0
:1033300013F80B20FFF7BEFE0BF1010BBBF1100FD2
:10334000EAD14FF0000B20463649FFF7B3FE5A464C
:10335000059B20469A5C344B995C11F0970F08BF8F
:103360002E223249FFF7A6FE0BF1010BBBF1100F25
:103370001AD01BF0070F03D149462046FFF79AFEEB
:10338000D8455A46E4D849462046FFF793FEEBE776
:1033900049462046FFF78EFE0BF1010BB2E72046AF
:1033A0002349FFF787FEC7E7059B43440593049B2A
:1033B000B3EB0803049398D1002F7FF431AF20467C
:1033C00009B0BDE8F04F0AF0F8B82046074A0849AE
:1033D000FFF770FE27E700BFF6FF000005FA0000C8
:1033E0002A0001002E000100F4F600002500010073
:1033F0008910010008F70000530001005900010086
:103400005D000100881100208411002037000100B8
:10341000D5D50000F5300000B14700007E0D010059
:103420006200010068000100F11301006A00010060
:103430007C0D01002DE9F0410F884B6805460C46D4
:1034400090468E6886B0C7F382175BB1144A9B1A08
:1034500043F3CF01002920DB2078C0F3C200FFF73F
:1034600009FD0346214651F8102B6088C2F34A2219
:10347000002A01EB020408BF00210022C0F30B1058
:10348000CDE90408CDE9021428463146019700929F
:10349000FFF75AFE06B0BDE8F0810023E2E700BF67
:1034A0003CF5000042F20F7373B58B4228BF0B4608
:1034B00005680446052168460D4A08F0D9FF06460E
:1034C000636828460B225B680A490AF069F863685A
:1034D0003246694628465B680AF062F863681B2238
:1034E00028465B6804490AF05BF802B070BD00BF73
:1034F000FD0F0100890001006D0001000021012382
:10350000064A904206D8064A01B901231360054BCA
:1035100018607047012140085B00F2E740420F004D
:1035200084110020881100200122014B1A7070477D
:10353000EA1D0020014B002019607047A0110020F7
:103540000122024B02481A700AF037B8EB1D002026
:1035500038F700000148FFF7A5BF00BF38F70000AB
:1035600010B5064B0C461868FFF758FA2146BDE81F
:10357000104003460F220248184700BFA011002048
:1035800038F7000010B9074B18707047064B1B78CE
:103590001BB141F288300BF0DEBBA420002108F003
:1035A00017B800BFEA1D0020EB1D00202DE9F843ED
:1035B00080460E460424DFF870901C4F99F80050A6
:1035C00095B904F0AFFF28463246414604F05CFF4F
:1035D000054604F0B1FFE5B101233B7099F80030D6
:1035E00073B93046BDE8F88332464146002004F006
:1035F0004BFF0546EFE72046651EFFF7C3FF2C464D
:10360000002004F085FF0028EBD03B78002BF2D19E
:10361000E7E73B78002BE4D0013C2046FFF7B2FF00
:103620003B78002BCAD1DCE7EB1D0020EA1D00200F
:10363000014808F0DBBD00BF48F7000038B504467C
:1036400018B90F4B0F485B6898476168B1F5683F40
:1036500010D0B1F5680F0DD00B4DA9420AD011F46E
:103660006861206807D00146084806F07FF800230B
:103670002360656038BD14220BF079FDF9E700BFC7
:1036800058020020C50001002C5F5CA9A416002090
:1036900008B560B34368B3F5683F0ED0B3F5680F63
:1036A00018D0144A934220D000684FF0FF324FF0F8
:1036B000FF3306F05DFB58B115E001220368D3E843
:1036C000EF1F002903D1C3E8E02F0028F7D10AD16A
:1036D000002008BD0368084A1B7803F5807352F880
:1036E0002330002BF4D00548F3E70548F1E76FF4E9
:1036F000E040EEE72C5F5CA900000350E98FFFFF7C
:10370000EA8FFFFF08B520B34368B3F5683F09D0DF
:10371000B3F5680F13D0114A93421DD0006806F02C
:10372000DDFB14E000220368D3E8EF1F012903D179
:10373000C3E8E02F0028F7D109D0094808BD0021CF
:103740000368084A1B7803F5807342F823100020B1
:10375000F4E76FF4E040F1E70348EFE72C5F5CA982
:10376000E98FFFFF00000350EA8FFFFF10B504460A
:1037700018B91D4B1D485B6898476368B3F5683FEF
:103780002FD0B3F5680F2CD0194A934219D1236872
:1037900003BB4FF0FF324FF0FF332146154805F0D1
:1037A0008DFF08B923681BB90F4B13485B68984716
:1037B0001422002120680BF0DAFC4FF46863636088
:1037C00008E0B3F5683F0DD83A2B03D040F6BA6253
:1037D0009342DED120680BF023FB636843F03A0389
:1037E000636010BD054AF3E758020020C5000100E0
:1037F0002C5F5CA9A4160020EB0001003A00003AFF
:1038000008B506494023142205480BF0D5FABDE857
:1038100008400449044808F05BBD00BFA411002023
:10382000A416002050F7000064F7000001491022A0
:103830000A60704710ED00E072B6404080F31188D6
:10384000BFF36F8F01B5FEF749FB002802D0BFF32D
:103850004F8F30BFBDE8014062B6BFF36F8F704736
:1038600072B6494081F3118801B5FEF737FB002895
:1038700002D0BFF34F8F20BFBDE8014080F3118815
:1038800062B670472DE9F04781460C4600AF00292B
:103890004CD0D1E900126E468AB0A3686D464FF055
:1038A000050AA8462548C5E90723C5E9050148F8E2
:1038B00010AF002342464FF421512148FFF70CFB83
:1038C000D4E90312B5466369AD461E48C5E907232E
:1038D000C5E90501C5F810A0002342464FF4215167
:1038E0001748FFF7F9FAB54688B0E3696D464FF01F
:1038F000030AA846144AC5E9052348F810AF002377
:1039000042464FF4C2510E48FFF7E6FAB546A369A6
:10391000AD460E4AC5F810A0C5E90523002342466E
:103920004FF4C2510648FFF7D7FAB546214648463C
:1039300005F038FCBD46BDE8F08700BF1801010066
:10394000D4F5000047010100760101008501010066
:1039500040B2002807DB01234109034A00F01F00A1
:10396000834042F82130704700E100E040B2002877
:103970000CDB01220649430900F01F00824020337E
:1039800041F82320BFF34F8FBFF36F8F704700BF05
:1039900000E100E0054B420953F82220012300F02A
:1039A0001F0003FA00F01040704700BF00E100E084
:1039B0000131072908B508D90D490E485C2209F0E4
:1039C0006CFA5C210A4809F061FA40B20028ACBFE9
:1039D00000F16040084B4FEA4111C9B2ABBF00F59E
:1039E000614000F00F0080F80013195408BD00BFBB
:1039F000B301010005FA000014ED00E030BFFFF74D
:103A0000FDBF00BF0B4A08B50B4B22F07F029A6046
:103A1000BFF34F8FBFF36F8FD3F8882022F470026B
:103A2000C3F8882005F08CFC07F04CFF00F02CFC5C
:103A300005F0D0FC0000000000ED00E00A4A0B4950
:103A400093680968C3F88800C3F88C1008494B686C
:103A500043F080534B60002383F31188BFF36F8FD3
:103A60009368D3F88C007047BC1A002000F900005E
:103A700000ED00E017498A684FF030001044EFF382
:103A8000098C80E8F01F202080F31288BFF36F8F2D
:103A9000114F4FF000664A698A603E604FF084041F
:103AA000141920680D4C2060D2F888000023C2F859
:103AB000883080F3118802F1300090E8F01F8CF319
:103AC000098802F1000004B509F0A5FDBDE8044035
:103AD00070470000BC1A002004ED00E0C41600206E
:103AE0001EF0040F0CBFEFF30880EFF3098081692B
:103AF00011F8021C0229FFD001B509F07DFD01BDBE
:103B000042F8203C009B0B4942F81C3C019B21F0F1
:103B1000010142F8183C029B42F8081C42F8143C90
:103B20004FF0807342F8043C0023203A0265C0F84D
:103B300088307047311200000A4BD0F884409860FA
:103B4000094B1C60436F83F30B88104681F309888F
:103B5000002163B681F31188BFF36F8F0022002329
:103B6000FDF766FBBC1A0020C416002001B5EFF378
:103B70000580A0F110004FEAC0000449014409C9C2
:103B80009847BDE80140024908470000BCF2000028
:103B9000F53B0000124B134A2DE9F041D518013DC9
:103BA000B5FBF3F5DFF840805D43104B074608EBAB
:103BB0000304013CB4FBF3F403FB04540E1B304636
:103BC0000B490BF0ADFA701942460021083E0BF08C
:103BD000CEFAC7F8846004F10800BDE8F08100BFA8
:103BE00001000000000000000400000004000000CC
:103BF0000CF60000044B99685869884203D00349C9
:103C00004FF080520A607047BC1A002004ED00E0BB
:103C10002DE9F04186B006460D4600AF02244D4B1B
:103C20004FF482517B614C483C6107F1100209F06E
:103C3000F6FC4A4B9B6AD90677D5494B46484FF468
:103C40008251C7E9044307F1100209F0E8FC112092
:103C5000424B9B6A1A070BD5424B3F487B610223BC
:103C60004FF482513B6107F1100209F0D8FC122099
:103C70003A4CA36A9B0723D5E8463B4B4FF482514D
:103C80007B61022307F110023B61334809F0C7FC56
:103C9000636BA26A110612D588B06A4633492E4872
:103CA000C2E9051303234FF4C25142F8103F09F053
:103CB000B6FCC5461EB1A36A23F08003A36213209D
:103CC000264B9B6ADA070BD5294B23487B610223DD
:103CD0004FF482513B6107F1100209F0A0FC14205F
:103CE0001E4B9B6A9B060BD5224B1B487B61022314
:103CF0004FF482513B6107F1100209F090FC15204E
:103D0000164B9A6AD60602D49A6A94070FD59B6A14
:103D1000D9060CD51849194840F2631209F0BDF8CC
:103D200040F26311144809F0B1F8102090E70B4BF2
:103D300018379A6A920642BF5A6A22F400525A62AF
:103D40009A6A42F0FF029A6200232B70BD46BDE8DA
:103D5000F08100BFE9010100D4F5000000ED00E0B2
:103D6000FF01010032020100450201005D02010075
:103D70007302010092020100C102010005FA000075
:103D80002DE9F04186B006460D4600AF0224474BB0
:103D90004FF482517B6146483C6107F1100209F003
:103DA0003EFC444B9B6AD9046DD5434B40484FF4CD
:103DB0008251C7E9044307F1100209F030FC1720D3
:103DC0003C4B9B6A1A050BD53C4B39487B6102235F
:103DD0004FF482513B6107F1100209F020FC1820DA
:103DE000344CA36A9B0523D5E846354B30487B61AC
:103DF000022307F110023B614FF4825109F00FFCDE
:103E0000A36BA26A100412D588B06A462D492848CF
:103E1000C2E9051303234FF4C25142F8103F09F0E1
:103E2000FEFBC5461EB1A36A23F40043A36219201A
:103E3000204B9B6A59050BD5234B1D487B61022300
:103E40004FF482513B6107F1100209F0E8FB1A20A0
:103E5000184B9A6AD20518D51C4B15487B61022372
:103E60004FF482513B6107F1100209F0D8FB1B208F
:103E7000104A1837936A43F47F43936200232B70F0
:103E8000BD46BDE8F08116209AE79B6A9B04EFD5FA
:103E90000F4B07487B6102234FF482513B6107F1CE
:103EA000100209F0BCFB1C20E2E700BFFB0201008E
:103EB000D4F5000000ED00E0110301003202010022
:103EC000220301003B030100500301006B030100CA
:103ED0009202010010B586B002243E4B4FF482518D
:103EE0003D4804AA0593049409F099FB3B4B9B6A57
:103EF00099016CD53A4B38484FF4825104AACDE968
:103F0000044309F08CFB1E20344B9B6ADA010AD56E
:103F1000344B3148059302234FF4825104AA049391
:103F200009F07DFB1F202D4B9B6ADB020AD5022482
:103F30002D4B29484FF4825104AA0593049409F0AB
:103F40006EFB2046254B9B6A1C030AD5274B224853
:103F5000059302234FF4825104AA049309F05FFBF6
:103F600021201E4B9B6A59030AD5214B1A48059301
:103F700002234FF4825104AA049309F050FB22203B
:103F8000164B9B6A9A030AD51A4B134805930223D2
:103F90004FF4825104AA049309F041FB23200F4BF4
:103FA0009B6ADB030AD5144B0B48059302234FF49D
:103FB000825104AA049309F032FB2420074A936A31
:103FC0006FEA03436FEA1343936206B010BD1D20EE
:103FD0009AE700BF83030100D4F5000000ED00E084
:103FE0009B030100AE030100C8030100F2030100BE
:103FF00010040100350401004F0401002DE9F043D5
:104000008BB0874B04465868002600AFC0F3080306
:1040100086F31188BFF36F8F02F07F45B5F17F4FB4
:104020000ED102F00C05082D15D17E4B4FF48251B4
:10403000FB6102237C48BB6107F1180209F0EFFA2B
:104040007A494FF48B627A4808F027FF4FF48B616E
:10405000764808F01BFF15074CBF0C460126002CC4
:10406000EED00022FA71DA1E092A00F2B880DFE8E9
:1040700002F005ABAE96B6B6B6B6B6B1E9464FF0AD
:1040800002086C4B07F11802FB614FF4825166483D
:10409000C7F8188009F0C3FA0023614DFB71EB6A81
:1040A0009A070BD5644BC7E906834FF482515E48EB
:1040B00007F1180209F0B3FA002338E0EB6A002B8D
:1040C00001DA5E4BEFE7EB6A5B0074D55C4B07F1FE
:1040D0001802C7E906834FF48251534809F09FFA4A
:1040E0006B69A26943F480736B61BFF34F8FBFF3B9
:1040F0006F8F6B6932F8022C23F480736B61BFF30E
:104100004F8FBFF36F8F4DF602739A4231D188B053
:1041100023686A464B494448C2E9051303234FF418
:10412000C25142F8103F09F07AFACD462368FA7975
:10413000DAB907F1080504F1200C2A462068616805
:10414000083403C264451546F7D17A6A002E61D05F
:10415000C2F3080121B96FEA52226FEA42227A6261
:10416000184607F10801FFF78DFB2C37BD46BDE867
:10417000F083AB6ADBB22BB10120F91DFFF748FDDC
:104180000346D4E7AB6A13F47F4F04D00120F91D36
:10419000FFF7F6FDF4E7AB6AB3F5803F02D3FFF714
:1041A00099FEEDE7214940F22A32214808F075FED8
:1041B00040F22A314CE71D4940F22E321C4808F0EB
:1041C0006CFE40F22E3143E70020F91DD6E70020B7
:1041D000F91DDDE71C4BFB610223BB6165E71B4A50
:1041E0006D4610F4F87F8AB0194918BF11466A4627
:1041F000103BD3614FF4007316481384164BC2E989
:1042000005014FF41151084842F8103F09F007FA30
:10421000AD4651E722F4FF7222F001029FE700BF92
:1042200000ED00E0A8040100D4F50000C102010087
:1042300005FA0000D3040100EA0401000B050100A7
:104240001905010038050100540501008F04010023
:104250007A0401007805010004000001044B5A694A
:1042600042F010025A615A6942F480625A61704702
:1042700000ED00E0EFF30880EFF3098101B572462D
:10428000FFF7BCFE01BD00BF002320210348C21878
:104290000133452B82F80013F9D1704700E100E0AB
:1042A000002080F31488BFF36F8F002080F30A880A
:1042B00080F30B88FDF774FF00200E490860BFF300
:1042C0004F8F0D4880F3088800F03EF8202080F3DF
:1042D00011880A484FF40061401880F30988EFF311
:1042E00014800221084380F31488BFF36F8FFFF717
:1042F00089FB000094ED00E0205E0020204A0020B1
:10430000BFF34F8F0549064BCA6802F4E0621343BE
:10431000CB60BFF34F8F00BFFDE700BF00ED00E0B3
:104320000400FA05002318460649D1F89020C2F38C
:104330000722934200DB7047C1F89830C1F8A00013
:104340000133F6E700ED00E010B572B6002484F307
:104350001388FFF7E7FF23464FF0FF300C4A03F1C5
:1043600020010133102B42F82100F8D100234FF037
:10437000FF30074A03F160010133102B42F821009E
:10438000F8D162B6BFF34F8FBFF36F8F10BD00BF80
:1043900000E100E0084B9B6883420BD1EFF30583FB
:1043A00043B1064B5A6842F080525A605A6A22F46E
:1043B00000425A6207F03EB9BC1A002000ED00E04E
:1043C0001FB5094C094A23460121094800F02AF982
:1043D00000230393074B0121E41A01A801930294DF
:1043E00000F03AF904B010BD0000072000000020E2
:1043F00074F700001004002010B50C7A0B6804F06C
:104400001F0223F01F031A43CB68640923F01F0324
:10441000054943EA440343F00103C1F89800C1F899
:104420009C20C1F8A03010BD00ED00E080B500AFC9
:1044300088B06A46074BC2E90530032342F8103FB3
:1044400000234FF4C2510448FEF746FD6FF01500FB
:10445000BD4680BD8F050100ACF500002DE9F04F91
:10446000144606464FF0000987B05F4D00AF7960F3
:104470007B68994535DAD6F80480B8F1000F54D03E
:10448000B8F11F0F1BD918F01F0F18D1D6F800B0C4
:104490001BF01F0F13D1584609F0C4F8824608EBF1
:1044A0000B00013809F0BEF882451FD06FF0150AE5
:1044B0006C4688B06A464D49C2E9051A05E06C466B
:1044C00088B06A464A4BC2E90539032342F8103FD7
:1044D00000234FF4C2514748FEF7FEFCA5466FF09B
:1044E000150420461C37BD46BDE8F08F1AF1160FA3
:1044F000DED05445DCDDC5F898A0D5F89C00C5F8A1
:1045000098A0D5F8A02020F01F0042F01F08D6E99F
:1045100000211144904201F1FF3B1ED1D84508D142
:1045200031465FFA8AF009F086F809F101090C3684
:104530009EE7C5F898A0D5F89C3021F01F0103F044
:104540001F030B433146C5F89C30E0B209F073F805
:1045500010F1160FC3D0441CE7E7013AD845E0B28A
:1045600022F01F02C5F898A008D1D5F8A030314636
:1045700003F01F031343C5F8A030E7E7D5F8A010F8
:1045800001F01F010A43C5F8A020314609F053F895
:1045900010F1160FA3D0C5F898A0D5F89C203B7C4D
:1045A00008F1FF3862F304033B74D5F8A0303A7C7D
:1045B0005B0863F347123A74D6E900321344BB60D8
:1045C00023F01F03441C4344A3EB0B03E0B223F08E
:1045D0001F0307287B6102D9FFF728FFB8E707F11F
:1045E0000801FFF709FFB6E700ED00E0D80501007C
:1045F000B5050100ACF500000522044BC3F894207A
:10460000BFF34F8FBFF36F8F704700BF00ED00E027
:10461000BFF35F8F0022024BC3F89420704700BFA6
:1046200000ED00E010B5094C2278FFF717FF20706D
:1046300016300AD10649074840F21B1208F02DFC3B
:1046400040F21B11024808F021FC10BDFC1D0020A7
:10465000FB05010005FA00002DE9F74F2E4D8A46B3
:1046600006464FF00008AB462C4FD04502DB03B0A6
:10467000BDE8F08FD6F80490B9F1000F47D031684B
:104680000846019108F0CEFF0199044609EB0100AC
:10469000013808F0C7FF84424FF01402204B10D0BD
:1046A00002FB08F36FF015024BF803201D491E486A
:1046B00040F22B1208F0F1FB40F22B11194808F0E0
:1046C000E5FB14F1160F2C60F0D01978A142EDDD56
:1046D00002FB08B0C7F89840C7F89840D7F89C404C
:1046E00000F10801007B64F304000871D7F8A00012
:1046F0000C79400860F347140C71D7F89C1021F036
:104700001F016960D7F8A01021F01F01296108F18D
:10471000010814350C36A8E7C816002000ED00E0AB
:10472000FC1D0020FB05010005FA000038B51A4DFC
:104730002C68082C0AD919494FF4A972184808F0B6
:10474000ACFB4FF4A971154808F0A0FB0020FFF75F
:104750005FFF144B144AC3F8C020844213D1134B9B
:104760001C70FFF749FF0F4BD3F89030C3F30723BA
:10477000082B0FD009494FF4DE72094808F08DFB71
:104780004FF4DE71DFE7696801EB0011FFF734FEDB
:104790000130E2E7002038BD80F70000FB05010092
:1047A00005FA000000ED00E0AAFF4400FC1D002017
:1047B000F0B587B007460E46144600211022684621
:1047C0001D460AF0D4FC02238DF80230054B2A4620
:1047D00021466846CDE90476019307F075FE07B0DF
:1047E000F0BD00BF77D6000008B50649064821F0A5
:1047F0000701C1F1005202F5E022FCF7F1FD0020B3
:1048000008BD00BF73ED002060ED00201022174BA3
:1048100070B5C3F840244FF47F03D3F83021D3F8A8
:104820003431072A1BD1023B032B02D8104AD35C38
:10483000ABB14FF05024012600250520C4F81866BE
:10484000C4F8145609F021FB3046C4F8146609F088
:104850001CFBC4F81456C4F81856002070BD4FF065
:1048600050230022C3F81426F7E700BF00300050A1
:10487000410601002C21827A054B01FB02339A6A22
:104880001B7F801A1B3323F00303B0FBF3F0704748
:10489000B803002038B52C24827A094B04FB02337C
:1048A0005B6A0C685B681A68944294BF0C600A608B
:1048B000D3E90054FFF7DEFF05FB004038BD00BF21
:1048C000B80300202DE9FF470546684691461C467F
:1048D00003910AF02CFBDDE900673DB95449F82249
:1048E000544808F0DAFAF821514814E005F11408A8
:1048F0004FF02003EFF3118A83F31288BFF36F8F19
:10490000404605F0BBF840B94B497222494808F0CF
:10491000C4FA7221484808F0B9FA404605F0CAF8CE
:104920006B8B002B57D02A8B9A4236D9002200235A
:10493000284605F0CBFB044600282ED0404605F063
:10494000ABF830B93C49F0223A4808F0A6FAF02119
:10495000E0E78AF31188BFF36F8F039D002D5CD0D1
:104960003B462C27324668460AF005FB334EA37AB5
:10497000204607FB03635B6A03A91B68D3F800802A
:10498000DDE90023C047606100283AD1A07A2146C2
:1049900000FB07600AF062FA2EE06C8B4046631E53
:1049A0006B8305F079F80028CCD08AF31188BFF327
:1049B0006F8F2B7F2A8B1B33121BAC6A23F00303F0
:1049C00002FB03441D4B1E4AEB1A9B105343A37278
:1049D0002B7FE372C1E7404605F05EF80028B1D0B6
:1049E0008AF31188BFF36F8F23464A46284605F0A5
:1049F0006DFB04460028B0D10024204604B0BDE879
:104A0000F087039B9D4209D9094940F24F1209489A
:104A100008F043FA40F24F1166E765610023012276
:104A2000636022812382039A63696282E360E4E720
:104A30005E06010005FA0000C4FC0000B803002077
:104A4000A38B2EBA08B550B90C4940F2C7120C48D6
:104A500008F023FA40F2C711084808F017FA41B9E4
:104A600006494FF4E472064808F017FA4FF4E4716F
:104A7000F2E7BDE808400AF0E6B900BF5E060100B3
:104A800005FA00002DE9F041054628B300274FF054
:104A90002C081A4E2C46237A6D68013BDBB2237238
:104AA000C3B9616959B1637ADB0707D4A37A204699
:104AB00008FB03635B6A1B689B6898476761A07A81
:104AC000E76008FB006367601B6A83B12046984774
:104AD000002DDFD1BDE8F08109490A4840F2D31228
:104AE00008F0DBF940F2D311054808F0CFF9214670
:104AF00000FB08600AF0B2F9EAE700BFB803002043
:104B00005E06010005FA0000F8B5858803680E46C8
:104B100004465F1908F0BDFDB04208D206490748B7
:104B20003E2208F0BAF93E21034808F0AFF93544B7
:104B3000A5803846F8BD00BF8A06010005FA0000CE
:104B400037B540230C460A490093411A49110546DE
:104B50002346084A084808F0CAFD011E05DA28461F
:104B6000234603B0BDE83040184703B030BD00BF56
:104B7000F01600205DD7000044F20000C9B20329FE
:104B800008B508D9084909487A2208F086F97A2137
:104B9000054808F07BF90C22036901FB0233D3F8C6
:104BA000880000F0070008BDC406010005FA0000F7
:104BB00070B5C9B2032903690AD91949194840F2E5
:104BC0005D1208F06AF940F25D11154808F05EF9CF
:104BD0004FF02004EFF3118584F31288BFF36F8F39
:104BE0000C2606FB0134D4F8884014F0C00408D029
:104BF000A24206D085F31188BFF36F8F4FF0FF30CC
:104C000070BD012271430B44C3F8882085F31188DD
:104C1000BFF36F8F43680B445B6898470020EFE752
:104C2000C406010005FA000070B50D4606490446A9
:104C3000411A491140220548FFF7BAFF2B460146A9
:104C40002046BDE870401847F016002044F20000EE
:104C50002DE9F8430022012106460520FEF7A8FEB3
:104C6000114802F06BF8114B984219D102F088F804
:104C700000244FF00C080127DFF8349035694946CD
:104C800005EB441008F0DEF8002807DB08FB0455AC
:104C90000134042CC5F88870F0D10020BDE8F883F9
:104CA0006FF00400FAE700BFED4C00000000AD0B10
:104CB000B4F7000001460C2300224B4370B50948AD
:104CC000C41888331844D4E92056C4F8802008F06A
:104CD000FBFC2DB132462B46BDE870400248184718
:104CE00070BD00BFF016002044F2000008B5062891
:104CF00020D8DFE800F004121F1F14100E00124B22
:104D0000D3F8880010F007001DD1BDE80840FFF778
:104D1000D1BF0220F9E70320F7E70120F5E70B49AF
:104D200040F26E220A4808F0B8F840F26E210748B7
:104D300008F0ACF8054940F27222054808F0ADF8D9
:104D400040F27221F3E708BDF0160020C40601000E
:104D500005FA000008B54FF02003EFF3118183F34B
:104D60001288BFF36F8F124A136843F0020010607D
:104D7000DA0708D481F31188BFF36F8FBDE80840CC
:104D8000012002F023B84FF05023D3F80C24D3F8BD
:104D90000C34DB07EED5074808F096FC81F3118848
:104DA000BFF36F8FBDE808400020FFF783BF00BF4F
:104DB000A0170020781700201FB500220123CDE99D
:104DC00002236B46084ACDF800D0CDF804D008F095
:104DD000BEFC002805DB4FF480420023684605F046
:104DE00013FA05B05DF804FB8DD7000010B54FF045
:104DF0002003EFF3118483F31288BFF36F8F074A08
:104E0000136823F00201DB07116002D4012002F0D5
:104E100053F884F31188BFF36F8F10BDA0170020E3
:104E20002DE9F041012206464249D1E8EF3FC1E8B1
:104E3000E02F0028F9D19BB93F4940484B60CB6037
:104E40008A60FCF717FD00280ADA3D494FF40C721E
:104E50003C4808F022F84FF40C71394808F016F875
:104E600076B3731E012B5CD8012E07D14FF050236F
:104E7000D3F81C3403F00303022B21D009F0ABFF5D
:104E80000546F8B9304B1B78E3B14FF050230222AE
:104E90000746C3F808234FF05024DFF8B080D4F859
:104EA0001824D4F81834D20316D503F00303022BC8
:104EB00001D0012E10D175B387F31188BFF36F8F26
:104EC000BDE8F0814FF02003EFF3118783F31288E0
:104ED000BFF36F8F0125DEE7C5B13846FEF7C0FC92
:104EE000D4F81835DBB2012BD9D1D4F80421002A2B
:104EF000D5D00022C4F80421D4F804210222C4F839
:104F000018252022C8F88021A360C8E700212120AD
:104F100006F05EFBE4E74FF050230222C3F80423BF
:104F2000CEE7074940F24222064807F0B6FF40F2BA
:104F3000422192E7EC160020DC160020101700201A
:104F4000C406010005FA00001A22002000E100E07A
:104F500010B5036941B91C493A221C4807F09DFF6E
:104F60003A21194807F092FF486830B916493B22A8
:104F7000164807F092FF3B21F3E75868F8B18842E2
:104F800019D19C680868A142586000D1986000203F
:104F900008602AB15A680A609A68596002B9996033
:104FA000002010E0814206D10868206098688142A4
:104FB000EDD19C60EBE7044600680028F2D1002A9E
:104FC000E8D16FF0150010BD3B07010005FA0000A5
:104FD00030B5406801F01F04057BB2F5001F85B0B5
:104FE00044EA451405D1204602F022FB002005B01A
:104FF00030BD0025B2F5800FCDE9025514D1B3F1D3
:10500000007F0CBF042305238DF8083000232046C1
:10501000194602AA02F0EEF82A4B98424ED101211D
:10502000204602F097FAE1E7B3F1C06F23D0B3F165
:10503000007F14BF012302238DF808308368CB4022
:10504000D807E3D4B2F1A07FE0D1620904F01F03D6
:1050500013D0012A04D14FF6FF72DA40D10713D4DE
:1050600019491A4840F22F3207F017FF40F22F314A
:10507000154807F00BFF0323DEE74FF0FF32DA405D
:10508000D207EDD5124A00E0124A803352F823309D
:10509000DB07BBD40DF107052946204602F0E0F9F5
:1050A0000D4B984201D00395B0E7284602F04CFA28
:1050B000044B9842F7D06FF00B0098E76FF01500A3
:1050C00095E700BF0000AD0B63FD000005FA00008E
:1050D00000258450002884500400AD0B10B502F068
:1050E00023FA044668B902F0E3F9084B98420AD162
:1050F0002146074802F0AEF9224605210D20FEF7B1
:1051000057FC002010BD6FF00400FBE70000AD0B62
:10511000155100004209034670B502D0012A1AD089
:1051200070BD124E326951680029F9D0012503F093
:105130001F030C689D400029F2D08A682A400ED0D7
:105140004B6853B90A490B485D2207F0A6FE5D2162
:10515000074807F09BFE084EE4E7304698471CB12D
:10516000236821461C46E6E72346FAE76CF2000076
:105170003B07010005FA000058F200002DE9FF414D
:10518000D0F8048001F01F0598F80C30144645EA69
:1051900043150F4628460DF1070102F061F914F49A
:1051A000403F064614D1284602F068FA474B9E421B
:1051B0006AD19DF8070002F0C1F9B04264D04449B9
:1051C0006C22444807F069FE6C21414807F05EFEFE
:1051D00000232846194602AACDE9023302F00AF854
:1051E0003A4B98421DD186420CD19DF8070002F03F
:1051F000A5F9B04206D036497F22364807F04DFE69
:105200007F21E2E7A60351D540F206332340B3F5F0
:10521000837F1AD00DD8062B18D005D8B3B1022B36
:1052200036D06FF0150030E0B3F5807FF9D101235F
:105230000CE040F2022293422CD0B3F5407F2BD0F9
:10524000B3F5007FEDD1022300E007238DF808308D
:1052500084F48033C3F30043E0068DF809304CBF7B
:105260000323C4F3401321038DF80A3016D501231C
:10527000D8F80420BB4093600022284602A902F01F
:105280006DF8124B9842CCD1002004B0BDE8F081FB
:105290000423DBE70523D9E70323D7E7620341BFF4
:1052A0000123D8F80420BB40D360E5E7E3064FF0C4
:1052B00000034CBF0324C4F340141A46284602A935
:1052C0008DF8084001F096FFDBE700BF0000AD0B52
:1052D0007707010005FA000010B504460269A8B07E
:1052E000C2F880002549002002F0DAFA00220121EC
:1052F0002A20FEF75DFB64688422002107A809F0DC
:1053000036FF6368B3F5803F0AD31D4B0593022334
:10531000049300234FF484511A4804AAFDF7DCFDDE
:105320002368B3F5803F0AD3174B059302230493F8
:1053300000234FF48451134804AAFDF7CDFD002348
:105340000120279307AA61680432D940C90744BFE6
:1053500000FA03F142F8041C2168D940C90748BF8C
:1053600000FA03F103F1010348BFD163102BEAD126
:1053700007A802F0BBFA002028B010BD815400003D
:10538000BB070100A4F50000E707010030B50F29B5
:105390000C46056987B042D843681B68CB40DB07E1
:1053A0003DD5D5F88430CB4003F001031AB913BBC7
:1053B0006FF0770031E0002BFAD155F821304BB96E
:1053C000184A0592022204924FF48451164804AA06
:1053D000FDF782FDD5F8843013B92A20FEF7B8FA1C
:1053E0000122D5F88430A2401343C5F88430E0B2DE
:1053F00002F0B8FA0AE0C8B202F0D0FA0122D5F8F9
:105400008430A24023EA0203C5F88430D5F8843002
:1054100013B92A20FEF7AAFA002007B030BD6FF0BA
:105420001500FAE713080100A4F5000030B50546A1
:105430000C4687B052B1104B05930223049300230E
:105440004FF484510D4804AAFDF746FD0F2C0FD8E8
:105450006B685B68E340DB070AD501230020A400EA
:10546000E4B204F1A04404F52834236007B030BD51
:105470006FF01500FAE700BF43080100A4F5000033
:1054800070B5D1F880600F2804460D46736886B069
:1054900003D81B68C340DB070AD4154B05930223CE
:1054A000049300234FF48451124804AAFDF714FD1D
:1054B000D5F88430E34013F0010309D10E4A059278
:1054C000022204924FF484510A4804AAFDF704FD15
:1054D00005EB840255F8245045B10023214630469F
:1054E000AC46126C06B0BDE87040604706B070BDB7
:1054F0005E080100A4F500007A08010008B5036801
:105500000246590913D0012906D14FF6FF7103F065
:105510001F03D940C80711D40A490B4840F22F3263
:1055200007F0BBFC40F22F31064807F0AFFC4FF00C
:10553000FF31D940C907EFD5044800E004481360A3
:1055400008BD00BF63FD000005FA0000002584507F
:1055500000288450F7B51D46436806460469D3F811
:1055600000C04FF02003EFF3118783F31288BFF3DD
:105570006F8FE368D86838B187F31188BFF36F8FF6
:105580006FF00F0003B0F0BDDA60E36899604FF48C
:105590008003CCF8043301F06043B3F1005FE368AB
:1055A00011D11961E3685A612146304608F07CFB4D
:1055B00087F31188BFF36F8FE37A012B01D16B1C46
:1055C00006D10020DEE7D861204608F0E6FAEBE7D6
:1055D0004FF4004600210A4825EAE5750023C5FB83
:1055E0000601084AFAF7B6FDE46802460B46203485
:1055F00000200021CDE90001204606F021FCE0E773
:105600003F420F0040420F00F0B54B79012B29D0EB
:10561000032B24D110278B79032B20D1CE790EB107
:10562000012E1CD10A79012A1ED0022A20D0B2B93B
:1056300014460B684568B3F5164FD5F800C06ED018
:1056400033D8B3F5165F6DD01CD8B3F5966F6BD019
:1056500010D8B3F5967F6AD0B3F5167F6AD06FF095
:1056600085005BE00027D6E74FF480740E22E0E768
:105670000024FBE7B3F5166F5FD0B3F5965FEED16C
:10568000384B3CE0B3F5E14F5AD007D8B3F5615F32
:1056900058D0B3F5964FE2D1334B30E047F61225A0
:1056A000AB42DCD14FF4000329E0B3F5613F4BD0AE
:1056B00013D8B3F5963F4AD009D84DF6C025AB4272
:1056C00047D0B3F5614FCAD14FF46B0317E0B3F580
:1056D000E13FC4D14FF0EB7311E0B3F5612F3BD044
:1056E00008D8224DAB423AD0B3F5E12FB7D14FF0F5
:1056F000E86304E01E4DAB42B1D14FF08053056921
:10570000CCF8243543683A431B6834432243C3F83A
:105710006C252B1D03C983E803000020F0BD4FF466
:105720001D03ECE7134BEAE74FF49E23E7E74FF442
:10573000A033E4E74FF41C33E1E74FF41D23DEE729
:105740000D4BDCE70D4BDAE74FF06C73D7E70C4BF2
:10575000D5E74FF46503D2E74FF07063CFE74FF022
:105760008063CCE700B0130000A04E0090D003008F
:1057700040420F000050270000C0750000F03A00C2
:1057800000903A012DE9F043074687B0002201213D
:105790000820FEF70DF90820FEF7DAF80021D7F807
:1057A00004903E69D9F800406A46C4F80015376095
:1057B000D9F80C80404608F025F8051E26DB009B32
:1057C000D8F800201979186808F02FF8051E1DDB9D
:1057D0003846311DFFF718FF0546B8B9D9F804302F
:1057E000990723D506F11C0001F0D8FB474B9842DE
:1057F00010D0474B0593022304932B466FF004050A
:105800004FF48251434804AAFDF766FB284607B0CF
:10581000BDE8F083307F04F10C0204F5907108F0CC
:1058200036FB0120337F984001F068F9F368002BC4
:1058300059D004227B68D7F810801B68C3F8042372
:105840000122D8F80C10C1F8C0203349C3F8041362
:105850000821C3F80015D3F84C11A1B15A60D3F850
:1058600044211AB9D3F82421002AF8D00022C3F821
:105870004C21D3F84C11C3F81021D3F81011C3F800
:105880004421D3F84431D8F80C0000222349803059
:1058900009F092FBD8F80C30C3F8B480D8F80C00AB
:1058A00000221F49203009F087FBD8F80C30C3F8DC
:1058B0005480D9F804309A075CBF4FF48073C4F861
:1058C0000433D9F80430DB0644BF4FF48003C4F836
:1058D00004337369C4F844350023C4F84835012300
:1058E000A360E36092E70823C4F8003599F8083014
:1058F000002BDED1C4F81031D4F81031B369C4F8EC
:1059000034350123C4F838352360D2E70000AD0BED
:10591000B0080100F4F5000010020A00DFDC00000E
:10592000AFDD00002DE9F04104460E46056909F09F
:1059300052FAB0B92A4B1B789BB16427606808F013
:10594000A3F9002838D1012008F09FFA013FF5D1D2
:105950000021212005F03CFEEFE781F31188BFF321
:105960006F8F4FF02003EFF3118183F31288BFF3A1
:105970006F8FD4F804800F46404608F085F9002860
:10598000EBD0EB685BB1DA684AB1D3F8BC20002AEF
:1059900005DAD8F80020D2F84C25C3F8BC206B6992
:1059A00001221E702046696908F014F887F31188F7
:1059B000BFF36F8FBDE8F0814FF02003EFF311814B
:1059C00083F31288BFF36F8F60680F4608F05CF9AD
:1059D0000028E4D181F31188BFF36F8FB8E700BFCF
:1059E0001A2200202DE9F047D0F804A017469AF8B3
:1059F0000820054688460469DAF8009052B1444907
:105A0000444840F2423207F048FA40F242314048FE
:105A100007F03CFAE26892F8CA10002974D192F8B3
:105A2000CB10002970D1B3F5E87F5367CABF0522B8
:105A30005C2393FBF2F3E2689367E368C3F8588052
:105A4000E368DF650023E2681366E2685366E26894
:105A50009366DAF80430DA0623D5E16891F8C96074
:105A6000FEB1BE4228BF3E4640463246C43109F030
:105A700057FBBF1BB04414D1E268314692F8C930DD
:105A800028469B1B82F8C93007F0D3FFE1682846FF
:105A9000583107F0E7FF284607F0FCFF0020BDE87B
:105AA000F0870023C9F83485C9F83875C9F8103172
:105AB000D9F810210122C9F84C31D9F84C31E368EA
:105AC00083F8CA20DAF80430DB0619D54FF020033A
:105AD000EFF3118183F31288BFF36F8F2B69DB68BB
:105AE0002BB1D3F8C02042F00202C3F8C020082234
:105AF0006B681B68C3F8002581F31188BFF36F8FB3
:105B00000123C9F80030C9E76FF00F00C7E700BFF5
:105B1000CF08010005FA00002DE9F0414368044672
:105B20001D6888B0D5F80811036969B10022C5F86D
:105B30000821D5F80821DA68D2F8B8300133C2F864
:105B4000B83008B0BDE8F081D5F8243123B3C5F8EA
:105B50002411D5F82431436814221B6803A8D3F814
:105B60008064C3F8806409F002FB0623F2078DF815
:105B70000C3000F10C81B30700F10B81770700F1C5
:105B80000A8106F00806204603A98DF8106007F088
:105B900049FF204607F0DCFFD5F81031002B33D049
:105BA000D5F80433D8062FD54FF000080122C5F8E8
:105BB00010812669D5F8103163681F68F36883F88F
:105BC000CE20F068803009F003FAF268D7F83C156F
:105BD00092F8C93082F8C980F268106E1B1A0B4423
:105BE000106F23EAE37108444345106702DD204645
:105BF00007F01FFFF16891F8CA3003F0FF02002B95
:105C000040F0CB8081F8CE20D5F84C3183B3D5F865
:105C100010616EBB1422C5F84C61314603A8D5F85B
:105C20004C31276909F0A3FA032303A920468DF814
:105C30000C3007F0F7FEFB685A6F511C18D0DA677A
:105C4000FF688F49B86F8E4620EAE07C31464FF4FA
:105C50000040CCFB00E1002370468A4AFAF77AFA4A
:105C600002460B46CDE9000107F1800006F0E8F896
:105C7000D5F8443163B3D5F810614EBBC5F8446123
:105C800027692046F968D5F844315831D4F80480A2
:105C900007F0E8FEF9682046643107F0E3FEFB6890
:105CA00083F8CA60FB6893F8CB2032B183F8CB60ED
:105CB00032463146606807F088FFD8F80430D806CD
:105CC00003D50221204607F0B5FF204607F0E2FE8B
:105CD000D5F82031DBB1D5F80433D90517D5636881
:105CE0001B684FF02001EFF3118281F31288BFF39C
:105CF0006F8FD3F8201131B10021C3F82011D3F8F0
:105D000020110121D96082F31188BFF36F8FD5F87C
:105D10005831002B3FF415AFD5F804335A027FF504
:105D200010AF63682569D3E90073DB0666D4EB68BE
:105D30009B68002B3FF405AF4FF02003EFF3118277
:105D400083F31288BFF36F8FEB68D3F8BC10002980
:105D5000ACBFD3F8BC60D7F84C6582F31188BFF3B1
:105D60006F8FEB6893F8CD20002A54D04FF02003BA
:105D7000EFF3118683F31288BFF36F8F2946204615
:105D800007F092FF86F31188BFF36F8FD9E60126E3
:105D9000F9E60226F7E60426F5E62046583107F034
:105DA00061FE4FF02003EFF3118183F31288BFF3FC
:105DB0006F8FF3685A6EF2B19A65F3689A6EDA657E
:105DC0000023F2685366F2689366F2681366D7F8A8
:105DD0004C310BB901233B60D7F8003223F020038C
:105DE000C7F8003281F31188BFF36F8F0022F36888
:105DF00083F8CE2008E701237B60F3E74FF48003AC
:105E00000121C7F80833204607F014FFEB68DB6870
:105E1000002B8CD195E699681A6991420CD059698A
:105E2000DA69B142324428D12846DA6107F0B5FE7A
:105E300000289BD1EB68DE69E868203009F0C8F8DB
:105E40001422002103A809F092F9EB6820469A6811
:105E500003A9CDE90426DB689E421CBF01238DF80F
:105E60000C304FF48003C7F808330023EA689360CE
:105E7000EA68D36007F0D6FD63E61646DCE700BFAC
:105E80003F420F0040420F000123834070B5DC43C6
:105E90000B4AD2E8EF1F01EA0405C2E8E65F002ED4
:105EA000F7D14FF4803282400648C0F80823BFF390
:105EB0005F8FBFF36F8F0B4214BF0120002070BDB6
:105EC0004C1800200050015070B40E4922F07F465B
:105ED000D1E90034D01AC31844F10004C1E90034F8
:105EE000A6F50013B3F5400F09D2074B1B681A0A39
:105EF0001B069C19054B42F10005C3E9004570BC27
:105F000005F020BE980D002050180020A00D0020A4
:105F1000D9B101230D4A8340D2E8EFCF4CEA030CFC
:105F2000C2E8E1CF0029F7D14FF48033084A83401B
:105F3000C2F80433074BD3E8AF3FC340DB0742BF8F
:105F40004FF40012044BC3F8002170474C18002096
:105F5000005001504418002000E100E0012808B57D
:105F600008D906490648862206F097FF862103488D
:105F700006F08CFF83000348184408BD1D0901008A
:105F800005FA000040510150012808B508D9074919
:105F900007488D2206F081FF8D21044806F076FF28
:105FA0000028044808BF002008BD00BF1D090100EB
:105FB00005FA000044500150012808B508D90749E6
:105FC0000748C32206F069FFC321044806F05EFFBC
:105FD000044B00F5A87053F8200008BD1D0901000E
:105FE00005FA0000005001500D4B1868010A000628
:105FF000BFF35F8F0B4BD3F80435181841F1000144
:10600000B3F5801F0AD2084BD3E90023904271EB0D
:10601000030303D210F1807041F10001704700BF0B
:106020005018002000500150A00D00202DE9F04F25
:1060300085B016461F4604469DF840A0FFF724FF92
:106040000190FFF7D1FFB04271EB070352D23B4BF7
:10605000301A67EB0101984271F100014DD2384BC3
:1060600003EB0413D3E902239F4208BF964258D0A2
:106070004FF48038334908FA04F8204626F07F4B65
:10608000C1F8488307F097FE4FF00309584604F122
:106090005005AD00ADB205F1502504F5A87305F526
:1060A00080350293029A20F07F4341F82230C1F8F4
:1060B0004483D1F80435244AC01A033820F07F40C5
:1060C00090422ED9286868B1D1F80435A3EB0B00B3
:1060D00020F07F40B0F5000F039322D9204607F04F
:1060E0006AFE039BBAF1000F07D109EB030009F127
:1060F0000109D7E7BAF1000F09D06FF01505204666
:106100000199FFF705FF284605B0BDE8F08F012390
:106110000E4AA340D2E8EF0F1843C2E8E10F00296E
:10612000F8D107490E982301C8500F9B01EB0412C8
:106130000025C2E902675360E1E700BF010080006B
:10614000780D002000500150FDFF7F004418002012
:1061500001281FB50AD00B490B4840F28D1206F0FA
:106160009CFE40F28D11074806F090FE002102913E
:106170000799019106990091FFF758FF05B05DF866
:1061800004FB00BF1D09010005FA00007FB50025D2
:106190004FF0FF304FF0FF314FF480321C4C1D4B5D
:1061A0000226C4F80833C4F848331B4BC4F808551A
:1061B000C3E90201C4F80423C3E906014FF4003324
:1061C0004FF40012C4F80433144B0121C4F80463E3
:1061D0001520C3F880212A46FDF7EAFB1520FDF7BC
:1061E000B7FB01230322A36023600D4B28461A60EE
:1061F0000C4B0D4A1E600D4BCDE901550093002359
:10620000FFF714FF3046FEF70BFE284604B070BDC2
:106210000050015003000F00780D002000E100E065
:106220004C18002048180020FFFF7F00C95E0000C6
:106230002DE9F04F394B85B0D3F8042392070BD5E5
:10624000D3F8042142B10022C3F80421344AD3F820
:106250000431136801331360324D0024A8464FF413
:1062600080362E4FD7F8043306FA04F919EA030FE3
:106270002ED00123A340DB432B49D1E8EF2F02EAC4
:106280000300C1E8EC0FBCF1000FF6D122FA04F3D1
:10629000DB0703D4254B53F82430CBB1204607F05D
:1062A0008AFDFFF7A1FE4FF02002EFF3118382F386
:1062B0001288BFF36F8F08EB041CDCE902AB50457A
:1062C00071EB0B0102930AD283F31188BFF36F8F36
:1062D000103514B105B0BDE8F08F0124C2E70020ED
:1062E000D5E900134FF0FF3203934FF0FF332860DE
:1062F0000A48CCE90223C0F84893204607F05BFD2A
:10630000029B83F31188BFF36F8F0029E0D0039BBA
:10631000524600935B468847DAE700BF00500150C1
:1063200050180020780D00204418002040510150E2
:1063300070B501240C4B186890B1B0FA80F0C0F130
:106340001F0004FA00F1C943D3E8EF2F02EA010568
:10635000C3E8E65F002EF7D1C240D207EBD570BD8F
:106360006FF00B00FBE700BF48180020012808B5BC
:106370000AD00A490A4840F2572206F08EFD40F240
:106380005721064806F082FD064BD3E8EF1F41F087
:106390000201C3E8E21F002AF7D108BD1D09010070
:1063A00005FA0000481800201FB5431C22D0012820
:1063B00022DD124A124B9042D4BF04461C46FFF71E
:1063C00013FE104B0E49D3E90023801AB0F5000FDD
:1063D00028BF002404448C4228BF0C4600200A49F0
:1063E000A218CDE90100009143F10003FFF71EFE62
:1063F00004B010BD024CE2E70124E0E7FEFF7F009D
:10640000FFFF7F00980D0020C95E000008B5FFF770
:10641000EBFD024B1B68C01A08BD00BF980D0020A1
:10642000012310B5074C15206360FDF79FFA4FF468
:106430000012054BC4F80833C4F84833034BC3F8C3
:10644000802110BD0050015003000F0000E100E06A
:106450007FB5FCF7FFFB074B059302230493064827
:1064600000234FF4825104AAFCF736FD0020FDF70B
:1064700047FF00BF4E09010084F5000037B5074D06
:10648000074C4FF0FF3269464FF0FF33284603F0C8
:10649000CFFBDDE9000123689847F2E76818002088
:1064A000A41800202DE9F04788B040B922492348BC
:1064B0003F2206F0F2FC3F211F4806F0E7FC204B8C
:1064C000186008221F48114608F0D2FC00282FDB74
:1064D0004FF07F421C4BD3E8EF1FC3E8E02F0028AA
:1064E000F9D10024022308221849194808F080FC39
:1064F0004FF000084FF000092546164F164EDFF802
:106500005CA0022331463846CDE902534FF4806245
:106510005346CDE90689CDE900550495013403F0D1
:10652000F7F9032C07F1900706F58066E9D1002002
:1065300008B0BDE8F08700BF6B09010005FA000054
:10654000A418002058180020541800209418002087
:1065500068180020A80D0020203E00207D64000067
:1065600007B5CDE900014FF0FF324FF0FF33694628
:10657000024803F0C9FA03B05DF804FB6818002074
:1065800070B50F4C4FF0FF324FF0FF330D4803F062
:106590003BFE4FF000452146D4E8AF3FB3FA83F00D
:1065A00025FA00F223EA0202D1E8EF6F9E4204D1FD
:1065B000C1E8EC2FBCF1000FF6D1EDD170BD00BFEA
:1065C0005418002058180020072808B508D90C498D
:1065D0000C488A2206F061FC8A21094806F056FC24
:1065E0004FF00043084AC340D2E8EF0F1843C2E817
:1065F000E10F0029F8D1BDE80840044803F0BEBD12
:106600006B09010005FA00005418002058180020FA
:1066100070B50D4614460146536840B90C495222E4
:106620000C4806F03AFC5221094806F02FFC5E6B3C
:1066300036B907495322074806F02FFC5321F3E7E8
:106640002A462046B446BDE870409B6B604700BFB9
:10665000A209010005FA000010B543680C4693F842
:106660003C3086B09BB90D4B059302234FF4825109
:106670000B4804AA049307F0EBFB404080F3118819
:106680004FF0030002DF0020206006B010BD086854
:1066900008F0E7FC0028F8D1024BE5E7CF0901003C
:1066A000CCF50000F409010098B56C4600AF88B045
:1066B0006A460C4B4FF4E251C2E905304FF40073C7
:1066C0009383094B094842F8103F07F0C1FBA546E8
:1066D000074C084821465D2206F0DFFB5D2120467D
:1066E00006F0D4FB120A010003000001CCF5000003
:1066F000A209010005FA00007FB5064B4FF4825154
:1067000005930223044804AA049307F0A1FB07B0F1
:106710005DF804FBCF090100CCF50000F0B587B0AF
:1067200040680D4690F83C3000AF7BB9164B1748D7
:106730007B6102234FF4825107F110023B6107F0A5
:1067400087FB6FF00D001C37BD46F0BD1C30FBF71A
:1067500089FD041E15DA6E4688B06A460C4B4FF46C
:10676000C251C2E905340323084842F8103F07F03C
:106770006FFBB546284608F06DFC204607F03AFB53
:10678000E1E70024F6E700BFCF090100CCF50000E7
:10679000270A01002DE9F04389B04468064694F8C1
:1067A0003C308846914602AF23B100201C37BD46DD
:1067B000BDE8F08369B9314B31487B6102234FF466
:1067C00082513B6107F1100207F042FB6FF01500A8
:1067D000ECE72068FBF7E6FC0546A8B110F1780F5E
:1067E00012D06C4688B002AA264BC2E905350323B5
:1067F0004FF4C251224842F8103F07F029FB2846C7
:10680000A54607F0F7FAD1E71F4BC4E90D89E3600D
:106810001E4B251D23611E4BC4E9053604F12406D9
:10682000304608F00AFC2A46206804F11C01FBF7F8
:10683000E7FC054620B16C4688B002AA154BD4E7A8
:10684000012184F83C1040F6CD420023CDE900231D
:106850000246304608F0FBFB0028A6D184F83C0035
:106860000D4B07487B6102234FF482513B6107F1D6
:10687000100207F0EDFA6FF01F0097E7490A0100D8
:10688000CCF50000670A010069DE00001166000017
:10689000A9660000970A0100BB0A01004FF47F03BC
:1068A000D3F83021D3F83431072A05D1023B032B2A
:1068B00002D8024AD05C704700207047E90A010004
:1068C00008B5FFF7EBFF58B1644BD3F8202A3AB96B
:1068D0000D21C3F8201A0121C3F81C19C3F81C2983
:1068E0000022D30003F57F03D3F80013013107D052
:1068F000D3F800130132D3F80433202A0B60F0D10F
:10690000FFF7CCFF002840F0A080FFF7C7FF40B1A1
:10691000534B544AC3F830254FF050230122C3F89B
:1069200058254FF47F03D3F83021D3F83431072AA8
:1069300009D1023B032B06D84B4AD35C1BB1002282
:106940004A4BC3F84C25FFF7A9FF50B14FF0502335
:10695000D3F80024D10742BF0022C3F81421C3F8A2
:1069600018214FF47F03D3F83021D3F83431072AAC
:1069700009D14FF05023D3F80024D20744BF6FF061
:106980000102C3F80024FFF789FF18B16522334BD9
:10699000C3F80C274FF47F03D3F83021D3F83431F8
:1069A000072A16D1314BD3F82034002B11DA4FF0DF
:1069B00050230322C3F8182501229A60D3F804213A
:1069C000002AFBD00022C3F804210122DA60C3F8B8
:1069D00018254FF47F03D3F83021D3F83431072A38
:1069E00023D1023B032B02D8214AD35CEBB17E2298
:1069F0001A4B1B49C3F80C27C3F83C297F231D4AB7
:106A0000C2F818310023C1F8043EC1F8083E01F570
:106A10004821C1F81031C2F82431C2F82C3102F5F6
:106A2000FF1202F58052C2F8A032134AD2F88C301D
:106A300043F44063C2F88C30104A114B1168C3F81C
:106A40004415D269C3F84C2508BD2922034BC3F86D
:106A50000C270322C3F83C2757E700BF0040005033
:106A6000009003504400EFBEE50A010000200350EF
:106A7000E10A01000020005000ED00E00080FF006E
:106A80000060005030B50468ACB1B4FA84F3012260
:106A9000C3F11F03DBB29A4024EA0202D0E8EF5FA1
:106AA000A54204D1C0E8EC2FBCF1000FF6D1EAD129
:106AB00002480B7030BD0248FCE700BF0000AD0B80
:106AC0000200AD0B10B50368CB40DB0710D40123E7
:106AD0008B40026843EA0201D0E8EF4F944204D1B0
:106AE000C0E8EC1FBCF1000FF6D1F2D1014810BD97
:106AF0000148FCE70000AD0B0400AD0B014BC3F8EF
:106B00000405704700700150014BC3F80805704739
:106B10000070015008B541B906490748442206F003
:106B2000BCF94421034806F0B1F940F00040C1F837
:106B3000800008BD200B010005FA000008B541B92E
:106B4000064907484A2206F0A8F94A21034806F0F8
:106B50009DF940F00040C1F8800008BD200B010005
:106B600005FA000008B541B9064907485C2206F05D
:106B700094F95C21034806F089F90023C1F88030BC
:106B800008BD00BF200B010005FA000008B541B99F
:106B900006490748632206F080F96321034806F09E
:106BA00075F90023C1F8803008BD00BF200B01003B
:106BB00005FA00004FF05023002273B5032837D8A0
:106BC000DFE800F0020D202B0221C3F80813C3F800
:106BD0000421D3F804210122DA60002409E0012114
:106BE000C3F80813C3F80021D3F800210DF10704FE
:106BF000596001238DF80730032876D8DFE800F0CC
:106C0000213B536B4FF40071C3F80813C3F82421E0
:106C1000D3F8242101225A62DFE74FF48071C3F8D0
:106C20000813C3F82021D3F820210122DA61D4E728
:106C30003F494048D82206F030F9D8213C4806F0B8
:106C400025F942F210754FF05026D6F8183403F4A7
:106C50008033002C5BD0D6F8182402F00302227097
:106C6000002B40D09DF8070001283CD107F00DF91A
:106C7000013DEAD137E042F210754FF05026D6F8C8
:106C80000C3403F48033D4B3D6F80C2402F00102A0
:106C9000227043B39DF80700012824D107F0F5F8CE
:106CA000013DECD11FE042F210754FF05026D6F8AE
:106CB0005C3403F4803334B3D6F85C2402F0010270
:106CC000227083B19DF8070001280CD107F0DDF890
:106CD000013DECD107E042F210754FF05026D6F896
:106CE0005434DB0317D402B070BD1349114840F28D
:106CF000CB3206F0D2F840F2CB310F489FE7002BA1
:106D0000F1D00120CAE7002BEDD00120DEE7002BF7
:106D1000E9D00120AAE72CB9012007F0B6F8013D1F
:106D2000DDD1E0E79DF807000128F6D0DBE700BFE2
:106D30005D0B010005FA00009A0B010008B550B97F
:106D40000A490B4840F2151206F0A7F840F2151157
:106D5000064806F09BF8074B1A7922B90122186001
:106D600005481A7108BD0548FCE700BF5D0B01002E
:106D700005FA0000A81800200000AD0B0C00AD0BB8
:106D800008B50F4B1B7953B90E490F484FF4977252
:106D900006F083F84FF497710A4806F077F805205B
:106DA000FCF7F8FD10B90520FCF7D2FD4FF0502399
:106DB0000122C3F81825C3F81425C3F8802508BD9F
:106DC000A81800205D0B010005FA000008B5374B3C
:106DD0001B7953B936494FF4B472364806F05DF862
:106DE0004FF4B471324806F051F84FF050230328A5
:106DF00053D8DFE800F002303A46D3F81814D3F83D
:106E00001824C90318D502F00303022B05D0012B67
:106E100002D00020FFF7CEFE01234FF05022C2F82F
:106E200018350023C2F80431D2F804310223C2F825
:106E30000433012393600DE0D3F81424D207EBD57B
:106E4000D3F81C2402F00302013A012AE1D80222FD
:106E5000C3F8042308BD0022C3F80021D3F80021A1
:106E60000122C3F804231A60F4E70022C3F82421A6
:106E7000D3F824214FF40072C3F8042301221A62CC
:106E8000E8E70022C3F82021D3F820214FF48072D4
:106E9000C3F8042301229A61DCE705494FF4D37259
:106EA000044805F0FAFF4FF4D3719BE7A8180020BF
:106EB0005D0B010005FA000008B5094B1B7953B9B9
:106EC0000849094840F2AD1205F0E7FF40F2AD1164
:106ED000044805F0DBFFBDE80840FFF76BBE00BFCC
:106EE000A81800205D0B010005FA00004FF05023A8
:106EF00010B5D3F8002152B10020C3F80001D3F837
:106F000000210122C3F80823234B1B6898474FF048
:106F10005023D3F8042182B10022C3F80421D3F80E
:106F20000421D3F81824D3F81824022102F0030214
:106F3000012A28D1C3F818159A604FF05023D3F8CE
:106F4000202162B10022C3F82021D3F820214FF480
:106F50008072C3F80823104B05201B6898474FF038
:106F60005023D3F82421AAB10022C3F82421D3F856
:106F700024214FF40072C3F80823074B0620BDE814
:106F800010401B681847C3F80813034B01201B6807
:106F90009847D2E710BD00BFA8180020014601485D
:106FA000FFF770BDA40100200123044A834001467D
:106FB000C2F808350248FFF785BD00BF00700150D8
:106FC000A4010020034A4309D35C00F01F001844C9
:106FD000C0B27047560C010008B5FFF7F3FF034B32
:106FE000083033F8100000F0010008BDA8010020AF
:106FF00008B5FFF7E7FF034B083033F81000C0F384
:10700000401008BDA801002008B5FFF7DBFF044BC6
:10701000083033F8100010F01C0018BF012008BD24
:10702000A801002008B5FFF7CDFF034B083033F867
:107030001000C0F3400008BDA801002008B5FFF70C
:10704000C1FF034B083033F81000400B08BD00BFF0
:10705000A801002070B50546FFF7B4FF0C4C0830BE
:1070600034F810300E46DA0508D5C3F3432304EB99
:10707000C302284654F8333052689847A3682BB1AE
:1070800031462846E268BDE87040184770BD00BF31
:10709000A801002010B5FFF795FF184A083032F814
:1070A0001030D9051DD5C3F3432123F4F85322F83A
:1070B0001030002002F10E0434F8023F13F4807FF8
:1070C00003D0C3F3432399420BD001303028F3D1CE
:1070D00000230B4842F83130FFF7F4FC094B98428B
:1070E00000D110BD0849094840F25F1205F0D5FEF5
:1070F00040F25F11044805F0C9FE00BFA80100205E
:107100001C0200200000AD0BE30B010005FA00009B
:1071100008B502680146104606F0C6FE50B90F4990
:1071200040F22F320E4805F0B8FE40F22F310B48E6
:1071300005F0ACFE02F01F0352090B600AD0012AD1
:107140000AD006494FF44E72054805F0A6FE4FF4EA
:107150004E71ECE7034808BD0348FCE763FD0000FF
:1071600005FA00000025845000288450072808B53F
:107170000AD90749074840F2AA2205F08EFE40F2DC
:10718000AA21034805F082FE800000F5807008BD4A
:10719000210C010005FA00002DE9F041002406460B
:1071A00025460127A046E0B2FFF7E0FFA0F5807278
:1071B000920807FA02F2164209D000F1A04303F543
:1071C0005043196819B1C3F800801B681543013496
:1071D000082CE8D1064BD3F87C2132B10022C3F849
:1071E0007C21D3F87C3145F000452846BDE8F0818C
:1071F00000D000502DE9FF41054690461E46FFF79E
:10720000E1FE0F460446E1B1284606F05FFE20BBD2
:107210003B46CDE900008DF80E008DF80F000DF112
:107220000F020DF10E01284606F05BFE474A04F1FD
:10723000080132F8113023F0020343F0010322F871
:107240001130B8F1000F32D0284698F80070D8F805
:107250000410FFF7E7FE10B1F1B13D4829E03B48CB
:1072600004F1080C30F81C3023F02003DB04DB0CA5
:1072700020F81C3081B1032FEFD8D8F8042092F801
:1072800000E07246920002F1A04202F550429FB91E
:10729000C2F81075C2F810752C4A04F1080132F8D2
:1072A000113023F01C0343EA870322F811301EBB80
:1072B000284804B0BDE8F081D2F8101543EA4E33F7
:1072C00021F00301C2F81015D2F8101543F0200385
:1072D00021F44F3121F44071C2F81015D2F8108515
:1072E000290201F47C5141EA080141EA0741C2F850
:1072F000101520F81C30CFE72846D6E90076FFF7B6
:10730000C9FE002FD4D0114DD5E90023974201D1F9
:107310009E4218D010480DF10F01FFF7B3FB0D4B43
:107320009842C6D19DF80F2005EBC20308345E6079
:1073300035F8143045F8327043EA422343F4807341
:1073400025F81430B4E70022EEE700BFA8010020C2
:107350000400AD0B0000AD0B1C020020F0B585B0A1
:1073600004461646FFF72EFE054629B32046FFF7D2
:1073700059FE20B92046FFF73BFE002861D1204688
:10738000FFF742FE10B14B78012B5AD001238DF844
:107390000F3000234A1CCDE9001320468B1C0DF151
:1073A0000F0106F09EFD284A05F1080132F8113060
:1073B00043F0030322F8113016B9244805B0F0BD9C
:1073C0002046FFF72FFE00283BD096F800C0002390
:1073D00061461D4F05F1080037F81050890025F06F
:1073E000200501F1A041ED0401F55041ED0CC1F87B
:1073F000103527F81050C1F810357278002ADCD00B
:10740000D1F81035B67823F4991323F4F853C1F862
:10741000103512042302D1F810E502F4403203F4CF
:107420007C531343320543EA0E0302F4801245EA0B
:107430004C35134345F02005C1F8103527F810509E
:10744000BBE70348BAE700BFA80100200000AD0B6E
:107450000400AD0B014BC3E902017047A8010020F5
:1074600010B5044651B90D490D4840F2652205F0AA
:1074700014FD40F26521094805F008FDFFF7B8FD4D
:1074800050B12046FFF79EFD064B083033F8103010
:1074900005485B0B0B7010BD0448FCE7E30B0100D3
:1074A00005FA0000A80100200000AD0B0400AD0BA0
:1074B00070B5194D95F8784064BB6022214605F1FE
:1074C000100007F054FE2646E0B2FFF74FFEA0F58D
:1074D00080739B081F2B02BF00F1A04000F55040B5
:1074E000066004F1010408BF0368082CECD10023F6
:1074F0000A4C0D20C4F87C31D4F87C31FCF728FA12
:107500004FF00043C4F804330123054885F8783070
:107510006B6770BD0348FCE7A801002000D0005055
:107520000000AD0B0500AD0B034B93F8780000385D
:1075300018BF0120704700BFA80100200146014884
:10754000FFF7C0BA1802002001460148FFF79ABAB7
:107550001802002073B504460D46FFF755FD50B9DB
:107560002F494FF459722F4805F097FC4FF4597189
:107570002B4805F08BFC2046FFF73AFD20B3204650
:10758000FFF750FD0646F8B92046FFF757FD0446C1
:10759000FFF7ECFD00F1A04303F550431E601B68AC
:1075A00023B29B0003F1A04303F55043D3F8102509
:1075B00042F00102C3F8102525B101231A4AA34065
:1075C000C2F8043302B070BD45B9154940F27332B8
:1075D000144805F062FC40F27331C9E72046FFF71A
:1075E000F1FC124B083033F81030C3F38203042B44
:1075F00011D0052B11D001A80194FFF789FD019B43
:107600000169D94001F001010231204602B0BDE814
:10761000704006F0B3BC0321F7E70221F5E700BF95
:10762000E30B010005FA000000D00050A801002083
:1076300010B50446FFF7DCFCC0B12046FFF7F2FCB2
:10764000A0B92046FFF7FAFC01230B4A8340C2F899
:10765000083303B29B0003F1A04303F55043D3F872
:10766000102522F00302C3F8102510BD2046BDE806
:107670001040002106F082BC00D0005013B5044633
:10768000FFF7AAFC88B32046FFF7D2FF2046FFF79A
:10769000AFFC68B12046FFF7D1FC002203B29B008B
:1076A00003F1A04303F55043C3F81025C3F8102598
:1076B0002046FFF7EFFC2046FFF784FC00220C4B2E
:1076C000083023F8102001A80194FFF721FD019B49
:1076D00000EB8300D0F80022064B134043F0020376
:1076E000C0F80032044802B010BD0448FBE700BFF8
:1076F000A8010020F0F0FCFF0000AD0B0400AD0B72
:107700002DE9F04F614B87B0D3F80403C0B240F0CD
:107710000040FFF741FD051E80F29A80DFF870916E
:10772000D9F820300493C9F820305A4B1A6A0592D0
:107730001A624FF0000A0DF11008574B0AEB030BC9
:107740004DE091FAA1F1B1FA81F19BF8004041EAD4
:1077500044142046FFF736FC504B083033F81070C5
:107760000123C80801F0070103FA01F118F80030FD
:10777000BA0823EA010308F8003003A80192039431
:10778000FFF7C6FC039B019A803350F82330C7F300
:10779000820652073746C3F301432CD539462046AB
:1077A000DEB2FFF757FC03A80394FFF7B1FC039B7D
:1077B000803350F82330C3F301439E4207D10021A8
:1077C000204606F0DBFB3146204606F0D7FB03A837
:1077D0000394FFF79DFC0123039A93400362D8F8BA
:1077E00000100029ADD108F10408BAF1000F1DD135
:1077F0004FF0010AA1E7022B0CD10321204606F02D
:10780000BDFB06F00503012BE1D139462046FFF709
:1078100021FCDCE702212046019306F0AFFB032E9A
:10782000F3D0019B032BD2D1022EEDE74FF00040A5
:10783000FFF7B2FCD9F8203016490493C9F820307C
:107840000A6A134305920A627FF473AF25F000457C
:10785000012415B907B0BDE8F08F95FAA5F3B3FA86
:1078600083F304FA03F29B0003F1A04303F55043B2
:10787000D3F81005D3F81015C0F30520C1F301416A
:1078800025EA0205FFF7E6FBE3E700BF00D0005062
:107890000025845000288450660C0100A8010020B7
:1078A00070B516460D4641B90B490C48342205F017
:1078B000F4FA3421084805F0E9FA094C237943B970
:1078C0002A20FCF745F80123064823712560A660AD
:1078D00070BD0548FCE700BF740C010005FA00000C
:1078E000B01800200000AD0B0C00AD0B38B540B94E
:1078F00018494622184805F0D0FA4621154805F0E7
:10790000C5FA164B1B79012B06D0124947221248A3
:1079100005F0C3FA4721F1E70023114A50F823404C
:1079200003F5A2710133102B42F82140F6D1002358
:107930000B4A00F13C0103F5B27451F8045F0133C6
:10794000102B42F82450F6D1D0F88030C2F804331E
:1079500038BD00BF740C010005FA0000B01800200B
:1079600000A0025008B5094B1B79012B08D008492B
:1079700008486C2205F091FA6C21054805F086FA5A
:10798000054A8340C2F8043308BD00BFB018002088
:10799000740C010005FA000000A0025008B5094B64
:1079A0001B79012B08D008490848722205F075FAA6
:1079B0007221054805F06AFA054A8340C2F8083387
:1079C00008BD00BFB0180020740C010005FA0000CB
:1079D00000A00250F8B501260027124B124DD3F833
:1079E0000C4304B9F8BD94FAA4F0B0FA80F006FA9A
:1079F00000F30F2824EA03040ADD0C490C4840F286
:107A0000E71205F04AFA40F2E711084805F03EFA9D
:107A1000084B82009F502B68002BE2D0A968984742
:107A2000DFE700BF00A00250B0180020A2FD000058
:107A300005FA000000A102502DE9F0410E4617465C
:107A40000C4D55F8184FAC4203D16FF01200BDE851
:107A5000F081314654F8440CA4F14408F8F7E2FCF4
:107A600030B9C7F800804046BDE8F04106F083BB5E
:107A70002468E8E7BC18002010B5D0E909124A6074
:107A8000416A00F124031160C0E9093343680446E8
:107A900003B19847054B1A78062A05D95B681BB1D4
:107AA0000720226802499847002010BDBC1800201A
:107AB000AF0C01002DE9F04107460D460B4E56F87C
:107AC000084FB44202D16FF001000AE0394654F881
:107AD000240CA4F12408F8F7A5FC20B91DB1C5F8C1
:107AE0000080BDE8F0812468EBE700BFBC180020EF
:107AF00010B5044600B30068F0B10378E3B100218B
:107B0000FFF7D8FFD8B104F11C03C4E907330D4BCC
:107B100004F12402D96803F10800DA60A16260620E
:107B20000A601A78062A05D95B681BB1072022680B
:107B300005499847002010BD6FF01500FBE76FF076
:107B40001000F8E7BC180020B10C0100014610B588
:107B500008B1406840B907490748512205F09DF92E
:107B60005121044805F092F9C36813B1BDE81040F3
:107B7000184710BDC40C010005FA000010B50368D9
:107B800093B11B7883B18368012B0DD8084B00F1AA
:107B900044014360074BDA6903F1180482644464CA
:107BA0000020D961116010BD6FF01500FBE700BF28
:107BB00024020020BC1800200E4B10B504462022E1
:107BC0000021184607F0D3FA226842600246217964
:107BD00002F8081BC0E9022200F11002C0E90422E9
:107BE00000F11802C0E906222046BDE8104000F06E
:107BF0000FB800BFBC18002008B500F011F8BDE8B0
:107C0000084020220021014807F0B1BABC1800202A
:107C100008B50248FFF76CFF002008BD24020020D1
:107C20000148FFF729BF00BF240200200EB4431E05
:107C3000062B33B588BF0020094B05AC54F8045B14
:107C400053F82010074804F0DDFE21462846019431
:107C500004F0D6FE02B0BDE8304003B0704700BF6C
:107C6000E0F80000891001002DE9F04F87B01746B9
:107C70009B460446DDF840A000284BD0056A35B18C
:107C80002D6825B1AC4607B0BDE8F04F6047A36A48
:107C90009F4242D80026BE4203D1002007B0BDE873
:107CA000F08F182303FB06F8D4F82C90A26909EB97
:107CB00008052B1D0593CAB9686969680368B5F89A
:107CC0000CC0C91AAB680CF1030E5D1E05EB0C1558
:107CD0005B4205EB4E051D4005EBCC038568063382
:107CE000A94228BF4FF0FF3106F012FA59F80830C8
:107CF00020460293236AB1B29B6A01935AF8263058
:107D000000935BF82620059B06F07AFA0028C5D17F
:107D10000136C0E76FF01500C0E70148BEE700BFBD
:107D200040F4FFFF10B5044690B1828C43899A421B
:107D300009D0084B1A78032A05D95B681BB1426841
:107D40000549042098472046BDE8104007F082B955
:107D500010BD00BFBC180020930D010030B5448950
:107D60008C4212D9036A013C5D882C4003EBC403AA
:107D700059609A60BFF35B8F026A53880133538066
:107D8000C38C0133C384002030BD0148FCE700BF31
:107D900041F4FFFF70B4039E144658B1006A48B125
:107DA00043B1013406D0002E04DB046F14B1A446A5
:107DB00070BC6047014870BC704700BF2DF8FFFFE2
:107DC00070B4039E144660B1006A50B14BB10134E7
:107DD00007D0002E05DBD0F8804014B1A44670BC5B
:107DE0006047014870BC70472DF8FFFF70B50C4626
:107DF000114605461E460C4B2022002908BF194695
:107E0000204607F055F9049B6662A362059B256234
:107E1000E362069B23636A6804F13403C4E90D52EC
:107E20006B60A26B136070BDB40D01002DE9FF47BC
:107E3000DDF834900D4692461F46064600286CD069
:107E400000296AD0B9F1000F67D001F15808404607
:107E500006F03FFB781C40D1AC6C05F1480314F0F0
:107E600001040BD000240134802C54D0620953F853
:107E7000222004F01F01CA40D107F4D40121600977
:107E800053F8202004F5806704F01F04A1400A4342
:107E900043F820200E9B5246CDE901930C9B3146BE
:107EA000009328463B46FFF7A1FF404602F066F9E3
:107EB000347874B195F888405CB1B36A01332ED13F
:107EC0000021304606F034FB044610B1304606F07F
:107ED00006FB204604B0BDE8F087B7F5806FD9D324
:107EE000A7F580637F2B05F148010FD8580951F899
:107EF000204003F01F0324FA03F2D2070BD401221F
:107F000002FA03F3234341F82030C3E7054C40460F
:107F100002F034F9DDE7044CF9E7024CD9E700241C
:107F2000D7E700BF2DF8FFFF29F8FFFF2DE9F0414B
:107F3000A3F1100853F8087C002388B00693ADF82D
:107F40001E301023CDE904120E9D0446D0F8A40083
:107F5000ADF81C5001688668A8EB0101B14228BF4A
:107F60004FF0FF310DEB030206F098F81028BFB276
:107F70000AD0234940F2AF12224804F08EFF40F2AB
:107F8000AF111F4804F082FF04F15806304606F096
:107F90005CFBD4F898309B69CBB9D4F88C20D4F82A
:107FA0009830D4F8A0009B69C3B9CDE90282CDF81E
:107FB0000080012202A906F050F9A8B110494FF43F
:107FC000DE72104804F069FF4FF4DE71D9E73946DC
:107FD000D4F8A00006F0D7F90246E0E7012B03D160
:107FE0003946FFF7BBFEE8E7D4F8A00006F022FA16
:107FF000304606F028FB284608B0BDE8F08100BFF7
:10800000B50D010005FA00002DE9FF4103685F6A24
:1080100007F15806304606F018FB38460DF10A0203
:1080200003A906F085FB0446304606F00CFB002C45
:108030004ED0BDF80A303046A36006F006FB4FF084
:10804000FF3300213846626806F0A4FA0546304640
:1080500006F0F9FAE5B1AB6AE96B013308BF2368B2
:10806000284608BFAB622368A2890091D5F82C800E
:1080700004F11001C04700280ADA1749174840F2F6
:10808000452204F00AFF40F24521134804F0FEFEA9
:10809000304606F0DAFAA368002B06DB21463846A4
:1080A000BDF80A30039A06F05AFB38460DF10A0271
:1080B00003A906F03DFB044618B1304606F0C3FAAA
:1080C000B7E7D7F89C0006F0B5F9304606F0BBFAE2
:1080D00004B0BDE8F08100BFB50D010005FA000055
:1080E0002DE9F04385B00F46904603A90D9A064648
:1080F000994606F07FFB044648B30C9D039BD6F8D7
:10810000A4009D42A8BF1D460168D0F808C0611AAE
:10811000614528BF4FF0FF312B464A4605F0BEFFB0
:1081200085420AD00B490C4840F2072204F0B5FE04
:1081300040F20721074804F0A9FE2346424639468B
:1081400030460095FFF7F2FE05B0BDE8F083034826
:10815000FAE700BFB50D010005FA00002EF8FFFF99
:1081600038B50446E0B100F15805284606F06DFA2E
:10817000D4F898309B6953B9D4F88C40103C002C4B
:1081800000DC084C284606F05EFA204638BD012B7C
:10819000F7D1D4F8A00006F084F9A0F11004EEE7BE
:1081A000014CF2E72EF8FFFF2DF8FFFF2DE9F04715
:1081B0008AB00D46DDE9129790461E46044620B966
:1081C000804F38460AB0BDE8F0870029F8D0002B70
:1081D000F6D08C22002106F0CAFF012204F15800DB
:1081E000114606F045FE784BC4F89850C4F86880F4
:1081F0006C622367754B6367754BA367754BE367C9
:10820000754BC4F88030754BC4F88430D4F898307E
:10821000D3F81880B8F1000F6ED1002FD0D097E8B6
:10822000070004F18C0383E80700D4F89800036A80
:108230001B6998470023286100F001006B6184F8F6
:108240008800B8F1000F6DD13B7A002B68D009F19E
:108250000C03C4F8A830B9F1000FB1D0D9F8082048
:10826000002A00F0AD809B68002B00F0A9805C4BD9
:1082700004935C4B05935C4B06935C4B0793EB6A52
:108280001B68C4F89C30EB6A9B69C4F8A03004F109
:10829000AC03C4E92B3306ABC4F8A46000930222FC
:1082A0000021D4F8980004ABFFF7DEFC0746002855
:1082B00087D1D4F8A00006F08FF8EB6A1B689E62A5
:1082C000EB6A9B699E62B8F1000F61D1C246D4F897
:1082D00090300993D4F89C305B89534534D894F896
:1082E0008830C4E90044002B59D1D4F89800042107
:1082F000036ADB68984764E7B8F1010F95D1D4F8B9
:108300009800036A9B689847420606D5D4F89800FF
:108310000021036ADB689847F1E74307EFD584E75C
:108320004B4696E7B8F1010FB1D12E4B04932C4B7D
:1083300005932E4B06932C4B0793EB6A9B69C4F86D
:108340009C30EB6A1B68A0E74846D4F8901006F012
:1083500042FA0546C8B131680890411AB068002257
:10836000814228BF4FF0FF31D4F89030304605F0FD
:10837000CFFE009501230022D4F89C0008A905F047
:108380006CFF18B90AF1010AA4E71948074618E773
:1083900094F88830C4E90044002B3FF412AF002366
:1083A0000293144B204601933523134A009304F1A2
:1083B0000801FFF71BFDB8F1000F7FF402AF94E74F
:1083C0000B4FFEE62DF8FFFFE180000037E60000CE
:1083D00097E70000F5E700002D7F000057E600005A
:1083E000F80D0100FE0D01000980000045E60000C7
:1083F0002EF8FFFF99E60000040E0100F0B50546D7
:108400000E46174687B0074A03AC07CA84E8070040
:108410000C9A3146009228463A460194FFF7C6FE70
:1084200007B0F0BD18F6000008B5124BA8220021D5
:10843000184606F09CFE03220F49026142610F4A72
:108440008161C2614FF480620262002282624262F4
:10845000C26201660A4903464166102181660949E4
:108460000267C266426711F8010D98540132102A62
:10847000F9D108BDDC180020070E0100171E0020EE
:10848000071E0020200E01002DE9F84F1826DFF806
:108490007C80074606FB008E00FB0666DEF8244063
:1084A000DEF828C046447368A4458946154603EBA8
:1084B000040022D8DEF820B0ABEB040A0AF1FF3347
:1084C0009A4203D806F02CFE2C440FE063449A42F3
:1084D00019D852462C4406F023FEB4EB0B0405D009
:1084E0002246706809EB0A0106F01AFE18230120E3
:1084F00003FB07835C62BDE8F88F0CF1FF3CACEB3B
:10850000040C9445DED20020F5E700BFDC18002003
:108510001822034B02FB00339A6A586A801A70478C
:10852000DC1800204FF0FF324FF0FF33014801F01C
:108530001FBC00BF58030020014801F0CFBC00BFA2
:10854000580300200346084600B97047421E995C54
:1085500009B91046F8E7022807D90238062896BF5D
:10856000024B00231B5C012098407047210E010044
:1085700070B51C46012C054603681646C06816D126
:108580001278172A04D90233984214D3002320E02A
:10859000013398420FD30024284606F0C6FA70B182
:1085A0003444B44218D1AB680133AB6008E0621CBC
:1085B0001344984205D20821284606F0ADFA00205F
:1085C00070BD0CB93278E7E7A31E062BDED8064A49
:1085D000D35C1833DAB2DFE72B685A1C2A6014F830
:1085E000012D1A70DDE700BF210E010010B5FDF767
:1085F000C7FF072808D90C490C489B2204F04DFC02
:108600009B21094804F042FC2423094C03FB00444D
:1086100000236360FF2363700123A370204601F0F1
:108620000DF9204610BD00BF280E010005FA00001C
:10863000981900207FB583681B7D83B1C0680368EB
:108640005B6843B90D490E48882204F026FC882156
:108650000A4804F01BFC07B05DF804EB1847094B0F
:108660004FF4825105930223074804AA049306F0AD
:1086700016FB6FF0120007B05DF804FB280E010036
:1086800005FA00004E0E010054F500007FB50346C8
:10869000B1B1C0689B68026812692AB9181D07B099
:1086A0005DF804EB01F06ABD1B7D63B9084B4FF424
:1086B000825105930223074804AA049306F0EFFAB7
:1086C00007B05DF804FB053907B05DF804EB10470F
:1086D0004E0E010054F50000F8B50D461446511F2A
:1086E00050B91B4940F279321A4804F0D6FB40F2E7
:1086F0007931174804F0CAFBFF2D08D1144940F224
:108700007A32144804F0C9FB40F27A31F1E7063AB4
:108710000C3208D90E4940F27B320E4804F0BDFB02
:1087200040F27B31E5E7826800271678527804F83A
:10873000045CFF2504F8012C04F8057C04F8035CB4
:1087400004F8026C5A1DBDE8F840FFF773BF00BF84
:10875000280E010005FA0000F8B58B1F0C33054602
:108760000C461646A1F105070AD9164940F2A23275
:10877000154804F092FB40F2A231124804F086FB47
:1087800001F062F830B90F49D0220F4804F085FBA0
:10879000D021F2E741780120AB681A785B7804F8C1
:1087A000050CFF2004F8031C04F8040C04F8022C48
:1087B00004F8013C39462846721DBDE8F840FFF731
:1087C00039BF00BF280E010005FA0000002330B5B4
:1087D0000B60836889B01B7D551D0C4601955BB904
:1087E0001A4B4FF4825107930223194806AA0693A5
:1087F00006F055FA09B030BDC06803689B6853B9EC
:10880000144940F23242144804F047FB40F232412E
:10881000104804F03BFB01A9984740B90D4940F2CC
:1088200039420D4804F039FB40F23941F0E7019B31
:108830009D4208D9074940F23F42074804F02DFB0A
:1088400040F23F41E4E705302060D3E74E0E0100DF
:1088500054F50000280E010005FA00002DE9F04F44
:1088600087B000AF80460D461E46144697F840A0DC
:10887000002A4AD0926892F800B092F8019000293C
:108880004CD13949A069C7F804D08CB06A46374B3F
:10889000C2E90780C2E905313549C2E9096AD162F6
:1088A0003449354842F8101F44F2400106F0F7F908
:1088B000D7F804D0002D4CD1002C39D007F10C0191
:1088C00004222046FFF782FFF96881B1032201F8F4
:1088D000046C01F8052C01F803AC01F802BC01F8A6
:1088E000019C0922204641F80589FFF7A3FE0023D9
:1088F000C7F80C803B753C617E7587F816A0E3696C
:10890000EBB107F10C00984719E069B101290DD0CE
:108910001A494FF0FF091A48CB46B4E71749194ADC
:10892000012D08BF1146ADE70F49F2E71549F0E701
:10893000C7F80C803C753C617E7587F816A0124B19
:108940001B6813B107F10C0098471C37BD46BDE802
:10895000F08FC7F80C803D753C617E7587F816A0D6
:10896000002CCCD1EBE700BF770E0100920E010086
:10897000000202040700000254F500006B0E010023
:108980008A0E0100820E010084190020F0B51D46F8
:108990008B1F87B00C3306460C9F0AD921494FF430
:1089A000C772214804F079FA4FF4C7711D4804F0EA
:1089B0006DFA45B91B4940F28F121B4804F06DFA5D
:1089C00040F28F11F2E72C4654F8043BA3421CD826
:1089D0003846FFF75BFE154B04AA059302234FF4BC
:1089E00082511348049306F05AF97A683346521BB1
:1089F00018BF0122D2010C9200213A466FF001000B
:108A000007B0BDE8F040FFF729BF2078B04207D19A
:108A1000D4E901533846AC4607B0BDE8F0406047A2
:108A20000C34D3E7280E010005FA0000C90E01003E
:108A300054F500002DE9F04F042A8BB00646884615
:108A400002AF16D84FF0FF0AA94BD146FB610223B3
:108A50004FF48251BB61A74807F1180206F01FF9D5
:108A600033681B69002B40F067811C466FF04C0592
:108A70005EE098F9000091F80090002891F801A0BC
:108A800098F80430897813DA9B48007898427CD8AB
:108A90004FF08009994BFB6102234FF48251BB6177
:108AA000944807F1180206F0FAF833681B69D9E711
:108AB000B9F1000F5BD098F80300B9F1020F7860AC
:108AC0003FD0B9F1010F18D0B9F1030F67D18A492E
:108AD00009789942DED9042404EB4314884B082A10
:108AE0001C4400F29D806FF04C00FF23224600934F
:108AF00002215346FFF7B2FE8CE07F48007898428F
:108B0000C8D9042404EB43147D4B1C4407294FD9D6
:108B10007C4B4FF48251FB6102237648BB6107F125
:108B2000180206F0BCF833686FF04C051B69C3B936
:108B30005346224600212846CDF80090FFF78EFECE
:108B400061E06D4A12789A42A4D9042404EB4314DC
:108B50006B4B1C442569002D59D133681B69002BD0
:108B600051D0414630469847002D4CD0E0E762494D
:108B7000097899428ED9042404EB4314604B1C44B9
:108B800011464046FDF7ECFC32E0042404EB4314AC
:108B90005B4BFF291C44F3D04FF08009B6E7B9F1D5
:108BA000040F03D1052A3ED1574B74E7574B72E7A8
:108BB0002425574B05FB0130D0F804C000F10C0B05
:108BC00063468BB1B9F1010F0ED133681D695DB9F0
:108BD000836808F105012046053AE0472A464946E0
:108BE000584605F0F8F8B8E74146584605F0F3F85E
:108BF00033681B693BB9A06804304FF0FF324FF077
:108C0000FF3301F001FB2437BD46BDE8F08F50462D
:108C10006169A84733681B69002BF4D00025A0E7E1
:108C2000D8F8050061E798F80530B2F1060B03F0BB
:108C30000F014FEA131301D1364B2CE7E1B908F1CC
:108C40000603354C3B60354B9C422ED3344B4FF4DE
:108C50008251FB6102232748BB6107F1180206F02D
:108C60001EF83049304840F25A2204F016F940F21A
:108C70005A212C4804F00AF96D468AB002AA002451
:108C8000136205232948C2E9064150614FF421517E
:108C900042F8103F174806F002F83368AD461B69EA
:108CA0001BBB1C466FF02A0542E7A5692846F7F76B
:108CB000C3FB834517D129465A46386806F0D6F9D2
:108CC000054680B9A3687A685A70194A1378013347
:108CD000DBB21370084A12789A427FF43EAF15480F
:108CE00001F04CFA39E72034ADE76FF02A0538E798
:108CF000EB0E010054F5000019220020FC0E0100CB
:108D0000381901002D0F01004F0F01000D0F010058
:108D1000981900206E0F01003C1901005C19010038
:108D200000100100280E010005FA0000A80F010044
:108D3000182200208819002000246FF04C0510E74D
:108D40002DE9F04F89B0DFF8B08100AF98F800301E
:108D500023B100202437BD46BDE8F08F674ADFF815
:108D6000A0911060674A4A45D9B23DD3664B4FF493
:108D7000907219706548002106F0F9F96448FDF712
:108D800091FB0028E6DB01220021624806F070F822
:108D90000028DFDB0024604D05F80C4C0122002187
:108DA000284606F065F80028D4DB0134082C05F1CC
:108DB0002405F1D1534C4C451ED34FF400420023FF
:108DC000544801F021FA0B3040F08E80534B544848
:108DD000FB6102234FF48251BB6107F1180205F0D9
:108DE0005EFF6FF02200B5E70133B3F5807F906836
:108DF0007ED001702032B6E7D4E902A555B94949C1
:108E000049484FF4B27204F048F84FF4B271454843
:108E100004F03CF82B68002228461B684349984719
:108E200078B16D4688B06A46414B4FF4C251C2E9F1
:108E30000530032342F8103F394805F030FFAD46B6
:108E40002EE02B68196921B30122A3681A75A36863
:108E5000A06993F800B0F7F7EFFA07F10801421C98
:108E600006462046FFF7B2FCBD68DDB96D468AB004
:108E70006A469AF80010A369D36140F201332D4885
:108E800013842D4BC2E905014FF4115142F8103FF4
:108E9000D2E701220AF1040005F0EAFF0028D3DA44
:108EA000203488E7042205F802BC05F8052CFF21D0
:108EB0000022AB4605F8042C05F8031C05F8011C3C
:108EC0000BF8012BA16908467960F7F7B5FA7968C4
:108ED0000246584606F024F92046B21D691FFFF7E6
:108EE000A9FB0028DCD0C1E7012388F8003030E777
:108EF0006FF00B002EE700BF17220020841900201E
:108F00005C1901003C190100192200209819002069
:108F1000A5EC000088190020A41900208C10010085
:108F200054F50000280E010005FA0000358A000003
:108F30002810010050100100040000012DE9F04349
:108F40008B1F0C330E46904689B00AD958494FF40E
:108F5000DC72584803F0A1FF4FF4DC71544803F071
:108F600095FF042A08D8524940F2BD12514803F037
:108F700094FF40F2BD11F1E791F900300D78002B1C
:108F80004F7891F804900CDA4B4B1B784B4515D871
:108F9000474940F2CB12474803F07FFF40F2CB1124
:108FA000DCE7012D25D100287ED1414940F2C312D2
:108FB000404803F072FF40F2C311CFE760B30024D2
:108FC00004233E4A03EB4913991805F07F054570C9
:108FD0000091D3583846A8F10502711DFFF7D6FC61
:108FE0002CB1002000F02AFC2078FDF7EDFA802556
:108FF0005AE0314B1B784B45CAD904242F4B04EB64
:1090000049141C4465B12A4940F2F112294803F081
:1090100044FF40F2F111A1E7FFF7E8FA0446CFE779
:1090200040B1234940F2DF12224803F036FF40F2FC
:10903000DF1193E7009438466368053A0531FFF77E
:10904000A5FCA36802A92A46204693F800805E7812
:10905000FFF7BCFB0299A1B96FF00B06184B06AAEB
:10906000079302234FF482511648069305F017FE2A
:1090700000232246009301213B463046FFF7EEFBDA
:1090800012E0022301F8053CFF2301F8016C01F80E
:10909000047C01F8033C01F8028C052220460539C6
:1090A000FFF7C8FA061ED9DB284609B0BDE8F083F1
:1090B000280E010005FA00001922002038190100CD
:1090C000AD10010054F500007FB50346C06802688A
:1090D000D26852B90F49104840F24A4203F0DDFE0F
:1090E00040F24A410B4803F0D1FE9B681B7D63B9F7
:1090F0000A4B4FF4825105930223094804AA0493B2
:1091000005F0CDFD07B05DF804FB053907B05DF84B
:1091100004EB1047280E010005FA00004E0E010076
:1091200054F50000F0B583B002AF054605F0ECFD44
:10913000041E16DA6E4688B002AA0B4BC2E905344B
:10914000032342F8103F00234FF4C2510748F9F7B8
:10915000C3FE0121B546FF232A4620460091FFF7B2
:109160007DFB0437BD46F0BDC41001005CF5000076
:1091700008B5084A084B93420AD9084908481722FB
:1091800003F08BFE1721054803F080FE1433F2E74D
:10919000FCD308BDBCF2000044F20000F110010055
:1091A00005FA00002DE9F04786B004460D4600AFF1
:1091B0004FF02003EFF3118883F31288BFF36F8F12
:1091C00005F0E6FF334B042C1E5898BF324BE9469E
:1091D0008AB06A4694BF53F82430304BD36140F2D2
:1091E00001334FF0000A93842D492E4BC2E9051438
:1091F000C2F820A042F8103F4FF4315153462A489C
:10920000F9F76AFECD467DB1EB69C3F308035BB1A4
:10921000264B7B6102233B614FF482515346224827
:1092200007F11002F9F758FE2EB1304605F0DCFDCB
:1092300008B1037803B91E48E9468AB06A461D4B57
:10924000D061C2E9053640F2013313841A4B42F86B
:10925000103F00234FF411511348F9F73DFE294602
:10926000CD462046FDF7F4F8042C08D113491448E4
:10927000932203F012FE9321104803F007FE88F3B7
:109280001188BFF36F8F3046FBF784F81837BD465F
:10929000BDE8F0870800000004F900001411010087
:1092A0002211010005000001D4F500004A1101005F
:1092B0008A0E01006B1101000400000183110100FE
:1092C00005FA0000104B70B553F82040013053F8F8
:1092D0002060A64200D870BDD4E9003595B153B1E5
:1092E0002846984738B10028B8BF4042FF28A8BF99
:1092F000FF20EB681870EA68537843F0010353705D
:109300000834E6E79847FBE718F90000012208B5A2
:10931000094B03201A70FFF7D5FF02F0F7FE042077
:10932000FFF7D0FF00F032FBF7F768F9034A137B31
:1093300023F00103137308BD1A220020E80F002058
:1093400008B50348034A0021121A05F013FD08BDB1
:10935000100400201C2200209023F0B5174E01229B
:1093600003FB0066002387B0CDE904230F2201939D
:10937000CDE9023214230446114D124903FB005576
:10938000C702114B01EBC0214FF40062304600953B
:1093900000F060FA737BEE6023F0040373730B4BF1
:1093A0002C741F440A4B6F60D3E8EF1F0131C3E8F0
:1093B000E21F002AF8D107B0F0BD00BF580F00200F
:1093C000BC1A002020520020C59A00002052002024
:1093D000B81A002080B50020AAB0FFF773FF2F4B0A
:1093E00003F5006282F3088883F30A880024E023EF
:1093F0002B4D2C4E85F82230EC772C766C76AC76A3
:1094000085F820406B6A284F43F4E0236B6285F8AF
:109410002340FAF723FFFAF709FA4FF0FF33AB6264
:10942000EB62FBF783F9FAF7CBFFF9F773FB40F236
:10943000011306AD2846ADF82430CDE9234402F0EF
:1094400047FEB560FFF794FE0120FFF73BFF0220C7
:10945000164DFFF737FF01F0B1FF154B756105930E
:10946000012314494FF48062CDE9034328463B466B
:10947000CDE90144009400F0EDF906466A7B2846E8
:1094800022F004026A7301F09FFA2046FFF764FF9E
:109490003A4631462846FAF74FFB00BF204A0020E3
:1094A00000ED00E0BC1A00200D930000E80F002042
:1094B000EF110100205A002038B50B4C0B4DAC4287
:1094C0000FD90B490B48182203F0E7FC1821084874
:1094D00003F0DCFC2046D4E9011205F04FFC1834FF
:1094E000EDE7F7D3002038BD040300201C03002063
:1094F000F711010005FA00002DE9F04F064687B08C
:109500009146DDE9102304A89A468846174606F1DD
:10951000140505F00CFDDDE90434CDE902344FF00B
:109520002003EFF3118483F31288BFF36F8F284673
:1095300000F0A4FA38B92E4972222E4803F0ADFC8F
:1095400072212B4826E0284600F0B4FAEFF3058399
:10955000B3B906F10C0B4A4641463046F7F7BCFE5C
:109560000346C8B12846029300F096FA029B0028F1
:1095700036D11F49F0221F4803F08FFCF021E0E7AD
:1095800057EA0A03E5D01C491A484A2203F085FC31
:109590004A21194803F07AFC57EA0A07E2D0DDE9CC
:1095A000022304A805F0E7FCDDE904232146CDE908
:1095B0000023174628465A469A4601F0B3FC4FF05E
:1095C0002003EFF3118483F31288BFF36F8F2846D3
:1095D00000F054FA0028AED0284600F06BFABAE743
:1095E00084F31188BFF36F8F184607B0BDE8F08F82
:1095F000C4FC000005FA0000F7110100F8B50446AC
:109600000E4600F114054FF02003EFF3118783F3AA
:109610001288BFF36F8F284600F030FA40B9154921
:109620007222154803F039FC7221124803F02EFC17
:10963000284600F03FFA20463146F7F713FE04F1C2
:109640000C0005F05EFC28B139462846BDE8F8401C
:1096500001F024BA284600F01FFA30B90549F0227B
:10966000054803F01AFCF021DFE787F31188BFF308
:109670006F8FF8BDC4FC000005FA0000002038B56B
:109680000A4C0B4DAC420FD90A490B483D2203F05E
:1096900004FC3D21074803F0F9FB204605F076FB6A
:1096A000002802DB2034EDE7F7D338BD04030020A7
:1096B000040300201912010005FA00002DE9F74308
:1096C00004460D4690461F4600F108064FF0200361
:1096D000EFF3118983F31288BFF36F8F304600F0E8
:1096E000CDF940B91E4972221E4803F0D6FB722103
:1096F0001B4803F0CBFB304600F0DCF9A3698BB1CB
:109700002B601B68A361E3690133E36100243046E9
:1097100000F0C2F9F0B91249F022124803F0BDFB83
:10972000F021E5E758EA070203D16FF00B042B6044
:10973000EDE7224649463046CDE9008701F0F2FBCD
:10974000044618B9084B9B685B692B60204603B040
:10975000BDE8F08389F31188BFF36F8FF6E700BF90
:10976000C4FC000005FA0000BC1A00202DE9F041FD
:1097700004460D4600F108064FF02003EFF3118771
:1097800083F31288BFF36F8F304600F077F938B952
:1097900027497222274803F080FB7221244819E0F0
:1097A000304600F087F96369AB420CD82169EA1AA8
:1097B000B2FBF1F001FB10222AB9E268013A01FB89
:1097C00002339D4208D91C491A48982203F065FBD0
:1097D0009821194803F05AFBD4F81880B8F1000F0B
:1097E0000ED1204601F0ACFD50B1C0F88C8045612F
:1097F00001F0EAF839463046BDE8F04101F04EB9D3
:10980000A36930462B60E369A561013BE36100F089
:1098100043F930B90649F022064803F03EFBF02137
:10982000BCE787F31188BFF36F8FBDE8F08100BFFD
:10983000C4FC000005FA000019120100014B9B68EE
:1098400018677047BC1A0020014B9B68186F70475F
:10985000BC1A00202DE9F04385B098460F9B0446C2
:109860000F2B0F463CD1264988453DD104F15801C4
:10987000C4E916111099002621730421073222F041
:10988000070507EB05096173A37349462046C4E940
:109890000666A660E673FAF77DF90E9B073020F0A6
:1098A0000700E067C4E91D7502930D9BA9EB000951
:1098B00001930C9B4A460093394643462046FAF7EB
:1098C0001FF9104B66659B68266784F86C600BB1C6
:1098D000D3F880304846C4F8803005B0BDE8F08346
:1098E00003F110011E29C1D90749084840F21A2284
:1098F00003F0D3FA40F21A21034803F0C7FA00BF7D
:10990000C59A0000BC1A00203E12010005FA0000B2
:10991000F0B587B00446DDE91276EFF3058555B161
:10992000174918484FF4237203F0B7FA4FF4237124
:10993000134803F0ABFA0595109D04950F9D039510
:109940000E9D02950D9D01950C9D0095FFF782FFE0
:10995000B6F1FF3F08BFB7F1FF3F05D056EA070356
:1099600005D1204601F0D0F8204607B0F0BD3A46B8
:109970003346054904F1180002F004F8F4E700BF8B
:109980003E12010005FA0000FBEE00002DE9F04355
:10999000354C364D87B0AC42264626D9344940F284
:1099A000F322344803F079FA40F2F321304803F00F
:1099B0006DFA54F8043C059354F80C3C049354F8A5
:1099C000103C039354F8143C029354F8183C019350
:1099D00054F81C3C009354E9092354E90B01FFF7A8
:1099E00039FF54F82C3C5E65D5E7AE4204F12C04F7
:1099F000DFD301F0C9F84FF4004640F2E7371A4CC4
:109A0000DFF87490AC4228D9194940F21232194853
:109A100003F043FA40F21231C8E7636A5A1C0DD0D2
:109A20000021384623EAE373C3FB060151EAC3333E
:109A3000D4F8008004D1404601F066F82C34E1E708
:109A40004FF47A720023F6F785FB02460B4608F1C5
:109A50001800494601F096FFF0E7DED307B0BDE8F5
:109A6000F04301F0DDB800BFE4F400003CF5000075
:109A70003E12010005FA0000FBEE0000006838B15C
:109A8000044B00F003001B7CC01A18BF0120704774
:109A900001207047BC1A0020054A0346117C9268D9
:109AA0000A4301680020914204BF186001207047FA
:109AB000BC1A0020024B1A7C9B681343036070475A
:109AC000BC1A002008B50D4B9B6893F90E30002B93
:109AD00008DA0B490B48292203F0DFF9292108484D
:109AE00003F0D4F94FF02002EFF3118382F31288D0
:109AF000BFF36F8FF9F7A0FEF4E700BFBC1A002098
:109B00006112010005FA00002DE9F7430446894679
:109B100090461D46EFF3058353B152EA050307D083
:109B20003F4976223F4803F0B8F976213C4814E0DB
:109B300004F108064FF02003EFF3118783F3128836
:109B4000BFF36F8F3046FFF799FF40B93649722255
:109B5000344803F0A2F97221334803F097F93046F4
:109B6000FFF7A8FF626A23699A4241D2204601F0BA
:109B7000E7FB054690B1E26800244946406905F0DC
:109B8000CFFA2846C5F88C4000F01EFF3946304613
:109B900000F084FF204603B0BDE8F083206A6369CB
:109BA000984202D3A369984206D31D4990221D48CA
:109BB00003F073F99021B9E7E268494605F0B0FA7D
:109BC000236AE2681344A2692362934204BF636973
:109BD0002362636A0133636200243046FFF75CFF4F
:109BE000C8B91149F0220F4803F057F9F021B3E743
:109BF00058EA05030CD00D4B22469B683946C3F842
:109C000014903046CDE9008501F08CF90446C1E797
:109C10006FF02204E1E787F31188BFF36F8FB9E794
:109C20008212010005FA0000C4FC0000BC1A0020EA
:109C30002DE9F7430446884617461D46EFF3058392
:109C400053B152EA050307D04549D222454803F0F3
:109C500024F9D221424814E004F108064FF0200311
:109C6000EFF3118983F31288BFF36F8F3046FFF74C
:109C700005FF40B93C4972223A4803F00EF97221BF
:109C8000394803F003F93046FFF714FF636A002BED
:109C900043D0E268E169404605F042FAE369E268D0
:109CA00020461344A269E361934204BF6369E36100
:109CB000636A013B636201F043FB054600283ED026
:109CC000206A6369984202D3A369984206D3244963
:109CD000EB22244803F0E1F8EB21BBE76969E26875
:109CE00005F01EFA236AE26828461344A26923623B
:109CF000934204BF63692362636A01336362002491
:109D0000C5F88C4000F060FE4946304600F0C6FEC3
:109D10002546284603B0BDE8F08357EA05030CD07A
:109D2000124B22469B684946C3F814803046CDE961
:109D3000007501F0F7F80546EBE76FF022053046B5
:109D4000FFF7AAFE30B90849F022064803F0A5F84B
:109D5000F02195E789F31188BFF36F8FD9E700BF32
:109D60008212010005FA0000C4FC0000BC1A0020A9
:109D70002DE9F341044617461E46EFF3058545B12C
:109D800051495248652203F088F865214E4803F096
:109D90007DF84FF02003EFF3118883F31288BFF3AF
:109DA0006F8F4B48FFF76AFE38B94A49722247481D
:109DB00003F073F872214748E9E74548FFF77AFE58
:109DC000E368454A9BB1A0689168884222D057EA6F
:109DD000060327D13E48FFF75FFEA0B188F3118844
:109DE000BFF36F8F6FF00F0002B0BDE8F081916894
:109DF00091F90E100133E360936835482161A36047
:109E0000FFF74AFE40B93349F022304803F045F8E5
:109E1000F021D0E72169EDE788F31188BFF36F8F58
:109E20000020E1E791F90E1090F90E306FF07E02FC
:109E30009942A8BF19469142B8BF11468B4202DD34
:109E400004F0E6FF054622464146CDE9007620486B
:109E500001F068F80028E3D04FF02003EFF31186FB
:109E600083F31288BFF36F8F1948FFF707FE0028AE
:109E70009BD01748FFF71EFEA068C0B12368216978
:109E80009C420AD04BB193F90E309942A8BF1946B3
:109E90006FF07E039942B8BF194604F0B9FF30B1A4
:109EA00031460B4800F0FAFD6FF00A009CE7002DE8
:109EB000F6D10748FFF7F0FD0028A4D086F31188FB
:109EC000BFF36F8FF0E700BFA412010005FA000096
:109ED000DC1A0020C4FC0000BC1A002070B5044647
:109EE000EFF3058646B13149CD22314802F0D5FF66
:109EF000CD212E4802F0CAFF8368002B4FD02D4A97
:109F0000926893424ED1C36833B92849E522284864
:109F100002F0C3FFE521ECE7012B03D0013BC36056
:109F2000002070BD4FF02003EFF3118583F31288FA
:109F3000BFF36F8F2048FFF7A1FD38B91F49722288
:109F40001B4802F0AAFF72211C48D3E71A48FFF70A
:109F5000B1FD2169A06804F05BFF204601F0F0F933
:109F6000A06058B190F90E202261C0F88C6000F01A
:109F70002BFD2946104800F091FDD1E7E0600E4826
:109F8000FFF78AFD30B90D49F022094802F085FF3C
:109F9000F021D9E785F31188BFF36F8FC0E76FF029
:109FA0001500BEE74FF0FF30BBE700BFA412010071
:109FB00005FA0000BC1A0020DC1A0020C4FC0000D6
:109FC0002DE9F04704460D46904699469DF820A09D
:109FD00000F108064FF02003EFF3118783F3128896
:109FE000BFF36F8F3046FFF749FD40B93549722204
:109FF000354802F052FF7221324802F047FF3046E6
:10A00000FFF758FDBAF1000F00D0656804F10C00AD
:10A0100001F096F960B10023C0F81480C0F88C30CC
:10A0200000F0D2FC3046394600F038FD002017E041
:10A03000B9F1000F27D0082102F050F890B930464E
:10A04000FFF72AFD30B91F49F0221F4802F025FF13
:10A05000F021D1E787F31188BFF36F8F6FF00B000A
:10A06000BDE8F0870122C0F804800260016801F0B9
:10A07000030165B922680A43026062682060002A11
:10A08000D0D16060CEE74046C8F80090EEE72A687D
:10A09000032A0BD80160616811B9C4E90000C1E767
:10A0A0000A6802F0030202430A60EAE722F00302B0
:10A0B0000A4302602A6802F0030240EA02032B60AE
:10A0C000B0E700BFC4FC000005FA00002DE9F7432B
:10A0D000054691461F4600F108064FF02003EFF3B6
:10A0E000118883F31288BFF36F8F3046FFF7C6FCE9
:10A0F00040B91F4972221F4802F0CFFE72211C484E
:10A1000002F0C4FE3046FFF7D5FC2C68C4B12368CA
:10A110006A6823F00303944220464FF001012B604C
:10A1200008BF6B6004F083FE04463046FFF7B4FCC2
:10A13000B0B90F49F0220F4802F0AFFEF021DEE780
:10A1400059EA0703F1D041463046CDE9009705F1C1
:10A150000C0200F0E7FE38B9074B9B685C6903E02E
:10A1600088F31188BFF36F8F204603B0BDE8F083FA
:10A17000C4FC000005FA0000BC1A002038B50446F3
:10A180004FF02003EFF3118583F31288BFF36F8F35
:10A190001A48FFF773FC40B919497222194802F0B6
:10A1A0007CFE7221164802F071FE1448FFF782FC13
:10A1B000204601F0C5F850B10022C0F88C2000F014
:10A1C00003FC2946BDE838400C4800F067BCD4E9E0
:10A1D00002329A4218BF01330848A360FFF75CFCC3
:10A1E00030B90749F022074802F057FEF021D9E7BD
:10A1F00085F31188BFF36F8F38BD00BFE01A0020D0
:10A20000C4FC000005FA0000F7B5044616461D46DA
:10A21000EFF305835BB152EA050308D026492748CE
:10A22000802202F03AFE8021234802F02FFE4FF0F8
:10A230002003EFF3118783F31288BFF36F8F204859
:10A24000FFF71CFC38B91F4972221C4802F025FE9A
:10A2500072211C48E9E71A48FFF72CFCA3689BB160
:10A26000013B1748A360FFF717FC30B91549F022EE
:10A27000124802F012FEF021EBE787F31188BFF3DA
:10A280006F8F002003B0F0BD56EA05030BD10C48D8
:10A29000FFF702FC0028E9D087F31188BFF36F8F26
:10A2A0006FF00F00EEE722463946CDE9006504481D
:10A2B00000F038FEE6E700BFC612010005FA000014
:10A2C000E01A0020C4FC00002DE9F04F0446684E5F
:10A2D000684F85B04FF02003EFF3118883F31288A5
:10A2E000BFF36F8F3046FFF7C9FB40B96249722256
:10A2F000624802F0D2FD72215F4802F0C7FD30468D
:10A30000FFF7D8FBD4F89050A5B9022104F1A800BA
:10A3100004F0BAFD80BB00234FF0FF3202934FF0F0
:10A32000FF334146CDE90023304604F1980201F0A5
:10A3300071FACFE7D4F894202B68954208BFC4F88F
:10A340009430C4F89030D4F8A830304643F002037B
:10A35000C4F8A830EB68D5F8049023F0040343F068
:10A360000103EB60FFF798FB80B94349F0224348B3
:10A3700002F093FDF021BFE704F1A00500220121C6
:10A38000284601F0FBF90028F8D1C4E788F31188CA
:10A39000BFF36F8FB9F1000F09D13949374840F247
:10A3A0009B2202F07AFD40F29B213548A5E7284622
:10A3B000C8474FF02003EFF3118A83F31288BFF3ED
:10A3C0006F8F3046FFF75AFB00288FD03046FFF7DB
:10A3D00071FBEB68990723F0010217D4EA60D4F807
:10A3E000A830304623F00203C4F8A830C3F3002598
:10A3F000FFF752FB0028B8D08AF31188BFF36F8FA4
:10A40000002D7FF467AF00F0E1FF63E7386823F0C9
:10A410000303EB600028E2D04FF00008C346D0F8F9
:10A4200000900028DBD0436802469D420DD10268AF
:10A43000B8F1000F12D17B683A60834200D17A6094
:10A4400040F808BBFFF79AFE4246B9F1000F0DD065
:10A45000D9F80030484690469946E2E7C8F800200F
:10A460007B68834208BFC7F80480E9E74B46F1E701
:10A47000EC1A0020E41A0020C4FC000005FA0000D9
:10A48000E6120100F8B5C36804469A070F46C3F305
:10A49000400638D45B0724D40B680BB983680B6083
:10A4A000E368DD0720D5A36853B9284928484FF44D
:10A4B000A77202F0F2FC4FF4A771244802F0E6FC08
:10A4C00002263B603D68002D3CD0224B9B68AB428E
:10A4D0000CD0D5F8A830D807C3F3800216D46FF09B
:10A4E000120600233B6027E00126EBE704F073FC33
:10A4F000D5F8A8300028EED1D907C3F3C002EED5B5
:10A5000052B15B0708D46FF00F06EAE7002AFAD1D0
:10A51000C3F3C003002BF6D100232360D5F8943099
:10A5200063B9C5E92444284604F0B9FCE36843F064
:10A530000403E3603B68A3603046F8BD1C60C5F8C7
:10A540009440F0E76FF01506CBE700BFE61201007C
:10A5500005FA0000BC1A002038B50D46044640B983
:10A560000B4989220B4802F098FC8921084802F027
:10A570008DFC31B906498A22064802F08EFC8A21F8
:10A58000F4E71022002104F0F2FD656038BD00BF41
:10A59000E612010005FA000037B50C46019051B9EA
:10A5A0001C491D484FF4BA7202F077FC4FF4BA719F
:10A5B000184802F06BFC4FF02003EFF3118583F392
:10A5C0001288BFF36F8F1548FFF758FA38B914494E
:10A5D0007222114802F061FC72211148E9E70F482C
:10A5E000FFF768FA204601A9FFF74CFF04460B4825
:10A5F000FFF752FA30B90A49F022074802F04DFC41
:10A60000F021EAE785F31188BFF36F8F204603B08E
:10A6100030BD00BFE612010005FA0000EC1A002070
:10A62000C4FC000008B550B90749084840F2B922F7
:10A6300002F033FC40F2B921034802F027FCB022BB
:10A64000002104F094FD08BDE612010005FA0000A7
:10A65000F0B589B004460E9D50B92A494FF43272C4
:10A66000294802F01AFC4FF43271264802F00EFC21
:10A6700041B9244940F2C922234802F00EFC40F2BD
:10A68000C921F2E7D0F8A80010F0010008D01D4958
:10A6900040F2CA221C4802F000FC40F2CA21E4E762
:10A6A000C4E9240004F19800C4E9260004F1A000E4
:10A6B000C4E928001DB32879002840F2011008BF22
:10A6C0000120C4F8A80000204FF0FF364FF0FF37FC
:10A6D000CDE90330CDE90100CDE9066720460B4BFB
:10A6E0000094FFF715F925B1296811B1204604F04F
:10A6F00078FB204609B0BDE8F04004F077BB0120AC
:10A70000DFE700BFE612010005FA0000C9A2000061
:10A710007FB50D46044650B9344940F2ED22344825
:10A7200002F0BBFB40F2ED21304802F0AFFB04F039
:10A7300052FB40B12D4940F2EE222D4802F0ADFB14
:10A7400040F2EE21F0E74FF02003EFF3118683F3A0
:10A750001288BFF36F8F2748FFF790F938B9264961
:10A760007222234802F099FB72212348DDE7214839
:10A77000FFF7A0F9D4F8A83013F0060F1DD1B5B13A
:10A7800043F00C03C4F8A830204604F088FB0023F3
:10A790004FF0FF3202934FF0FF333146CDE90023F3
:10A7A000144804F1A00201F035F804B070BDD4F8EB
:10A7B00090504DB143F00403E4E743F00402C4F8C1
:10A7C000A820002DE0D0DBE70A48FFF765F930B993
:10A7D0000949F022064802F060FBF021C5E786F344
:10A7E0001188BFF36F8F2846DFE700BFE612010034
:10A7F00005FA0000EC1A0020C4FC0000C3897F2B7E
:10A8000012D80A4B1B6863B1094B90F90E201B68E4
:10A810009A4209DB437BDB0606D1064BC31A18BFFD
:10A82000012303F0010070470023FAE7F81A002023
:10A83000F41A0020580F002008B568B10F4B984259
:10A840000AD303F11802904206D21822C01AB0FBB4
:10A85000F2F302FB130353B109490A4840F2D31241
:10A8600002F01BFB40F2D311054802F00FFB01225E
:10A87000054BC0105843054B1A5408BD78100020F2
:10A880000713010005FA0000ABAAAAAA1B220020A8
:10A8900070B50E4B0E4C1E7C054606EB460304EBD2
:10A8A000C304204601F014F900220A4B28469A55A9
:10A8B000FFF7A4FF48B1084B2046BDE870401A6876
:10A8C0000649013AD31701F05DB870BDBC1A0020EB
:10A8D000781000201B220020F81A002039A8000060
:10A8E00038B5124D2B4653F8184F9C4200D004B98E
:10A8F000EC68AB6888B943B90D490E488F2202F065
:10A90000CCFA8F210A4802F0C1FA5A7BD20604D150
:10A91000A26912B9DA897F2A05D89C4202D0204662
:10A92000FFF7B6FF23466B6138BD00BFBC1A00209D
:10A930000713010005FA000070B590F90D30427B55
:10A94000002B37DBD30635D18369002B32D162F07F
:10A950007F024273184A904208D118491848C12210
:10A9600002F09BFAC121154802F090FA15490A46F7
:10A9700052F8184F944218BF2346CC6923B9C0E956
:10A9800000242060C8610CE090F90E5093F90E602D
:10A99000B5420BD0AE4209DD5A68C0E90032106002
:10A9A00058600020BDE87040FFF79ABFA342E6D090
:10A9B0001B68E3E770BD00BF580F002007130100BC
:10A9C00005FA0000BC1A002038B504464FF02003F9
:10A9D000EFF3118583F31288BFF36F8F1148FFF7F0
:10A9E0004DF840B910497222104802F056FA72210F
:10A9F0000D4802F04BFA0B48FFF75CF82046FFF7D2
:10AA00009BFF0848FFF748F830B90749F02207488C
:10AA100002F043FAF021EBE785F31188BFF36F8F63
:10AA200038BD00BFFC1A0020C4FC000005FA00007D
:10AA300038B504464FF02003EFF3118583F31288F5
:10AA4000BFF36F8F1248FFF719F840B9114972220E
:10AA5000114802F022FA72210E4802F017FA0C484F
:10AA6000FFF728F8A36813B1204600F089FB0848D7
:10AA7000FFF712F830B90749F022074802F00DFA43
:10AA8000F021E9E785F31188BFF36F8F38BD00BF70
:10AA9000FC1A0020C4FC000005FA000038B503468B
:10AAA0000C46D1B9EFF30585BDB9144A51699268D6
:10AAB000914212D0FEF7F0FF50B9114940F2111245
:10AAC000104802F0EAF940F211110D4802F0DEF9E7
:10AAD0002846BDE83840F8F7B1BF1846FEF7DCFF5E
:10AAE00030B90749F022074802F0D7F9F021ECE726
:10AAF00084F31188BFF36F8F38BD00BFBC1A0020EC
:10AB0000C4FC000005FA000038B504464FF02003ED
:10AB1000EFF3118583F31288BFF36F8F1748FEF7A9
:10AB2000ADFF40B916497222164802F0B6F97221FB
:10AB3000134802F0ABF91148FEF7BCFF637B5A07DC
:10AB40000FD40E48FEF7A8FF30B90D49F0220D488A
:10AB500002F0A3F9F021EBE785F31188BFF36F8FC3
:10AB600038BD23F0040320466373FFF7E5FE294652
:10AB7000BDE838400148FFF791BF00BFFC1A002034
:10AB8000C4FC000005FA000010B54FF02003EFF3FD
:10AB9000118483F31288BFF36F8F1C48FEF76EFF9A
:10ABA00038B91B4972221B4802F077F97221184804
:10ABB0000CE01648FEF77EFFEFF3058343B116491C
:10ABC000FD22144802F069F9FD21134802F05EF9F4
:10ABD000124B9A68D37B012B06D10F49FE220D48F8
:10ABE00002F05BF9FE21F0E7013BD3730748FEF763
:10ABF00053FF30B90649F022064802F04EF9F02121
:10AC0000D5E784F31188BFF36F8F10BDFC1A0020C5
:10AC1000C4FC000005FA000029130100BC1A002042
:10AC200010B54FF02003EFF3118483F31288BFF3C4
:10AC30006F8F2048FEF722FF38B91F4972221F4844
:10AC400002F02BF972211C480FE01A48FEF732FF80
:10AC50001B4B9A68D37B53B91A494FF47E7217483D
:10AC600002F01BF94FF47E71164802F00FF9EFF372
:10AC7000058040B1134940F2F932104802F00DF955
:10AC800040F2F931F0E70133D373FFF729FE0948A9
:10AC9000FEF702FF30B90849F022084802F0FDF83B
:10ACA000F021D0E784F31188BFF36F8FBDE8104027
:10ACB00004F019B9FC1A0020C4FC000005FA0000D9
:10ACC000BC1A00200713010008B50B4B99420AD1AA
:10ACD0000A490B4840F2844202F0DFF840F2844116
:10ACE000064802F0D3F8D1E9003213605A6000231D
:10ACF000C1E9003308BD00BF580F00200713010051
:10AD000005FA000070B590F90D200446002A437B37
:10AD100006DA03F07F03014643731D48FFF7D4FFB3
:10AD2000637B63F07F0363731A4B9C4208D11A491B
:10AD30001A48C12202F0B1F8C121174802F0A6F862
:10AD4000174A114651F8183FD0698B4208BF0023BB
:10AD500023B9C4E900100460D4610CE094F90E50EA
:10AD600093F90E60B5420ED0AE420CDD5968C4E9CD
:10AD700000310C605C609068031B58425841BDE88C
:10AD80007040FFF7ADBD9842E3D01B68E0E700BF1D
:10AD9000D41A0020580F00200713010005FA000004
:10ADA000BC1A002038B54FF02003EFF3118583F370
:10ADB0001288BFF36F8F1E48FEF760FE40B91D4931
:10ADC00072221D4802F069F872211A4802F05EF8FA
:10ADD0001748FEF76FFE194B194A9C681068A0428D
:10ADE0000CD1FFF755FD1248FEF756FED0B91149B8
:10ADF000F022114802F051F8F021E6E700211B7C17
:10AE00001160104AD35C002BEDD02046FFF7F6FC12
:10AE10000028E8D0637BDB0602D12046FFF772FFF3
:10AE20002046DEE785F31188BFF36F8F38BD00BF82
:10AE3000FC1A0020C4FC000005FA0000BC1A002027
:10AE4000F01A00201B22002010B590F90D200446B6
:10AE5000002A437B06DA03F07F030146437306486A
:10AE6000FFF732FF054B9868031B58425841BDE875
:10AE70001040FFF735BD00BFD41A0020BC1A0020D7
:10AE800038B504460D46FFF7DFFF637B43F002034E
:10AE9000637345B3144BA5609C4208D11349144811
:10AEA000C12201F0FAFFC121104801F0EFFF2B6829
:10AEB0009D4209D16B68C4E900531C606C6012E0CC
:10AEC0006A689342F6D01B68002BF3D094F90E20E9
:10AED00093F90E108A42F3D09142F1DD5A68C4E929
:10AEE000003214605C6038BD580F00200713010069
:10AEF00005FA000070B515461C460646FFF7C0FF70
:10AF0000B4F1FF3F08BFB5F1FF3F08D02A46234602
:10AF100006F118000249BDE8704000F033BD70BD75
:10AF2000FBEE00002DE9F047DDE90889DFF894A089
:10AF3000254C1746254BDAF80820A04205460E4658
:10AF40001A600AD12249234840F25F3201F0A5FF7E
:10AF500040F25F311E4801F099FF4FF02002EFF3FD
:10AF6000118382F31288BFF36F8F2046FEF786FDB0
:10AF700038B919497222174801F08FFF722116481B
:10AF8000E9E72046FEF796FDDAF8080042464B4610
:10AF90003946FFF7AFFF2846FEF77EFD40B90E4960
:10AFA00040F211120B4801F078FF40F21111E6E770
:10AFB0002046FEF771FD0028F1D03046BDE8F0478D
:10AFC000F8F73CBDBC1A0020FC1A0020F01A002043
:10AFD0000713010005FA0000C4FC00002DE9F84346
:10AFE00004460E464FF02003EFF3118983F31288D5
:10AFF000BFF36F8F3148FEF741FD074638B930493E
:10B000007222304801F049FF72212D4820E02B4880
:10B01000FEF750FD637B76B2DA061BD1A569CDB988
:10B02000DFF8A48003F07F03637321464046FFF7F7
:10B030004BFE637BA67363F07F036373234B9C42D9
:10B0400015D123491F48C12201F027FFC121204803
:10B0500001F01CFF0027A6731848FEF71DFD30BB4A
:10B060001749F022174801F018FFF021CDE74346B9
:10B0700053F81829424518BF1546DA6925B9C4E9BD
:10B0800000821460DC610AE095F90E108E420AD04D
:10B09000B14208DD6B68C4E900531C606C6001209C
:10B0A000FFF71EFCD8E7AA42E9D02D68E6E789F34E
:10B0B0001188BFF36F8F3846BDE8F883FC1A002073
:10B0C000C4FC000005FA0000D41A0020580F00202C
:10B0D0000713010070B50446183000F0F9FC4FF07A
:10B0E0002003EFF3118683F31288BFF36F8F1F489D
:10B0F000FEF7C4FC40B91E4972221E4801F0CDFE85
:10B1000072211B4801F0C2FE1848FEF7D3FC94F9E7
:10B110000D20637B002A06DA03F07F0321461648E0
:10B120006373FFF7D1FD154D637BA86843F01003EF
:10B130006373031B58425841FFF7D2FB0B48FEF7DD
:10B14000ABFC30B90A49F0220A4801F0A6FEF02112
:10B15000D7E786F31188BFF36F8FAB68A34203D1A3
:10B16000BDE8704003F0BFBE70BD00BFFC1A0020F8
:10B17000C4FC000005FA0000D41A0020BC1A00200C
:10B1800010B50446806850B90A490B4840F2D222F3
:10B1900001F083FE40F2D221064801F077FE2146FD
:10B1A000FFF792FD637B23F0020363730023A36028
:10B1B00010BD00BF0713010005FA000038B50446B2
:10B1C0004FF02003EFF3118583F31288BFF36F8FE5
:10B1D0001448FEF753FC40B913497222134801F09A
:10B1E0005CFE7221104801F051FE0E48FEF762FC31
:10B1F000A36813B12046FFF7C3FF0A48FEF74CFCD3
:10B2000030B90949F022094801F047FEF021E9E789
:10B2100085F31188BFF36F8F04F11800BDE8384043
:10B2200000F056BCFC1A0020C4FC000005FA000027
:10B2300070B504460D464FF02003EFF3118683F3FB
:10B240001288BFF36F8F1E48FEF718FC40B91D49E6
:10B2500072221D4801F021FE72211A4801F016FEEB
:10B260001748FEF727FC002394F86C10627B84F8E3
:10B270006C3059B155B11248FEF70EFCD0B91149E6
:10B28000F022114801F009FEF021E6E712F0280F44
:10B29000F1D1A36813B12046FFF772FF637B35B984
:10B2A00003F0FB0320466373FFF746FBE3E703F07D
:10B2B000EB03F7E786F31188BFF36F8F70BD00BF14
:10B2C000FC1A0020C4FC000005FA000070B5054619
:10B2D0004FF02003EFF3118683F31288BFF36F8FD3
:10B2E0001448FEF7CBFB40B913497222134801F012
:10B2F000D4FD7221104801F0C9FD0E48FEF7DAFBBB
:10B300002C68A5420ED014B12046FFF739FF09483A
:10B31000FEF7C2FB40B90849F022084801F0BDFD24
:10B32000F021E7E70024F2E786F31188BFF36F8F7F
:10B33000204670BDFC1A0020C4FC000005FA000085
:10B3400070B505464FF02003EFF3118683F31288A2
:10B35000BFF36F8F1648FEF791FB40B91549722273
:10B36000154801F09AFD7221124801F08FFD104836
:10B37000FEF7A0FB2C68A54212D034B12046FFF79F
:10B38000FFFE04F1180000F0A3FB0948FEF784FB60
:10B3900040B90849F022084801F07FFDF021E3E7B9
:10B3A0000024F2E786F31188BFF36F8F204670BD4B
:10B3B000FC1A0020C4FC000005FA0000024B03F157
:10B3C0001802C3E906227047BC1A0020F8B5EFF353
:10B3D00005834BB1364940F27A52364801F05DFDA3
:10B3E00040F27A51324812E04FF02003EFF3118619
:10B3F00083F31288BFF36F8F2F48FEF73FFB40B9EE
:10B400002E4972222B4801F048FD72212B4801F091
:10B410003DFD2B4C2848FEF74DFBA16804F11805B3
:10B420004B7B284603F07F034B73FFF74DFCA3686B
:10B430005A7B62F07F025A73224A934206D11C491A
:10B44000C1221C4801F029FDC121CBE7A269E169B5
:10B45000AA4208BF002222B9C3E900510B60E36190
:10B460000CE093F90E0092F90E70B84216D08742A4
:10B4700014DD5168C3E900210B6053600120FFF720
:10B480002FFA0D48FEF708FB60B90C4940F2111283
:10B49000084801F002FD40F21111B7E78A42DBD003
:10B4A0001268D8E73046BDE8F840F8F7C7BA00BFE1
:10B4B0000713010005FA0000FC1A0020C4FC00007C
:10B4C000BC1A0020580F00202DE9F04105460E4619
:10B4D000EFF305834BB1374940F29652364801F0FD
:10B4E000DCFC40F29651334820E050EA010303D1DE
:10B4F000FFF76CFF00205AE0821C71F1FF3317DB6D
:10B5000003F00FFD2C184FF02003EFF3118883F3A5
:10B510001288BFF36F8F2948FEF7B0FA60B9284947
:10B520007222254801F0B9FC7221254801F0AEFCD9
:10B530006FF00104241AE6E7224F2048FEF7BAFA1A
:10B54000B868214B1860FFF77FFCB8682A4633467D
:10B5500018301E4900F016FABA681848537B43F0B9
:10B5600010035373FEF798FA40B9154940F21112CF
:10B57000114801F092FC40F21111D6E74046F8F76D
:10B580005DFABB685B7BDB0608D50A4940F2B25224
:10B59000094801F082FC40F2B251A4E703F0C1FC7B
:10B5A000201A63EB0303012873F10003A2DBBDE85B
:10B5B000F08100BF0713010005FA0000FC1A00200B
:10B5C000C4FC0000BC1A0020F01A0020FBEE0000B2
:10B5D00008B5EFF3058353B11049114840F2C15249
:10B5E00001F05BFC40F2C1510C4801F04FFCB1F19D
:10B5F000FF3F08BFB0F1FF3F06D10A4B9868FFF745
:10B6000069FD4FF0FF3008BDFFF75EFF4FF47A731E
:10B6100080FB0303C00B40EA4340F4E7071301003B
:10B6200005FA0000BC1A0020014B9868704700BF63
:10B63000BC1A00202DE9F04104464FF02003EFF33F
:10B64000118683F31288BFF36F8F4648FEF716FA10
:10B6500040B945497222454801F01FFC7221424819
:10B6600001F014FC3F48FEF725FA237BD90718D5D3
:10B670003C48FEF711FA30B93B49F0223B4801F053
:10B680000CFCF021EBE786F31188BFF36F8F38498C
:10B6900040F2D762354801F000FC40F2D7613448EF
:10B6A000DEE7637B1A070AD52E48FEF7F5F9002876
:10B6B000E2D086F31188BFF36F8FBDE8F08123F0ED
:10B6C000200242F00801D20929D16173A36813B1A5
:10B6D0002046FFF755FD04F1180000F0F9F94FF08E
:10B6E000000804F15807A56DBD4200D00DBB012034
:10B6F000FFF7F6F81F4B9B68A342D5D1EFF3058304
:10B70000002BD1D11748FEF7C7F9F8B9164940F216
:10B710001112164801F0C1FB40F211119FE703F02E
:10B720005F0343F00803214613486373FFF7CCFA25
:10B73000CCE72846FFF724FD05F1180000F0C8F912
:10B740002846C5F88C80FFF7F7F8CCE73046F8F7C5
:10B7500075F9074940F20D72044801F09EFB40F272
:10B760000D719CE7FC1A0020C4FC000005FA0000E3
:10B7700007130100BC1A0020D41A00202DE9F84359
:10B780000646884617464FF02003EFF3118983F3EE
:10B790001288BFF36F8F1C48FEF770F9054640B959
:10B7A0001A4972221A4801F078FB7221174801F0F9
:10B7B0006DFB1548FEF77EF93468A64218D0CCB16F
:10B7C0002046C4F88C806761FFF7DAFC04F11800AA
:10B7D00000F07EF92046FFF7AFF80B48FEF75CF962
:10B7E00050B90A49F0220A4801F057FBF021DDE781
:10B7F0000025F2E72546F0E789F31188BFF36F8F44
:10B800002846BDE8F88300BFFC1A0020C4FC0000F5
:10B8100005FA0000D3B5DDE90667089CCDE90067AD
:10B82000FFF780FB1CB1034B9B685B69236002B090
:10B83000D0BD00BFBC1A00202DE9F84306460F46D4
:10B8400090464FF02003EFF3118983F31288BFF382
:10B850006F8F1948FEF712F940B91849722218483B
:10B8600001F01BFB7221154801F010FB1248FEF796
:10B8700021F93468A64215D100250F48FEF70CF9CE
:10B8800098B90E49F0220E4801F007FBF021EAE7D3
:10B8900041462046B84705460028EED17368A342CA
:10B8A000EAD02468002CF3D1E6E789F31188BFF3CE
:10B8B0006F8F2846BDE8F883FC1A0020C4FC000006
:10B8C00005FA000008B50648064A0749121A03F0AF
:10B8D00053FABDE80840054A0549064803F04CBA4A
:10B8E00000000020100400200015010000000000EE
:10B8F0000015010000000020034B1B680BB9FAF78C
:10B9000085BD0020704700BF001B002010B50E4B06
:10B910001C689C4204D1FFF7EFFF6FF0004010BDA0
:10B92000FFF7EAFF002CF8D0D4E904321B1A62EBCF
:10B93000E072B3F1004F72F10001EEDA002AACBF01
:10B9400018460020EBE700BF5002002030B570B170
:10B950000B4B5B6898420AD0036843B1D3E90421DA
:10B96000D0E90445121941EB0501C3E90421D0E9EE
:10B97000003213605A600023C0E9003330BD00BFBD
:10B9800050020020B3F1FF3F08BFB2F1FF3F2DE9A5
:10B99000F047044692461D4600F08B80066846B18B
:10B9A000454946486E2201F078FA6E21424801F07E
:10B9B0006DFA81604FF02003EFF3118783F3128853
:10B9C000BFF36F8F3E48FEF759F838B93D497222F0
:10B9D0003A4801F062FA72213A48E8E73848FEF73F
:10B9E00069F8BAF1FF3F75F1FF3323DA6FF0010315
:10B9F0003549D1E900209B1A4FF0FF3262EB00007D
:10BA0000B3EB0A0360EB0500012B70F1000201DAD1
:10BA100001233046C4E904302C4B1A68D3F804C023
:10BA20009A4218BF164686B9C4E9003CCCF80040DB
:10BA30005C601CE0FFF760FF1AF1010845F10005AA
:10BA400018EB000345EBE070E4E7D6E90415D4E910
:10BA500004208A4270EB050E1EDA891A726865EBC3
:10BA60000005C6E90415C4E90062146074601A6830
:10BA70009A4206D0944204D1FFF748FF0021FAF71A
:10BA800093FC0F48FEF708F878B90E49F0220B48EE
:10BA900001F003FAF0219FE7521A60EB05006645BA
:10BAA000C4E90420C0D03668BDE787F31188BFF32E
:10BAB0006F8FBDE8F08700BF5413010005FA000046
:10BAC000041B0020C4FC0000901000205002002045
:10BAD00038B504464FF02003EFF3118583F3128845
:10BAE000BFF36F8F1448FDF7C9FF40B913497222A5
:10BAF000134801F0D2F97221104801F0C7F90E483D
:10BB0000FDF7D8FF236873B12046FFF71FFF00241D
:10BB10000948FDF7C1FF48B90849F022084801F07B
:10BB2000BCF9F021E8E76FF01504F1E785F311881F
:10BB3000BFF36F8F204638BD041B0020C4FC0000FB
:10BB400005FA00002DE9F84F04464FF02003EFF30B
:10BB5000118883F31288BFF36F8F4248FDF78EFF81
:10BB600040B941497222414801F097F972213E489B
:10BB700001F08CF9DFF8F890DFF8F8B03948FDF7FC
:10BB800099FFCBF80040D9F8004000264C4508BF8B
:10BB900000240027DFF8E0A0DBF80030DAE900211C
:10BBA000002C44D0D4E904504FEAE37CAB427CEB58
:10BBB000000E05DAED1A60EB0C00C4E9045036E023
:10BBC000AA1841EBE5712046C4E90467CAE90021DF
:10BBD000FFF7BCFE2348FDF75FFF30B92249F02292
:10BBE000224801F05AF9F021C1E788F31188BFF328
:10BBF0006F8F2046A36898474FF02003EFF311881A
:10BC000083F31288BFF36F8F1648FDF737FF0028C4
:10BC1000A7D01448FDF74EFFDBF80030D9F80040FC
:10BC20005B1B4C45CBF80030B6D1DAE9002100248B
:10BC30009A1841EBE371CAE90021CBF80040FFF705
:10BC400065FE2146FAF7B0FB0648FDF725FF002800
:10BC5000C4D088F31188BFF36F8FBDE8F84FFFF7AA
:10BC6000A1B800BF041B0020C4FC000005FA0000BE
:10BC700050020020001B00209010002070B54FF0F3
:10BC80002003EFF3118683F31288BFF36F8F1548FB
:10BC9000FDF7F4FE40B914497222144801F0FDF892
:10BCA0007221114801F0F2F80E48FDF703FFFFF78B
:10BCB00023FE0F4AD2E90045041945EBE075094817
:10BCC000FDF7EAFE30B90849F022084801F0E5F82E
:10BCD000F021E6E786F31188BFF36F8F20462946EF
:10BCE00070BD00BF041B0020C4FC000005FA00006A
:10BCF00090100020F8B504464FF02003EFF31187B1
:10BD000083F31288BFF36F8F4948FDF7B7FE40B940
:10BD100048497222484801F0C0F87221454801F0B4
:10BD2000B5F84348FDF7C6FE22685AB14048FDF712
:10BD3000B3FE002877D13F49F0223F4801F0ADF82B
:10BD4000F021EBE7D4E90A36581C46F1000102283D
:10BD500071F1000127D3012B76F10001BCBF012353
:10BD600016465D1E46F1FF3603F0DFF8013041F163
:10BD70000001401946EB0101012871F100014DDB82
:10BD800003F0D3F8013041F100016FF001024019D6
:10BD900046EB01034FF0FF31121A61EB030320461B
:10BDA0002649FFF7EFFD236B01332363236ADBB1E1
:10BDB0001F48FDF771FE0028BDD087F31188BFF33F
:10BDC0006F8F2046236A98474FF02003EFF31187C7
:10BDD00083F31288BFF36F8F1548FDF74FFE0028DD
:10BDE00096D01348FDF766FE54F8185FA5429DD023
:10BDF000002D9BD02846FEF71BFE00230C48C5F8FB
:10BE00008C30FDF749FE002895D087F31188BFF3E9
:10BE10006F8F2846BDE8F840FEF7D6BD6FF00102EF
:10BE20004FF0FF33BBE787F31188BFF36F8FF8BD87
:10BE3000081B0020C4FC000005FA0000F5BC00004F
:10BE4000B3F1FF3F08BFB2F1FF3F2DE9F047DDE955
:10BE5000086705461C46914698461CD0531C74F151
:10BE6000FF3309DB012A74F10003BCBF0122002467
:10BE700012F1FF3944F1FF382846FFF729FE00236D
:10BE8000C5E90A672B634A4643462846BDE8F047A2
:10BE90000249FFF777BDBDE8F08700BFF5BC0000A1
:10BEA0002DE9F74F002782460C469346009700F194
:10BEB0000C064FF02003EFF3118983F31288BFF3D0
:10BEC0006F8F3046FDF7DAFD40B9174917487222E7
:10BED00000F0E3FF7221144800F0D8FF3046FDF770
:10BEE000E9FDDAF8085050466C4004EA0B0205EA16
:10BEF0000B0855400E496A46CAF808500195FFF7ED
:10BF00009BFC009C44B12046C4F88C7065660021FF
:10BF1000246EFFF78DF9F5E730464946FEF7BEFD82
:10BF2000404603B0BDE8F08FC4FC000005FA0000F5
:10BF30000BF000002DE9F04F85B09046DDE90E2BA7
:10BF400005460C46EFF3058159B152EA0B0108D0C2
:10BF500037493848EE2200F0A0FFEE21344800F0C7
:10BF600095FF0292002C51D008F001030393FFF7D4
:10BF70005BFB05F10C0706464FF02001EFF3118A39
:10BF800081F31288BFF36F8F3846FDF777FD029A71
:10BF900038B929497222274800F07FFF72212648CC
:10BFA000DDE738460292FDF785FD18F0020F1CBF51
:10BFB0000021A960D5F8089008F00103029A09EA67
:10BFC000040163B18C420CD13846FDF765FDB8B968
:10BFD0001949F022174800F060FFF021DFE700293F
:10BFE000F2D152EA0B0115D13846FDF755FD002874
:10BFF000EED08AF31188BFF36F8F4FF0000903E092
:10C000008AF31188BFF36F8F04EA0904204605B054
:10C01000BDE8F08FC6E919485146CDE9002B3846F6
:10C020002A46FEF77FFF0028E7D1D6F86490EBE7B9
:10C030007813010005FA0000C4FC0000F7B50432D3
:10C0400005460C4617D20026002741F00401CDE931
:10C050000067FDF751FA70B140F8045B64B1013C30
:10C06000204209D005490648252200F016FF252167
:10C07000024800F00BFF002003B0F0BD9B1301004D
:10C0800005FA000003280A4608B501D9830708D03D
:10C090000C4942220C4800F000FF4221094800F000
:10C0A000F5FE431E034206D006494622064800F02C
:10C0B000F4FE4621F2E70146BDE808400348FFF7D9
:10C0C000BDBF00BF9B13010005FA00000403002060
:10C0D000014BC0F8803070470403002038B5044697
:10C0E0000D4602F078FE28B9064B9B68D3F88030E5
:10C0F0000BB938BD044B2A4621461846BDE83840E6
:10C10000FFF79CBFBC1A002004030020014800F088
:10C1100079BC00BFBF1301001FB50024084B4FF4CA
:10C120008062029302AB009306494FF0FF3306484A
:10C130008DF80C40FEF78CFA204604B010BD00BF0D
:10C14000E7130100206600209810002010B50A4C6B
:10C1500023681BB101232360002010BD00F0F4F818
:10C160000028F7D00138072803D8044B53F82000E3
:10C1700010BD034810BD00BF0C1B002030F90000AB
:10C18000FE8FFFFFBFF34F8F0549064BCA6802F4CD
:10C19000E0621343CB60BFF34F8F00BFFDE700BFEA
:10C1A00000ED00E00400FA0530B44FF0FE32002547
:10C1B0000B4B0C4C0C494968C3F80024C3F8042409
:10C1C000C3F80824C3F80C24C3F81024C3F81424BB
:10C1D000C3F81824C3F81C24C4F8005530BC084721
:10C1E000005084500040845058020020024BD0E997
:10C1F0000012C3E9001270475802002010B504462F
:10C2000050B1636813F0685F05D0064A934202D0CC
:10C2100000236260236010BD034B04485B689847AD
:10C22000EFE700BF2C5F5CA95802002050F9000026
:10C23000C8B143680D4A934213D013F0685F0ED023
:10C24000012350E8002F194640E8001C9CF0000F25
:10C25000F7D1012AF5D0BFF35F8F00207047044863
:10C260007047044870476FF4E04070472C5F5CA94A
:10C27000E98FFFFFEA8FFFFF034680B1426809495B
:10C280008A420AD012F0685F05D0BFF35F8F0022A8
:10C2900010461A60704704487047044870476FF4AE
:10C2A000E04070472C5F5CA9E98FFFFFEA8FFFFF3A
:10C2B00010B5044620B10023034A2360626010BD1C
:10C2C0000248FFF771FFF6E73A00003A78F90000FC
:10C2D00070B5194CD0F804C00668C4F804C0D0F892
:10C2E00008C0C068C4F808C0E06026600868134B46
:10C2F000134D18604868D5F818215860886812F006
:10C30000685F9860C8680969D860196112D0002315
:10C310000C4A05F58A70C5F81431C5F8B831C5F86E
:10C320001821C5F8BC21B047236805F5DC70BDE8CD
:10C330007040184770BD00BF7402002060020020EA
:10C34000241B00202C5F5CA908B500F011F830B95F
:10C3500000F010F838B9054AC2F80C0A08BD00F020
:10C3600037F8032008BD042008BD00BF00508450EA
:10C370000020704710B5114800F048F800B110BD1A
:10C380000F4800F043F80028F9D10E4C204600F089
:10C390003DF80028F3D10C4B0C481C6000F036F837
:10C3A00001460028EBD100F02DF8044608B12046E4
:10C3B00010BD00F03FF82046FAE700BFB4020020AD
:10C3C000B0020020AC020020A4020020A80200203D
:10C3D00008B5084800F024F8074800F021F807489D
:10C3E00000F01EF8064800F01BF8BDE8084000F019
:10C3F0000BB800BFB4020020B0020020AC02002045
:10C40000A802002000207047704700BF08B5034B0A
:10C4100002681B6810689847002008BD740200205D
:10C4200008B5034B02685B6810689847002008BD98
:10C430007402002070B5094C094D2069AB6898471B
:10C4400018B1084B08485B6898470021074AEB6819
:10C4500011602069BDE87040184700BF60020020ED
:10C4600074020020580200209CF90000201B0020CC
:10C470000CB430B589B005460C461C22002101A839
:10C4800002F075FE022305958DF806300D4B0293E0
:10C4900023462CB1B4F1004F28BF4FF00043013BBD
:10C4A0001D440DAA0C9901A80695009200F00CF805
:10C4B00014B1059B00221A7009B0BDE8304002B0EB
:10C4C000704700BF7FF100002DE9F04F43688BB04B
:10C4D00082461446019383789F0740F10981002525
:10C4E00091F80080B8F1000F00F00481B8F1250F39
:10C4F0000BD04B1C0293013551464046019B984797
:10C500000028C0F2F5800299EAE791F801808B1CBF
:10C51000B8F1250F0293EED0002399461F461F2F36
:10C5200039D8A8F12002102A0AD8DFE802F02B0936
:10C5300009310909092109090929092E09091F00D9
:10C54000A8F13002092A32D9B8F12A0F35D178067C
:10C5500054F8042B00F18180002AA7BF47F0200780
:10C560009146C2F1000947F0280701E047F00107B2
:10C57000029A12F8018B0292B8F1000FCFD132E08B
:10C5800047F0020747F00407F2E747F00807EFE734
:10C5900047F01007ECE77F2F18D8A8F13002092ADE
:10C5A000D2D87E0603D50A2101FB0323E0E70A2146
:10C5B00047F0200701FB0929DAE7B8F12E0F05D172
:10C5C000790600F1978047F04007D1E7B8F16C0F8A
:10C5D00032D02AD8B8F1680F35D0B8F16A0F39D007
:10C5E000B8F14C0F36D0002B48F02002B8BF27F02E
:10C5F0004007A2F16501BCBF0023BFB2022901D9E7
:10C60000612A2CD107344FF007089A4E24F0070412
:10C610000834380763D506EB080B37465F4560D111
:10C62000AE1BA9EB0809374454E1B8F1740F9FD051
:10C63000B8F17A0F9CD0D6E73A0648BF47F40077A6
:10C6400047F0800794E7FE0548BF47F4007747F4BA
:10C6500080778DE747F420778AE7134688E7A8F1CB
:10C660006301122900F2CF80DFE811F013004800C7
:10C67000CD00CD00CD00CD004800CD00CD00CD00D7
:10C68000CD00CD00DF00C700CD00CD001B00CD00E8
:10C69000960054F8043B4FF0010807AE8DF81C30AB
:10C6A000B7E754F8046B744A002E08BF164617F01B
:10C6B000400F304614BF19464FF0FF3102F008FD1D
:10C6C0008046A6E751462020019B984700280FDBB3
:10C6D000013FB845F6D34D44B946ED1B9BE74F46A5
:10C6E000F7E7514617F8010B019B9847002895DAA8
:10C6F0004FF0FF3528460BB0BDE8F08F390637D52F
:10C70000BA0549BF073454F8040B24F0070454F861
:10C71000080B27F010060028B6B232DA404246F481
:10C72000806607AF0A220393394602F0DDFC7206E9
:10C73000A0EB0707039B4BD526F00101BB4289B252
:10C7400040F38A80B8F1000F00F0828016F01002EA
:10C75000039240F083809B460E4640F2064116EA63
:10C76000010203921EBF00220BF1010B039238E07D
:10C77000FE0554F8040BCCD5B9054CBF40B200B24D
:10C78000C7E7CED17A06CCD5002BCAD127F0110746
:10C79000BEB21F469B46E0E727F010070A22BFB251
:10C7A0003E0646D5B80549BF073454F8040B24F0BB
:10C7B000070454F8080B002844D127F01606790620
:10C7C000B6B242D5002B40D127F01707BEB21F46A4
:10C7D00016F0100203924AD0B8F1000F45D107F1CC
:10C7E000010B31075CD4F20705D5D94575DDA9EBFE
:10C7F0000B02CB46D3195A464CE047F010071022E3
:10C800004FF07808CCE7782A06D1B8F1580F14BF5A
:10C8100010224FF40472C3E751462520019B98472C
:10C820000028FFF665AF023566E608224FF00008E3
:10C83000B6E7F90554F8040BBDD5BE054CBFC0B230
:10C8400080B2B8E727F00607BEB207AF03936BE7E5
:10C8500026F01106B6B29DE70E46B9E738460E46F9
:10C860001F4607F1020B0746BBE73846F9E7BB4610
:10C8700073E700BFF8140100F1140100CDE90432A0
:10C8800051462020019B98470028FFF631AF059ABA
:10C89000049B01329145F1DCA5EB0B0193468D1809
:10C8A000039A32B3039351463020019B98470028E6
:10C8B000FFF61EAF039BB8F1000F10D101355E19D2
:10C8C000711B8F4227DB3E460DF11C085EBB2F44D7
:10C8D000A9EB0B093D46B94436E03B468BE70235F0
:10C8E000514640460393019B98470028039BE6DA94
:10C8F000FEE640F206410E42E1D016F0020F05F1CD
:10C9000001055146039314BF2B20202016F4806F9D
:10C9100018BF2D20E7E751463020019B013598478D
:10C920000028CDDAE4E6013E5146019B18F80600E6
:10C9300098470028CADADBE651462020019B0135E2
:10C9400098470028FFF6D4AEA9EB0503002BF3DCD3
:10C95000D9E500BF2DE9F04706460D461746984633
:10C960002BB34FF0000A98F8004093F80190DB7861
:10C97000A40004EB430498F802301C444444CA4524
:10C9800009D339463046AC46D8F8042008F10803EC
:10C99000BDE8F047604714F8013B0AF1010A204660
:10C9A00048F82340F3F748FD01300444E7E76FF00F
:10C9B0001500BDE8F08770B50025024628461446EC
:10C9C00014F8013B0BB9184609E098B18D4207D124
:10C9D000702B04D0A3F140023A2A0BD8002070BD7E
:10C9E000A3F140063A2E05D853780135941C002B4C
:10C9F000E9D00020252B224608BF80F00100DEE7A9
:10CA000000F08CBD0FB407B504A951F8040B0191D7
:10CA100000F084FD03B05DF804EB04B07047836858
:10CA200000EBC101B3F5004F2CBF51F8220031F8E3
:10CA30001200704700EBC1018068B0F5004F2CBFB9
:10CA400041F8223021F812307047012208B5FFF773
:10CA5000E6FFD04008BD836800EBC101B3F5004F8D
:10CA600008D34B681AB143F001034B60704723F0C1
:10CA70000103FAE74B881AB143F001034B8070477A
:10CA800023F00103FAE753000122FFF7D3BF8368C5
:10CA9000B3F5004F34BF04230823C91A081AC0088D
:10CAA0007047B0F5004F34BF042308230731C8187E
:10CAB000C00870470A4608B50121FFF7F2FF0132AE
:10CAC000121AB2FA82F0C0F11F0008BD2DE9F04140
:10CAD000174603220E460446FFF7A1FF864205468D
:10CAE00007F104080AD10122E368BA4023EA0203ED
:10CAF000E360002344F82830BDE8F081314602228B
:10CB00002046FFF78CFF06462B46014603222046AF
:10CB100044F82850FFF78EFF334629462046BDE8EB
:10CB2000F0410222FFF786BF70B50D4686680446C5
:10CB3000FFF78BFFB6F5004F014601D3012809D05E
:10CB40003046FFF7B7FF294602462046BDE8704051
:10CB5000FFF7BCBF70BD2DE9F047054680688846E9
:10CB6000FFF7A8FF05EB800ADAF810900646B9F146
:10CB7000000F1BD00327DAF8104028462146FFF7A4
:10CB800064FF404507D3324621462846FFF79EFF03
:10CB90002046BDE8F087032221462846FFF73FFFE5
:10CBA000013FCAF8100001D08145E4D14FF0FF34B5
:10CBB000EB680136B4401C40EAD094FAA4F2B2FA11
:10CBC00082F2131D55F82340DEE72DE9F0411446AB
:10CBD0000E460546FFF739FFA4EB0608371B07444E
:10CBE000424631462846FFF74EFF3A462146284640
:10CBF000FFF749FF4346002221462846FFF71AFF68
:10CC000021462846FFF721FF3B46211800222846EF
:10CC1000BDE8F041FFF70EBF2DE9F041164604468E
:10CC20000F46FFF712FF314605462046FFF70DFF7E
:10CC300005442A4639462046FFF725FF314620465F
:10CC4000FFF703FF2B46311800222046BDE8F041D4
:10CC5000FFF7F0BE2DE9F0410D4686680446FFF768
:10CC6000F4FEB6F5004F014601D3012832D030461C
:10CC7000FFF720FF04EB80010E6996B90122E368FB
:10CC800082401343E36002220D612B462946204671
:10CC9000FFF7D0FE032229462046BDE8F041FFF70A
:10CCA000C9BE022231462046FFF7B9FE07460346B9
:10CCB00029462046FFF7BEFE03223346294620467A
:10CCC000FFF7B8FE39462B462046FFF7B3FE022297
:10CCD0003146E1E7BDE8F081F8B50C460546FFF7BF
:10CCE000B4FE2618012231462846FFF798FEC307F6
:10CCF0000CD431462846FFF717FF21462846FFF798
:10CD0000A4FE214622182846FFF786FF002221466E
:10CD10002846FFF784FE271A012239462846FFF7E6
:10CD20007EFE10EA020613D139462846FFF7FCFEC4
:10CD3000214632462846FFF772FE2246211A28462F
:10CD4000FFF76AFF214632462846FFF768FE241A9D
:10CD500021462846BDE8F840FFF77CBF70B506685D
:10CD600009B9002070BDB068B0EBD10FF9D9FFF759
:10CD700098FE014605463046FFF7EDFE04460028C2
:10CD8000EFD001463046FFF760FEA84209D925449E
:10CD9000214630462A46FFF718FF29463046FFF75E
:10CDA00059FF304601222146FFF755FEB368B3F51F
:10CDB000004F34BF0423082303EBC4031844D1E716
:10CDC000838B13F0070305D10368002B0CBF0020F1
:10CDD00003207047022B05D1C08BB0FA80F04009C8
:10CDE00080007047012B05D10368002B0CBF002089
:10CDF000052070470020704710B50C4600B111B9EE
:10CE00006FF0150010BD081D00F02FF80028F9D1B3
:10CE1000A368032BF6D9F3E72DE9F0410D46074649
:10CE20001946281D90461E46F4F7A6FD044638B163
:10CE30003346424629463846A446BDE8F04160479D
:10CE4000BDE8F08138B50C46054658B151B10B68C4
:10CE500043B14B6833B12022002102F088F9002051
:10CE60002C6138BD6FF01500FBE7034658B14268EE
:10CE700002F00302012A03D0032A04D1026812B18E
:10CE80000020986070476FF015007047404080F3B5
:10CE900011884FF0040002DF70470FB407B504A9F2
:10CEA00051F8040B0191FFF7ABFD03B05DF804EB03
:10CEB00004B0704710B50369024613F0080009D1A9
:10CEC0001368D4689C429BBF0120526AE31AD31AAC
:10CED0000B6010BD00231846FAE713B501A90446FC
:10CEE000FFF7E8FF20B1019BE268013B1344019387
:10CEF000606A019BC01A013802B010BD10B504462B
:10CF000050182269636AD20702D5013B184010BD50
:10CF1000984228BFC01AFAE710B504460A46C1680D
:10CF2000FFF7ECFF2369E06023F00803236110BDE5
:10CF300038B50D46026A8B00016843F002030446CF
:10CF400042F8213001682A46FFF7D8FFE36861689C
:10CF5000984208BF2369206008BF43F008032A46AF
:10CF6000204608BF2361FFF7C9FF606038BD2DE987
:10CF7000F74FC768066A9B4616F82730044603F049
:10CF80000303022B884691464FF0000306EB870A05
:10CF900009D01360CBF800302369990710D4002022
:10CFA00003B0BDE8F08F56F8271013608908CBF85E
:10CFB0000030F1D0FFF7B0FFE368A3600120EFE796
:10CFC000E3695046984716F827300546DA07E6D554
:10CFD00013F002031DD0B8F1000F03D041462046E4
:10CFE000FFF7A6FF61682A462046FFF787FFD4E9CE
:10CFF00002319942606004D12A462046FFF77EFF45
:10D00000A060A3682360E360236943F00803236101
:10D01000D4E7014620460193FFF77EFFE268A26055
:10D02000B8F1000F04D02168226A019B42F8213038
:10D0300005EB0802CBF8002021682046FFF75EFFD1
:10D040002369206043F00803236116F827306FF34B
:10D05000000306F82730C9F800A0AFE770B5044612
:10D060001546FFF74BFF2368834205D123692160F2
:10D0700023F00803236170BD226AAB0043F0020372
:10D0800042F8213061682A462046FFF737FF60608A
:10D09000F1E738B5036904465B0706D5856AFFF7F3
:10D0A0001CFF85422CBFA562A06238BD026983685F
:10D0B000120702D442689A4200D2426AD31A181E5A
:10D0C00018BF0120704770470023F5F705BF0369BB
:10D0D000D3F8700370476FF085007047084608B5B5
:10D0E000114618B101F045FA002008BD6FF00100AB
:10D0F000FBE7084608B5114618B101F032FA0020E6
:10D1000008BD6FF00100FBE713B50446084621692E
:10D1100001F55B71D1E8AF1F022909D15BB168B19C
:10D1200000931346D0E90912FAF74AFE02B010BD87
:10D130006FF00F00FAE76FF04C00F7E76FF00100B7
:10D14000F4E72DE9F8431C46DDE9085316469846F6
:10D150000F46006939B34AB344B36A1C43F1000374
:10D16000022A73F1000324D2226842B1D0F870334E
:10D170009A4204D96FF00B002360BDE8F88305EAFA
:10D18000080909F101035A425A412146384601F083
:10D19000F8F988B9B8F1FF3F08BFB5F1FF3FF0D00B
:10D1A0006FF06800E9E76FF00100E6E76FF0150047
:10D1B000E3E76FF08500E0E730600020DDE701F095
:10D1C00023BA38B50D46044600F140012846F3F76E
:10D1D00029F930B1284604F1B001F3F723F920B959
:10D1E0000120702303FB004038BD0020FCE702F55E
:10D1F0002A7102F52E7001F059BED0F8C030A0F5AA
:10D200002A70003B18BF012300EB8300D0F8940282
:10D2100001F059B9CB6833B1C86883681B6813B192
:10D220000022096918477047FCF758BED0E8EF3F65
:10D23000C0E8E21F002AF9D1704710B543680469BD
:10D240001B68C4F8683304F5D47001F0E9FD0021CF
:10D2500004F55B70FFF7EAFF084610BD2DE9F341C6
:10D2600017460D4679B30B786BB3D0F8A840A4F5F8
:10D27000CA7814344FF0FF324FF0FF332046FCF7EA
:10D2800077FD2A46404601A9F5F756F8019E2EB9CA
:10D29000204602B0BDE8F041FFF7C6BF58B12046B6
:10D2A000FFF7C2FF3B462A463146404602B0BDE882
:10D2B000F041F5F71FB82022294606F1400001F0A1
:10D2C000F7FE3766E4E702B0BDE8F081030103EB47
:10D2D0004003093323F0030303EBC0034843033047
:10D2E000083320F003001844400070472DE9F8434C
:10D2F00006464FF001090569D0F8048005F55B7713
:10D30000D7E8EF3F022B03D1C7E8E29F002AF7D10D
:10D3100041D195F86430002B40D195F8D430002BE2
:10D320003CD12846D5F8681300F06EF8044680BB5F
:10D3300071683669486983681B6943B32246896905
:10D340009847044628BB06F52E7649463046FDF739
:10D35000DFF9304605F5E076F7F71CF83046D8F8E7
:10D36000001000F08EF8044698B90146E8223046D5
:10D3700001F0FDFE21464FF4DE72284601F0F7FE73
:10D3800021463846FFF752FF2046BDE8F8836FF08C
:10D3900057040221F5E76FF07704F5E76FF00F040B
:10D3A000F2E710B50846029B114652B993F8642083
:10D3B0002AB90122184683F86420F5F7A9F800205D
:10D3C00010BD9A6E5468002CF9D0DA6EA047F6E7CB
:10D3D00010B50C46036903F55B73D3E8AF3F022B2E
:10D3E0000AD161B1084601F00FF9702200212046F0
:10D3F00001F0BDFE002010BD6FF00F00FBE76FF0E5
:10D400000100F8E701F000B938B50D46044660B1F7
:10D41000E03001F07AFA0DB1002038BDC4F8945123
:10D42000C4F89851C4F89C51F6E76FF01500F4E782
:10D430000268D2F8E03013B1D2F8DC101847704718
:10D440007047836913B9D0F888301970704701208C
:10D4500070478369012B04D1D0F888301878C0B2A6
:10D4600070470420704738B5C4003434204601F0BA
:10D47000F8FD054618B12246002101F078FE284645
:10D4800038BD38B504463022002101F070FE182264
:10D49000002104F1BC0001F06AFE1822002104F111
:10D4A000A40001F064FED4F8D800FAF73BFCD4F8ED
:10D4B000D400FAF737FC002304F13400C4F8A0309C
:10D4C000FAF744FBFAF798FBE36E04F140050BB161
:10D4D0002846984738220021284601F048FE0020BF
:10D4E00038BD03785B075FBF03684288C3F34A23F4
:10D4F00003EB12105DBF173020F0070080080020FA
:10D5000070470020704700F062BC0346D3E8EF0F7D
:10D51000421CC3E8E12F0029F8D170471FB5002352
:10D52000CDE902011A4619461846CDE90033F5F750
:10D5300065FD05B05DF804FB0120F5F793BA002006
:10D54000704770B5D2E901369B1B8B420C461546DD
:10D550000AD313680A460146981901F0E1FD2046F6
:10D56000AB682344AB6070BD6FF01B00FBE770B588
:10D570000E46154619460446120D18B9BDE870400E
:10D58000F5F770BA2BB11030C5F34A23184401F0F7
:10D59000C7FDC4E900562046BDE87040F5F758BC09
:10D5A000F8B506460D4614461F46214628463A461B
:10D5B000B047241A0544F8D1F8BD10B542680446B6
:10D5C000D2E9002381680068FFF7EAFF0022636860
:10D5D0001A6010BD0A2838B504460D4602D10D2048
:10D5E000F5F788FD29462046F5F784FD002038BD73
:10D5F000002008B5F4F7CEFB01460068F6F742B903
:10D6000000210120F6F73EB908B5F6F7F7F9BDE8B5
:10D610000840F6F7EFBA436F83F30B887047002397
:10D62000F5F75ABC40E800F313F4803FD8B208BFC6
:10D630006FF01500704730B50A894D890B684C684A
:10D6400002F01F0285B042EA451200938DF80820CF
:10D6500023F01F03621E134423F01F0307280393C4
:10D6600004D905B0BDE83040F6F7E0BE6946F6F7EC
:10D67000C3FE05B030BD08B5D1E90431984700209C
:10D6800008BD7047416A49680968F7F71BB9FCF79C
:10D690001DBD8388C2888168D21A03685B1AD01ABC
:10D6A000704738B50D4614461146F7F72DFA224655
:10D6B0002946BDE8384001F033BD10B50C460121C4
:10D6C000F7F722FA047010BD4FF02003EFF3118238
:10D6D00083F31288BFF36F8F036803F0C00343F036
:10D6E0000203036082F31188BFF36F8F7047F8B5B0
:10D6F000069F0469C9B24FF02005EFF3118685F348
:10D700001288BFF36F8F0C2569430C44D4F88850FE
:10D7100005F0070CBCF1010F0CD1C4F8887086F33A
:10D720001188BFF36F8FC4E9202343685B58984783
:10D730000020F8BD05F0C005AF4286F31188BFF3A5
:10D740006F8F0CBF6FF077004FF0FF30F1E713B52C
:10D7500080240094FFF7CBFF02B010BD0069CBB26C
:10D7600000EB4310002110470320F9F72FBB0220E4
:10D77000F9F72CBB0020F9F729BB0320F9F79CBB74
:10D780000220F9F799BB0020F9F796BB1046FCF789
:10D79000F5BC8022F7F70CBA436800205B681B6970
:10D7A0000B607047436802EA01005B6821EA0201EE
:10D7B00098600020D9607047436800205B689960DA
:10D7C0007047436800205B68D960704743685A68B7
:10D7D000536821EA03000B4090600020D36070473B
:10D7E00010B500690F299FBF00EB810440F821208C
:10D7F0002364002088BF6FF0150010BD0020704723
:10D800001020704730B543681360057A446804EB14
:10D81000C504A34202D36FF0010030BD5C798C4295
:10D8200001D00833F0E70020F7E72DE9F04F154667
:10D8300083464FF0010985B000EB8108D84503D13C
:10D84000002005B0BDE8F08FDBF8003003F07F0466
:10D85000C3F343277F2C4FEA134308BF4FF0FF3435
:10D86000222B00F2A580DFE803F012222A422D3499
:10D8700042A3A3A3A34575A3A3A3A3A3A3A3A3A365
:10D8800078838689A3A3A38C9295989B9E00C5F864
:10D890000C45611C1AD003A80394F7F72FFE01264C
:10D8A000039B09FA03F383604FF0010A2BE0C5F8EC
:10D8B0001445631C0AD000264FF0000A23E0C5F887
:10D8C0000845E6E7621CC5F808456FD10BF1040B6B
:10D8D000B4E7631CC5F80C45F8D0012603A80394EF
:10D8E000F7F70CFE039B09FA03F3C360DCE7C5F806
:10D8F0001045DEE7C5F80845002FDAD1661CE5D0F3
:10D9000000260627B246DBF8003003A803F40051D6
:10D9100000291CBF01264FF0000A01930394F7F77A
:10D92000EDFD0399019B00EB8100D0F80012C3F3D9
:10D93000C11421F443313B0243EA840321F44371CF
:10D9400043EA0A0321F003010B4343EA4603C0F80C
:10D950000032BBE7C5F80C45CEE7C5F86045601C52
:10D96000DBF80030B2D0C3F38033002BB5D092E7A0
:10D97000C5F86445F3E7C5F86845F0E7C5F86C45B8
:10D98000EDE7C5F82445621CA0D0012694E7C5F850
:10D9900028457EE7C5F83045F5E7C5F83445F2E798
:10D9A000C5F83845EFE7C5F83C45ECE7002695E7B4
:10D9B0006FF0850045E70B460269D2E9010183E873
:10D9C00003000020704743681B68D3F88004C3F845
:10D9D0008004704710B544682368C3F84415C3F841
:10D9E00048250022C3F82021D3F82011C3F858217C
:10D9F000D3F858216268D20611D50269D2682AB1DB
:10DA0000D2F8C01041F00101C2F8C01008214268EC
:10DA10001268C2F800154FF48002C3F804230122F3
:10DA20009A6010BD0369DA6813680BB15268184731
:10DA3000704770B586B0066904460D461422002171
:10DA400001A801F094FB02238DF80430F36820460E
:10DA50009A6D1B6E01A9CDE903350292FFF7E2FF33
:10DA600006B070BD70B50E6805460C4686B07EB136
:10DA70001422002101A801F07AFB042328460DEBB3
:10DA800003018DF804300296FFF7CCFF00232360DA
:10DA900006B070BD10B586B004461422002101A85E
:10DAA00001F065FB0523204601A98DF80430FFF73E
:10DAB000B9FF06B010BD70B5436805691B684FF02B
:10DAC0002000EFF3118680F31288BFF36F8FEC68AC
:10DAD000A06D98B1606EA0B96166EC68A266C3F8EB
:10DAE0003415C3F83825D3F8002242F02002C3F8D9
:10DAF000002286F31188BFF36F8F70BD6FF00C00AA
:10DB0000F7E76FF00F00F4E70369D86820B1016010
:10DB1000DB6800205A6070476FF08500704710B5D1
:10DB200002694368D0681B6860B9D3F8104164B1DA
:10DB3000926912780A70C3F81001D3F810210122FB
:10DB40001A6010BD6FF08500FBE74FF0FF30F8E77B
:10DB500038B5436805691C68EB689A6DD2B15B6E95
:10DB600053B1D4F8003223F02003C4F8003200236C
:10DB7000C4F84C31D4F84C31E868803001F028FA10
:10DB80000020EB6883F8CA000123EA6882F8CB30F2
:10DB9000636038BD6FF00D00FBE708B5C368DA6855
:10DBA000D969521A0FD0082A28BF08225A61C368BF
:10DBB00099691961C3689868D9690144986901F045
:10DBC000AFFA012008BD1046FCE773B5066814469D
:10DBD0000B46D6F83C55F1B10021184601F0C7FAC2
:10DBE00003460146C6F8341500210120C6F8384521
:10DBF000C6F81011D6F81021F062D6F810010028EE
:10DC0000FBD0C6F81011D6F81021D6F83C052BB978
:10DC1000C0B202B070BD05246946E3E78542F7D182
:10DC20001A19934201D10020F3E713F8011B0029D0
:10DC3000F7D0EDE770B5044602694FF02003EFF32B
:10DC4000118683F31288BFF36F8FD068D0F8C0308D
:10DC500023EA0103C0F8C030D568D5F8C03073B9E5
:10DC6000022907D10522606805F1C401FFF7ADFF65
:10DC700085F8C900002263681B68C3F8002586F395
:10DC80001188BFF36F8F70BD02680346D2F8580148
:10DC900040B95B689B0706D4D2F82001003818BF52
:10DCA000012070470120704710B504464068FFF717
:10DCB000EBFFCB6818B9012283F8CD2010BD0022FC
:10DCC00083F8CD204FF0FF32CB682046C3F8BC204C
:10DCD000CB68BDE81040D3E90412FFF77BBEF8B56E
:10DCE000446BE36893F8CE3003F0FF0713BB1022B8
:10DCF000266873681B68C3F80823E368D3F8B82064
:10DD0000D96E91421FBFDA66E3685A6FDA67E3683B
:10DD1000D3E91B21521A002A15460CDAC3F8B810B1
:10DD2000E368D3E9170181420BD8102273681B689E
:10DD3000C3F80423F8BDD3E9170102EB010C8445B5
:10DD400004D9451A002DF0DD012705E0002AECD0AA
:10DD5000D3E91E128A4212DA29463046FFF769FEDD
:10DD6000E268136E2B441366E268136F2B4413674B
:10DD7000002FDAD0E068803001F02AF9D5E7521A96
:10DD8000DA67D2E738B5426803691568DA689168DE
:10DD900051B1002482F8CD40D868203001F018F944
:10DDA00001232046EB6038BD6FF00D00FBE7436BAD
:10DDB0001868FFF7E7BF002200F150039B009BB2F9
:10DDC00003F1502303F580331A601B68704708B5D0
:10DDD000F8F70AF908BD70B504460E461546FCF77B
:10DDE000D3FEC4E904652046FCF7C8F9BDE87040DD
:10DDF000FCF716BF10F1780F21D010F1770F0FDA72
:10DE000000F2D773062B20D800F2D57004281CD856
:10DE1000DFE800F0181B031818006FF015007047BA
:10DE200010F14D0F13D010DB10F1160F0FD0431D62
:10DE30000DD00028ACBF00206FF0040070476FF0D9
:10DE4000710070476FF00B0070476FF0040070476F
:10DE50000023F5F741B8436893F83C300BB9F8F765
:10DE60004BBC084601F0F6B840682430012101F0AF
:10DE7000EAB8FEF76BB908B5F5F7DAFBF5F7C0FCC1
:10DE8000BDE80840FEF762B9004700F064BF38B54E
:10DE900004461546F8F73EFE29462046BDE83840C0
:10DEA000F8F74CBEF9F77AB843090AD0012B0BD129
:10DEB0004FF6FF7300F01F0023FA00F000F001009E
:10DEC00070474FF0FF33F5E70020704708B5014673
:10DED000F9F7A8F810B10846F9F78AF800F0010040
:10DEE00008BD2DE9F3411746DDE90858019001A866
:10DEF0000C461E46F9F70CF9019B391E18BF01218B
:10DF000000EB8300231E18BF0123002E43EA4103C8
:10DF100014BF0C210021002D43EA010314BF4FF46C
:10DF200070610021B8F1000F43EA010314BF4FF400
:10DF300040310021D0F800220B4322EA030304B150
:10DF400024780FB13F787F001C430EB13678B600BD
:10DF50003C438DB1297809023443B8F1000F03D056
:10DF600098F800804FEA0848214341EA0801C0F8C8
:10DF7000001202B0BDE8F0812946EDE71FB50DF1B2
:10DF80000F03019300238DF80F101A4619460093D2
:10DF9000FFF7A7FF05B05DF804FB37B50C46154643
:10DFA00090B1037883B179B10B786BB162B101A9FB
:10DFB000F9F780FD50B9019883684BB12A46214694
:10DFC00003B0BDE8304018476FF0150003B030BD16
:10DFD0006FF01200FAE72DE9F04389B0109E044675
:10DFE000894690460021202268461F46129D01F076
:10DFF000BEF81F2E97BF01234FF0FF33B34003F14C
:10E00000FF332361119BC4E90098C4E90276636180
:10E01000183445B10FCD0FC495E80F0084E80F0008
:10E0200009B0BDE8F0836D46F4E773B50468661C7B
:10E0300031D08568A9422ED264182CD05E18AE4229
:10E0400088BF6B1A056A35B100930523A8470346BC
:10E05000184602B070BDBFF35B8F1946A41A1019A1
:10E0600019B140EA0205AD070AD103290DDC0138D8
:10E0700011448A42ECD010F8014F02F8014BF8E746
:10E080000078013902F8010BE9E750F8044B043934
:10E0900042F8044BE9E76FF02103D9E773B5046850
:10E0A000651C32D08568A9422FD264182DD05E1825
:10E0B000AE4288BF6B1A456ACDB100930523A847CD
:10E0C00002B070BD12F8015B013905701546A01849
:10E0D00019B140EA0206B607F4D103290ADC013D72
:10E0E000014488420CD1BFF35B8F1846E8E719461C
:10E0F000A41AEBE755F8042B043940F8042BECE79D
:10E1000015F8012F00F8012BEBE76FF02100D7E79E
:10E1100073B51C46036815465A1C29D08268914283
:10E1200026D25B1824D066189642866A88BF541A95
:10E1300036B105232A460094B047204602B070BD90
:10E14000184622464AB9294601F011F8BFF35B8F01
:10E15000F3E700F8015B013AF4E78307F9D14FF0E8
:10E1600001336B43032AEEDD40F8043B043AF9E740
:10E170006FF02100E2E70020704710B4046B024604
:10E180000B4684B9C1681F2998BF23FA01F441687E
:10E1900061B18068834209D21069184051F8243077
:10E1A000184410BC7047234610BC18474FF0FF308E
:10E1B000F7E770B5436B05460E46E3B90469621C88
:10E1C00009BF43680C401C680C1B21462846FFF71A
:10E1D000D4FF864207D02B6901331C44AB689C42B4
:10E1E000F3D34FF0FF342868431C07D0AB68A34239
:10E1F00004D9204470BD98470446F4E70020F9E7AD
:10E2000030B5059CC4E90002039A21811989E260B6
:10E21000049A6181A1842261D3E9002502EB0113F4
:10E22000C4E905128A1CE36103EB42036A1C134430
:10E230006D422B402362836953B90139A2698B4235
:10E2400002EB031206DB002393736FF07F03D3739B
:10E25000002030BD0133D381F0E72DE9F04FB0F855
:10E260002CA004465546002685B002EB03089146D3
:10E270000E9A00EBCA031FFA88FB5A63A3F838B062
:10E2800008F1FF3283690F1D0192B0451ADCA38C9F
:10E29000A585A3EB0B03A384E36961895A8801393F
:10E2A0000A4003EB4203A3F804A0BFF35B8F0020F6
:10E2B000E269538801335380E38C0133E38405B072
:10E2C000BDE8F08FA06A2A0157F8041C03EB05157E
:10E2D000029303680392C91A83680837994228BFDA
:10E2E0004FF0FF31FFF749FFDDE90232985000227D
:10E2F0006A6057F8082CAA60019A9642ACBF0022C7
:10E300000122B145D8BF42F00202AA810136ED894F
:10E31000BBE7F0B550B3056AC48D6B88A34230D01B
:10E32000631CC3854389BFF35B8F013B1C4005EB36
:10E33000C4056B689EB209B1AD680D60D0F818C015
:10E340009BB20CEB031100EBC3031D8F878C2F4492
:10E35000013D87841D878D896F070ED5858DCD8101
:10E3600000218685586B596302B11480F0BD1D8F62
:10E37000C989013D0CEB01111D878D89ED07F6D48C
:10E38000ECE70020F2E7836903EB0113986870471C
:10E3900070B5BFF35B8F0D46C1691646038E4A8880
:10E3A00004469A4216D05A1C02864289013A13400A
:10E3B00001EB43018A882A8093B282691B01D158FC
:10E3C000806AFFF7F6FE2A88A36903EB02139B68B5
:10E3D000336070BD0020FCE710B5026893691269D4
:10E3E000920017D543B9C38DC26941694489013B85
:10E3F0001B1B02EB4102938003689B69012B08D130
:10E40000038E026A41694089013B1B1A02EBC1027B
:10E41000938010BD23B9C269138843F001031380B0
:10E4200003689B69012B01BF026A138843F0010353
:10E430001380EEE710B5BFF35B8F036804461A69DB
:10E440009B6912F0005F1AD07BB9C369026A5B88CE
:10E450004169013B02EBC10292889B1AE28C9BB29C
:10E460009A4214D80023E38410BD012BFAD1036A29
:10E47000C2695B884169013B02EB4102ECE763B989
:10E48000036A1B88DB4303F00103002BEAD02369F6
:10E49000002BE7D020469847E4E7012BE2D1C3697F
:10E4A000EFE7C369028E598891420AD04189013948
:10E4B0000A4003EB42039A88836903EB02139868CE
:10E4C000704700207047BFF35B8FC36803B11847E4
:10E4D00070474FF0FF324FF0FF33FBF795BE70B53A
:10E4E0000446056A05F158063046FFF7F2FF636AF5
:10E4F000A3F580637F2B0BD801225909483503F01F
:10E500001F039A4055F8213023EA020345F82130D1
:10E51000D4E90D124A60616B04F134031160C4E95F
:10E520000D33002323623046BDE87040FBF726BE62
:10E5300030B58DB0456A04460B912022014602A8F1
:10E540000A9500F0B5FD282301222946CDE90032C5
:10E550002046352202ABF9F71DFC00EAE0700DB051
:10E5600030BD28B1006A18B111B1436F03B118472B
:10E57000704728B1006A18B111B1836F03B1184711
:10E58000704728B1006A18B111B1C36F03B11847C1
:10E59000002070472DE9F8430646884617469946FD
:10E5A0000468A64201D1002520E07A1CA4F13405BC
:10E5B00002D06B6ABB4219D0B8F1000F22D02022E2
:10E5C0004146284600F062FDE0B9B9F1FF3F02D0B4
:10E5D000AB6A4B450AD07B1C0BD02468B442E2D016
:10E5E00054F8103CA4F134059F42E8D12846BDE818
:10E5F000F883AB6A0133F9D02468B442D3D0A4F1D4
:10E600003405D9E72468CCE710B5044690B1036A15
:10E6100083B102784AB193F8883033B1436AB3F5D5
:10E62000806F02D30121FFF783FF2046BDE8104031
:10E63000FFF755BF10BD51F8083C43F0004341F8C7
:10E64000083C70477047FBF799BD4FF0FF324FF021
:10E65000FF33FBF7D9BDF8B50C46054651F8086CF9
:10E6600000F158073846B6B2FFF7EFFF24F8086C00
:10E67000D5F8B020A4F1100344F80C2C05F1AC023D
:10E6800044F8102CC5F8B03054F80C2C3846136000
:10E69000FFF7D9FF0020F8BD2DE9F041056A282ACF
:10E6A0000F46D5F8A40088B026D101688468791A8D
:10E6B000A14228BF4FF0FF3120236A46FFF7B5FC87
:10E6C00005F15806D7F820803046FFF7BEFF4346D5
:10E6D0004FF0FF3269462846FFF75CFF7B6A04462D
:10E6E000DB0719D560B93046FFF7ADFFEB6E1BB104
:10E6F0004246694628469847002008B0BDE8F081A8
:10E700004FF0FF3383623046FFF79DFF236B002BF2
:10E71000ECD020469847E9E720B93046FFF793FF51
:10E72000AB6EE4E7C0F828803046FFF78CFFE3E7E4
:10E7300030B4D0F898501346AD6925B930BCD0F844
:10E740009C00FFF7E6BD012D06D130BC0A46D0F88B
:10E750009C001946FFF71CBE002030BC70477FB5F7
:10E760000C461946D0F898309D695DB90094CDE902
:10E77000024201232A46D0F89C0002A9FFF76DFD52
:10E7800004B070BD012DFBD1D0F89C0004B0BDE8F1
:10E790007040F9F7E3BAF8B5044651F8086C00F197
:10E7A00058073846B6B20D46FFF74FFF3146D4F84A
:10E7B0009C00FFF7E8FD33460246A5F11001204614
:10E7C000FFF7CDFFD4F89C00FFF734FE3846BDE8D4
:10E7D000F840FFF738BF10B548B149B143688B42E4
:10E7E00006D382680468D21A5B1A4360A01810BD71
:10E7F0000020FCE72DE9F3470546D0F898000E46C7
:10E80000036A17469B689847430703D4002002B069
:10E81000BDE8F08743F69823002F18BF1F4605F187
:10E82000580805F1AC0A4046FFF70FFFD5F8AC4099
:10E83000D5F898305445D3F8189025D024B3D4E9AE
:10E840000023536022681A60C4E90044B9F1000F44
:10E850000ED1D5F88C3033604046FFF7F4FEBDF89A
:10E86000063004F11000A3603368103B3360CEE73C
:10E87000B9F1010FF0D12189D5F8A000ADF806104B
:10E88000FFF781FD3060E7E7B9F1000F2AD131468B
:10E89000D5F8A0000DF10602FFF73BFD0446002865
:10E8A000DAD1D5F8A0309B8C53B94046FFF7CBFEA8
:10E8B000002FABD021200021FCF78AFE013FB2E7F8
:10E8C000D5F88C10D5F8A800FFF785FF0446D5F8D9
:10E8D0008C30ADF8069033604046FFF7B4FE002C54
:10E8E000E6D0BCE7B9F1010FDFD13246D5F8A00080
:10E8F0000DF10601FFF74CFD0446EDE720B119B11B
:10E9000012B1C0E901220160704710B5044618B980
:10E9100010BD3438FFF778FE20688442F9D1002317
:10E92000C4E92733F4E7F9F77FBD08B5FFF7FBFF2C
:10E93000002008BD10B502601A44029B01298360C3
:10E940004FF00003C260038201D8436110BD18225A
:10E950004A43183A84184461835042698C1E94607B
:10E960004269022953604269D360426913741EBF31
:10E97000436918301860E9E730B1037C23B1C068FF
:10E98000B0FA80F0400970470120704708B542692D
:10E990001046FFF7F1FF08B102B1D16008BD08B51C
:10E9A00002464069FFF7E8FF38B11168D368994221
:10E9B00004D308211046FFF7E9FF002008BD38B551
:10E9C00004460D46FFF7EBFF40B123681B78B5EB1B
:10E9D000531F04D00A212046FFF7D8FF002038BD7E
:10E9E00042680260826801328260FFF7CFBF2DE982
:10E9F000F04104460D46904622B90E212046FFF70D
:10EA0000C5FF05E00029F8D0FFF7C9FF074618B990
:10EA100000273846BDE8F081A3680BB90321EDE774
:10EA2000236842461E78636001330021284606F0C1
:10EA30001F06236000F09BFB172E04D82E70A368DE
:10EA4000013BA360E5E7183EF2B2032A236807D82A
:10EA50000121B140884507D2013B05212360CDE764
:10EA6000013B07212360C9E7E0685A18904203D2AE
:10EA7000013B08212360C1E74B1E013D2268D25CA7
:10EA8000013B05F8012FF9D223680B442360D6E738
:10EA900038B50D4611460446FFF791FF80B10422B8
:10EAA0002046A918FFF7A3FF50B122682A60E36847
:10EAB0009B1A6A689A4204D908212046FFF790FF02
:10EAC000002038BD38B504460D46FFF7E1FF18B108
:10EAD00023686A681344236038BD70B50D46002171
:10EAE00004461646FFF76BFF30B1324629462046F2
:10EAF000BDE87040FFF77BBF70BD0222FFF7E2BFA9
:10EB0000FFF718BF30B1037C23B1C068B0FA80F0C2
:10EB1000400970470120704708B542691046FFF769
:10EB2000F1FF08B102B1D16008BD38B504464069B3
:10EB3000FFF7E8FF38B12368E568AB4205D3082149
:10EB40002046FFF7E9FF002038BD1F2A01D90E211A
:10EB5000F6E75D1C42EA411225601A70F4E770B5D1
:10EB600005460E46104619461446F9F7EBFC2246B8
:10EB7000034631462846BDE87040F9F7F9BC2DE957
:10EB8000F0470668D0F80CA0044656450D4691465D
:10EB900007D308212046FFF7BFFF00263046BDE817
:10EBA000F087D1F80480AAEB06039845F1D80F4608
:10EBB00057F8043B4BB104213846F9F7C3FC08F180
:10EBC000010846440644B245E3D304233A46494685
:10EBD0002046FFF7C4FF06460028DED020682968DB
:10EBE000884202D06A6800F0A8FA23686A68134471
:10EBF0002360D3E7082A73B5134605460C4605D9AA
:10EC00000521FFF789FF002002B070BD8E1816F9AC
:10EC1000012C002A0FDA0A4669460C46B24204D19A
:10EC2000012153B90E212846EBE712F8010BC0432E
:10EC300001F8010BF2E70021F3E722462846FFF72F
:10EC40008EFFE1E710B5144632B1BDE8104013461F
:10EC50000A460021FFF783BF0E21FFF75DFF204624
:10EC600010BD07B5042201910DEB0201FFF7C2FFB1
:10EC700003B05DF804FB0222FFF781BF07B5012353
:10EC80008DF807100DF107020721FFF768FF03B0A9
:10EC90005DF804FB1621FFF7F1BFFFF74BBE002321
:10ECA000F4F71AB90A4601460020FAF747B930B519
:10ECB0001C46FF23054691B00F91009303A813460D
:10ECC0000A460221FFF71CFFD4E90032284603A9B7
:10ECD000984711B030BD70B505460E46104600216C
:10ECE0001446FFF7D7FF40B1226B23683146284610
:10ECF000BDE870409B1AF9F7EFBC2846216BFAF784
:10ED0000E3F96FF00B0070BD38B50C4605460021E5
:10ED10002046FFF7BFFF216B30B122682846BDE8CF
:10ED20003840521AF9F718BD2846FAF7CDF96FF0B6
:10ED30000B0038BD096BF9F7A9BC002213B50446D6
:10ED40000B4600920221026BFFF7A7FF01226369C5
:10ED50001A7402B010BD08B1F3F7F2B8704740B1B1
:10ED6000C368587810F001001EBF1878B0FA80F020
:10ED70004009704700F0FBB900F0D2B910B400F1BF
:10ED80000C04C0E9034410BCF2F72ABBD0E90432FA
:10ED9000134313F003030CD18361C168994201D876
:10EDA00000207047816901331160016982610A4462
:10EDB000F3E76FF01500704710B5C0E90332002388
:10EDC0004161C36183600446FFF7E0FF0028A8BFEC
:10EDD000C4E9004410BDEFF30580003818BF0120DE
:10EDE00070476FF05700704700207047FBF78CBEEC
:10EDF000C0E9032303FB02120023C0E90621C0E996
:10EE0000000041610162436280F8283083607047EE
:10EE100090F90E308B4201D0FCF7E0B8002070472B
:10EE200003460020C3E90033C3E90200704710B570
:10EE3000044630B10268930703D0446809B100F07A
:10EE400009F9204610BD012307B5009300230A46A7
:10EE50001946FBF7B5F803B05DF804FB002307B5CE
:10EE60000A4600931946FBF7ABF803B05DF804FBC4
:10EE70003AB18A4205D3C0E90212C0E9000000207D
:10EE800070476FF015007047012302688B4022EA3B
:10EE90000303036022FA01F000F00100704720B183
:10EEA000002298301146FCF769BC704710B5FBF79B
:10EEB00073FB041E09DD4FF02003EFF3118083F391
:10EEC0001288BFF36F8F00F002F8204610BD034692
:10EED00020B9EFF305820AB9F4F7B0BD83F31188C6
:10EEE000BFF36F8F70474FF02003EFF3118083F370
:10EEF0001288BFF36F8FFFF7EABF01211838FCF7C4
:10EF000097B938B5054600202C68A54200D004B951
:10EF100038BD2046FCF752F92046FBF755FD01208D
:10EF2000F2E708B5FCF7AAFE08BDFCF7A7BEB3F1EF
:10EF3000FF3F08BFB2F1FF3F70B504461D461646BD
:10EF400013D01A4315D06FF001024FF0FF33921B1C
:10EF500063EB0501002904DAFCF790FE821941EB0E
:10EF60000501C4E90021204670BD4FF0FF32114673
:10EF7000F7E70022FBE7B3F1FF3F08BFB2F1FF3F25
:10EF8000F8B5074616461C4610D054EA020311D0C5
:10EF9000FCF774FEB0420A46A14103460AD2F31AB6
:10EFA00064EB0204C7E900343846F8BD4FF0FF3384
:10EFB0001C46F7E70023FBE70023C0E9081200F135
:10EFC0001802C0E90622C0E90033036343637047B7
:10EFD00010B50446FCF77CFDB0B9636A0BB120465E
:10EFE000984704F11800FCF771F968B1FBF7ECFCE5
:10EFF0004FF02003EFF3118083F31288BFF36F8F7C
:10F00000BDE81040FFF763BF10BD10B5846E426EBF
:10F010004B68E40703EA02030BD59A420BD10123A4
:10F0200080F86C300B68036608601830FCF750FD00
:10F0300001E0002BF3D1002010BD0023C0E9000047
:10F04000C0E9023370474FF0FF32FCF729BF52008E
:10F05000FCF770BF20B1011F50F8040CFAF7CEBACC
:10F06000704701460420FDF70DB87047013902448E
:10F0700010B5904201D1002005E0037811F8014F4E
:10F08000A34201D0181B10BD0130F2E710B56AB1E0
:10F090000139841810F8012B11F8013F9A4203D16D
:10F0A000A04201D0002AF5D1D01A10BD1046FCE7CD
:10F0B00010B50139044632B111F8013F013A00F8A8
:10F0C000013B002BF7D1002100F051F8204610BD84
:10F0D0000246014410B58A42134603D01C7801321F
:10F0E000002CF8D1181A10BD930570B548BF22F452
:10F0F0000072044608464CBF072127212646B4FB70
:10F10000F2F502FB15432C46DBB2092B84BF5B18DA
:10F11000DBB2B24203F1300300F8013BEED970BD1F
:10F120000A44431E914200D1704710B511F8014BBB
:10F13000914203F8014FF9D110BD884210B501EB9F
:10F14000020402D98442234607D8431EA14208D0B4
:10F1500011F8012B03F8012FF8E7024401468A4217
:10F1600000D110BD13F8014D02F8014DF7E702443C
:10F170000346934200D1704703F8011BF9E7D1E938
:10F18000043293421EBF5A1C0A6118707047000077
:10F190000148006870470000C4160020EC0FFF7F94
:10F1A00001000000291E000000000000E92200000C
:10F1B00000000000514C000044F200002BE9000068
:10F1C00000000000B9940000000000007D960000DF
:10F1D00000000000DD5000006CF20000DD50000077
:10F1E00058F2000073DE00000000000085570000A8
:10F1F00080F200008D610000000000007D1E000014
:10F20000000000008928000000000000D952000022
:10F2100094F20000E94700000000000077DE0000E3
:10F220000000000019C10000000000003BD20000F7
:10F23000A8F200000D48000000000000651F00005B
:10F240000000000001070100C0F70000F0F7000017
:10F25000BA020020F0160020A30701000CF80000FD
:10F260002CF80000BC020020A4170020AF0701000A
:10F270001CF800002CF80000BE020020B01700208F
:10F280000309010064F80000A0F80000C202002099
:10F2900080010020970801007801002050F800004C
:10F2A000C0020020BC170020CDFE00002801002075
:10F2B00078F60000B80200203005002000000000B1
:10F2C00001D600000000000001D600000000000090
:10F2D00001D600000000000001D600000000000080
:10F2E00001D60000ED6E000089DE00000000000085
:10F2F00001D600000000000001D6000080F20000EE
:10F30000195B00000000000001D6000000000000B2
:10F3100001D600000000000001D60000000000003F
:10F3200001D600000177000089DE00000000000027
:10F3300001D600000000000001D60000000000001F
:10F3400001D600000000000001D60000000000000F
:10F3500001D600000000000001D6000000000000FF
:10F3600001D6000000000000316200000000000033
:10F3700001D600000000000001D6000000000000DF
:10F3800001D600000000000001D6000000000000CF
:10F3900001D600000000000001D6000000000000BF
:10F3A00001D600000000000001D6000000000000AF
:10F3B00001D600000000000001D60000000000009F
:10F3C00001D600000000000001D60000000000008F
:10F3D00001D600000000000001D60000000000007F
:10F3E00001D600000000000001D60000000000006F
:10F3F00001D600000000000001D60000000000005F
:10F4000001D600000000000001D60000D579000000
:10F4100089DE00000000000001D6000000000000AE
:10F4200001D600000000000001D60000000000002E
:10F4300001D600000000000001D60000000000001E
:10F4400001D600000000000001D60000000000000E
:10F4500001D600000000000001D6000000000000FE
:10F4600001D600000000000001D6000000000000EE
:10F4700001D600000000000001D6000000000000DE
:10F4800001D600000000000001D6000000000000CE
:10F4900001D600000000000001D6000000000000BE
:10F4A00001D600000000000001D6000000000000AE
:10F4B00001D600000000000001D60000000000009E
:10F4C00001D600000000000001D60000000000008E
:10F4D00001D600000000000001D60000000000007E
:10F4E00001D60000100400202022002000080000A7
:10F4F00055040000000000000000000000000000B3
:10F500000700000000000000000000008FFA00006B
:10F51000A0040020202A0020000800007D06000032
:10F5200000000000000000000000000007000000D4
:10F53000000000000000000085FB0000CE0B010071
:10F5400000000000D90B010000000000680C010061
:10F5500000000000BC10010003000000E4100100E6
:10F5600003000000970901000300000070FC000088
:10F57000030000002D0701000300000092FB0000C3
:10F58000030000005F09010003000000C1FE00004D
:10F590000300000019FF00000300000082FF0000CC
:10F5A00003000000A2080100030000008B05010019
:10F5B000030000008206010003000000B506010000
:10F5C000030000004506010003000000D50A010009
:10F5D00003000000F411010003000000B4FA000071
:10F5E000030000009EFD00000300000033FE000049
:10F5F000030000000D090100030000001CF70000DB
:10F600008C110020B500010001000000FFFFFFFF8A
:10F610002D7C000006000000000200000002000037
:10F6200000000000000000000000000000000000DA
:10F630000338FDD8704700009D0500000000000061
:10F640000100000031050000000000000100000082
:10F65000CCF80000E8000020A8F7000060F60000E9
:10F6600000040000206A0020A8F7000070F60000E7
:10F6700000040000E0AB002061230000EDD2000098
:10F68000412500008D250000D1D30000CFD000001F
:10F6900043D10000D7D0000009D10000F3D0000012
:10F6A000DDD00000000000000000000053D4000086
:10F6B00043D400004FD4000041D4000000000000FB
:10F6C00000000000000000000000000031D4000035
:10F6D000380900200001000039D50000E3D4000003
:10F6E00002000000353400000000000000000000AF
:10F6F0000000000000000000950001009D000100D6
:10F70000000000000000000000000000A500010053
:10F71000A9000100AD000100B10001006135000049
:10F72000553500004135000029350000000000007B
:10F730003535000000000000AD35000094110020B8
:10F74000EC1D00201000000000000000F1D50000BA
:10F75000700100206801002060010020000000000E
:10F76000580100206D3700003D3600009136000042
:10F770000537000000000020000000000600010026
:10F780000200000088F700000000000032060100BF
:10F7900006000000E0FF0F00000000203A06010014
:10F7A00021000000E0FF0620954800000000000056
:10F7B00083D60000414B0000294C000000000000EF
:10F7C000554D0000ED4D00000C07010075D70000FD
:10F7D00087D70000120701006FD7000081D7000013
:10F7E0001807010069D700007BD70000220701003D
:10F7F000B94D000093D700004FD700000000000073
:10F800007D4B00000000000000000000FFFF000032
:10F81000002884500000000001000000FFFFFFFFEF
:10F820000025845000000000000000007D51000011
:10F8300099D70000A5D70000B9D70000C3D70000B2
:10F84000CDD70000D14F0000514F00000000000054
:10F850002D540000E1D70000FDD7000001D80000C2
:10F860008D530000008000500200000000000000E6
:10F870007CF8000000000000000000000080005044
:10F8800088F800000100000090F80000040000006B
:10F89000140000001300020096010100950103000E
:10F8A00009DB00005555000085DD0000E55900002A
:10F8B000B7DA000051DB00001FDB00002559000013
:10F8C000C7D9000009560000B7D9000095670000AD
:10F8D0001D6700005966000057DE000000000000B0
:10F8E000FB0C01000E0D0100210D0100340D010083
:10F8F000470D01005A0D01006D0D0100800D010042
:10F90000F5FFFFFFA5110100B3110100C7110100B0
:10F91000D6110100E2110100A4F10000A4F10000E1
:10F92000F4F10000FCF1000044F2000044F2000099
:10F93000FF8FFFFFFF8FFFFFFE8FFFFFFE8FFFFF99
:10F94000FD8FFFFFFC8FFFFFFC8FFFFFFB8FFFFF93
:10F950006D757465785F667265652063616C6C6552
:10F96000642077697468204E554C4C207061726138
:10F970006D6574657200000043616E277420696EC6
:10F98000697469616C697A65206D757465782C207D
:10F99000776173204E554C4C0D0A0000436F756C17
:10F9A00064206E6F74206C6F636B20706F7765726C
:10F9B0002073617665206D757465780057455354E2
:10F9C0005F544F504449522F6E72662F73616D70B1
:10F9D0006C65732F626C7565746F6F74682F6469E2
:10F9E000726563745F746573745F6D6F64652F72A5
:10F9F000656D6F74655F6863692F7372632F6D61E6
:10FA0000696E2E6300415353455254494F4E204670
:10FA100041494C20402025733A25640A006E524625
:10FA200020525043206572726F72202564206F63EC
:10FA300075727265642E20536565206E52462052A1
:10FA40005043206C6F677320666F72206D6F726514
:10FA50002064657461696C732E0052504320696E96
:10FA6000697420626567696E006E72665F727063AA
:10FA70005F696E6974206661696C65643A2025640B
:10FA80000052504320696E697420646F6E65006493
:10FA9000746D5F7075745F7468726561645F6964CA
:10FAA000006863695F72656D6F74650064746D5F93
:10FAB0006570740073657269616C697A6174696FED
:10FAC0006E5F6C6179657200574553545F544F50B7
:10FAD0004449522F6E72662F73616D706C65732F7F
:10FAE000626C7565746F6F74682F64697265637496
:10FAF0005F746573745F6D6F64652F7372632F74C9
:10FB000072616E73706F72742F6863695F75617272
:10FB1000742E630043616C6C6261636B2064746D6E
:10FB20005F6863695F707574206973206E6F7420FD
:10FB300061737369676E65642E0055415254206489
:10FB40006576696365206E6F742072656164790003
:10FB5000554152542063616C6C6261636B206E6F1F
:10FB600074207365742025640055415254207278C6
:10FB7000206E6F7420656E61626C65642025640080
:10FB8000030400020474785F7468726561645F69DD
:10FB9000640064746D5F6863695F756172740057B7
:10FBA0004553545F544F504449522F7A65706879D9
:10FBB000722F6C69622F6F732F63627072696E743B
:10FBC000665F7061636B616765642E630028756EA4
:10FBD0007369676E6564292063686172202A2075E5
:10FBE00073656420666F72202525702061726775C9
:10FBF0006D656E742E2049742773207265636F6D76
:10FC00006D656E64656420746F2063617374206930
:10FC10007420746F20766F6964202A2062656361A6
:10FC2000757365206974206D6179206361757365F2
:10FC3000206D69736265686176696F7220696E20F4
:10FC40006365727461696E20636F6E666967757251
:10FC50006174696F6E732E20537472696E673A22F5
:10FC600025732220617267756D656E743A25640094
:10FC700063627072696E74665F7061636B61676501
:10FC800000574553545F544F504449522F7A657082
:10FC90006879722F6C69622F6F732F686561702E9F
:10FCA0006300574553545F544F504449522F7A656F
:10FCB000706879722F6C69622F6F732F6F6E6F6629
:10FCC000662E6300574553545F544F504449522F9A
:10FCD0007A65706879722F696E636C7564652F7AC6
:10FCE00065706879722F7370696E6C6F636B2E68C4
:10FCF00000574553545F544F504449522F7A657012
:10FD00006879722F6C69622F6F732F6E6F746966DA
:10FD1000792E6300574553545F544F504449522F36
:10FD20007A65706879722F6C69622F6F732F6D70AE
:10FD300073635F706275662E63004661696C65640B
:10FD400020746F207265626F6F743A207370696EF1
:10FD50006E696E6720656E646C6573736C792E2EA8
:10FD60002E0A00574553545F544F504449522F6D4B
:10FD70006F64756C65732F68616C2F6E6F72646948
:10FD8000632F6E7266782F68616C2F6E72665F6784
:10FD900070696F2E680021200B0A04050607736F37
:10FDA0006300574553545F544F504449522F6D6F71
:10FDB00064756C65732F68616C2F6E6F7264696314
:10FDC0002F6E7266782F68616C2F6E72665F697035
:10FDD000632E68004661696C65642073796E6368A0
:10FDE000726F6E697A65642052544320736574752E
:10FDF0007020286572723A202564290057455354B3
:10FE00005F544F504449522F7A65706879722F734E
:10FE10006F632F61726D2F6E6F726469635F6E72B4
:10FE2000662F6E726635332F73796E635F727463FB
:10FE30002E630073796E635F72746300496E76613E
:10FE40006C696420696E7374616E636500496E76D7
:10FE5000616C6964206261636B656E6420636F6EC0
:10FE600066696775726174696F6E00496E76616C60
:10FE7000696420696E7374616E63652C20656E64BD
:10FE8000706F696E74206F7220636F6E666967753C
:10FE9000726174696F6E00496E76616C6964206589
:10FEA0006E64706F696E7400456E64706F696E7415
:10FEB000206E6F7420726567697374657265640A79
:10FEC000006970635F73657276696365006970636A
:10FED00030007372616D302E73686D0067656E65FA
:10FEE000726963006C6F6767696E670057455354AA
:10FEF0005F544F504449522F7A65706879722F735E
:10FF000075627379732F6C6F6767696E672F6C6F9B
:10FF1000675F636F72652E63006C6F6700574553B0
:10FF2000545F544F504449522F7A65706879722F4C
:10FF30007375627379732F6C6F6767696E672F6C67
:10FF40006F675F6D676D742E6300574553545F5440
:10FF50004F504449522F7A65706879722F696E63E9
:10FF60006C7564652F7A65706879722F6C6F67673E
:10FF7000696E672F6C6F675F6261636B656E642E7D
:10FF800068006C6F675F6D676D74004D65737361BA
:10FF90006765202822257322292064726F7070659E
:10FFA0006420626563617573652069742065786398
:10FFB000656564732073697A65206C696D69746125
:10FFC00074696F6E202825752900574553545F5476
:10FFD0004F504449522F7A65706879722F73756259
:10FFE0007379732F6C6F6767696E672F6C6F675FCC
:10FFF0006D73672E6300574553545F544F50444907
:020000040001F9
:10000000522F7A65706879722F7375627379732FC6
:100010006C6F6767696E672F6C6F675F6F75747061
:1000200075742E63001B5B306D00257320005B250B
:1000300030386C755D20005B253032753A253032E2
:10004000753A253032752E253033752C25303375B1
:100050005D20003C25733E200025732F0025733A58
:1000600020002530327820007C00256300206D655B
:100070007373616765732064726F70706564202D9F
:100080002D2D0D0A1B5B306D001B5B313B33316D39
:100090002D2D2D20001B5B313B33316D001B5B315F
:1000A0003B33336D006572720077726E00696E6665
:1000B00000646267006C6F675F6261636B656E64AA
:1000C0005F727474006D757465785F696E69742011
:1000D00063616C6C65642077697468204E554C4C84
:1000E00020706172616D6574657200436F756C6438
:1000F000206E6F7420616C6C6F63617465206D7528
:10010000746578206265666F726520696E697469CE
:10011000616C697A696E670072302F61313A202014
:10012000307825303878202072312F61323A202003
:10013000307825303878202072322F61333A2020F1
:100140003078253038780072332F61343A202030EF
:100150007825303878207231322F69703A2020307B
:100160007825303878207231342F6C723A20203064
:1001700078253038780020787073723A20203078F3
:1001800025303878004661756C74696E6720696E39
:10019000737472756374696F6E20616464726573E1
:1001A0007320287231352F7063293A20307825303A
:1001B000387800574553545F544F504449522F7A72
:1001C00065706879722F617263682F61726D2F6339
:1001D0006F72652F616172636833322F6972715F6C
:1001E0006D616E6167652E63002A2A2A2A2A204DD6
:1001F0005055204641554C54202A2A2A2A2A0020AC
:1002000020537461636B696E67206572726F722030
:1002100028636F6E746578742061726561206D6902
:10022000676874206265206E6F742076616C696403
:1002300029002020556E737461636B696E672065B9
:1002400072726F72002020446174612041636365A3
:1002500073732056696F6C6174696F6E0020204D56
:100260004D46415220416464726573733A20307880
:100270002578002020496E737472756374696F6EFF
:10028000204163636573732056696F6C6174696F95
:100290006E002020466C6F6174696E672D706F6907
:1002A0006E74206C617A7920737461746520707249
:1002B00065736572766174696F6E206572726F72B4
:1002C00000574553545F544F504449522F7A65703C
:1002D0006879722F617263682F61726D2F636F721C
:1002E000652F616172636833322F636F7274657852
:1002F0005F6D2F6661756C742E63002A2A2A2A2A84
:1003000020425553204641554C54202A2A2A2A2A55
:10031000002020537461636B696E67206572726F91
:100320007200202050726563697365206461746196
:1003300020627573206572726F7200202042464100
:100340005220416464726573733A203078257800D6
:100350002020496D70726563697365206461746102
:1003600020627573206572726F72002020496E736F
:100370007472756374696F6E206275732065727232
:100380006F72002A2A2A2A2A2055534147452046BF
:1003900041554C54202A2A2A2A2A002020446976D2
:1003A0006973696F6E206279207A65726F00202010
:1003B000556E616C69676E6564206D656D6F7279ED
:1003C00020616363657373002020537461636B2045
:1003D0006F766572666C6F772028636F6E746578D0
:1003E000742061726561206E6F742076616C69643F
:1003F000290020204E6F20636F70726F63657373E6
:100400006F7220696E737472756374696F6E7300B6
:100410002020496C6C6567616C206C6F6164206F93
:1004200066204558435F52455455524E20696E74BC
:100430006F205043002020496C6C6567616C20750B
:100440007365206F66207468652045505352002004
:1004500020417474656D707420746F2065786563D5
:1004600075746520756E646566696E656420696E75
:10047000737472756374696F6E005265736572761A
:10048000656420457863657074696F6E2028005339
:10049000707572696F757320696E746572727570AC
:1004A0007420284952512000535053454C20696E06
:1004B00020746872656164206D6F646520646F6587
:1004C00073206E6F7420696E646963617465205077
:1004D0005350002A2A2A2A2A2048415244204641C1
:1004E000554C54202A2A2A2A2A002020427573209B
:1004F0006661756C74206F6E20766563746F722010
:100500007461626C652072656164002020446562DC
:100510007567206576656E740020204661756C7481
:1005200020657363616C6174696F6E202873656503
:100530002062656C6F772900415243485F455843FC
:10054000455054207769746820726561736F6E201E
:1005500025780A002A2A2A2A2A20446562756720FB
:100560006D6F6E69746F7220657863657074696F02
:100570006E202A2A2A2A2A002A2A2A2A2A20257391
:1005800020256429202A2A2A2A2A006D707500460F
:1005900061696C656420746F20616C6C6F63617459
:1005A00065206E6577204D505520726567696F6EC6
:1005B0002025750A00506172746974696F6E202578
:1005C000753A2073616E69747920636865636B2086
:1005D0006661696C65642E00496E76616C696420A1
:1005E000756E6465726C79696E6720726567696F94
:1005F0006E20696E64657820257500574553545FF9
:10060000544F504449522F7A65706879722F617245
:1006100063682F61726D2F636F72652F6161726302
:100620006833322F6D70752F61726D5F6D70752E2E
:100630006300464C4153485F30005352414D5F3098
:1006400000000000016E726635333430646B5F6EFB
:100650007266353334305F63707561707000574572
:1006600053545F544F504449522F7A6570687972E1
:100670002F7375627379732F6E65742F6275662E92
:1006800063006E65745F62756600574553545F542E
:100690004F504449522F7A65706879722F73756292
:1006A0007379732F6E65742F6275665F73696D70F1
:1006B0006C652E63006E65745F6275665F73696D4D
:1006C000706C6500574553545F544F504449522F46
:1006D0007A65706879722F647269766572732F63B8
:1006E0006C6F636B5F636F6E74726F6C2F636C6F94
:1006F000636B5F636F6E74726F6C5F6E72662E6396
:1007000000636C6F636B4035303030006866636C3B
:100710006B006C66636C6B006866636C6B313932BE
:100720006D006866636C6B617564696F00636C6F04
:10073000636B5F636F6E74726F6C00574553545FE9
:10074000544F504449522F7A65706879722F696E00
:10075000636C7564652F7A65706879722F6472694D
:10076000766572732F6770696F2F6770696F5F7539
:1007700074696C732E6800574553545F544F50444E
:1007800049522F7A65706879722F64726976657242
:10079000732F6770696F2F6770696F5F6E7266780D
:1007A0002E63006770696F4038343238303000672C
:1007B00070696F403834323530300074785F6D6165
:1007C000736B20746F6F2062696720286F722049F5
:1007D00050435F434F4E465F4E554D20746F6F2020
:1007E000736D616C6C290072785F6D61736B20743E
:1007F0006F6F2062696720286F72204950435F4302
:100800004F4E465F4E554D20746F6F20736D616C77
:100810006C2900456E61626C696E67206368616E69
:100820006E656C20776974686F75742061207265DD
:1008300067697374657265642063616C6C6261637F
:100840006B0A0053656E64696E6720646174612091
:100850006E6F7420737570706F7274656400525897
:10086000206576656E74206F6E20696C6C656761BB
:100870006C206368616E6E656C0052582065766509
:100880006E74206F6E2064697361626C65642063AE
:1008900068616E6E656C006D626F784032613030F9
:1008A00030006D626F785F6E7266785F69706300AA
:1008B0004661696C656420746F20616C6C6F636164
:1008C000746520505049204368616E6E656C005716
:1008D0004553545F544F504449522F7A657068799C
:1008E000722F647269766572732F73657269616CB9
:1008F0002F756172745F6E7266785F756172746570
:100900002E6300756172744038303030007561724A
:10091000745F6E7266785F756172746500574553D7
:10092000545F544F504449522F7A65706879722F42
:10093000647269766572732F74696D65722F6E7259
:10094000665F7274635F74696D65722E63005265D1
:1009500073657474696E672073797374656D00666E
:100960006174616C5F6572726F7200574553545FBA
:10097000544F504449522F6E72662F7375627379CB
:10098000732F6E72665F7270632F6E72665F727025
:10099000635F6F732E63004E52465F5250435F4F4A
:1009A0005300574553545F544F504449522F6E7271
:1009B000662F7375627379732F6E72665F727063E0
:1009C0002F6E72665F7270635F6970632E63006E74
:1009D000524620525043207472616E73706F72746D
:1009E000206973206E6F7420696E697469616C6927
:1009F0007A6564004661696C656420746F20616C7F
:100A00006C6F6361746520547820627566666572E8
:100A10002E00456E64706F696E74206572726F721D
:100A20003A2022257322006970635F7365727669CC
:100A300063655F73656E642072657475726E65645C
:100A4000206572723A202564004E6F207472616EC8
:100A500073706F7274207265636569766520636177
:100A60006C6C6261636B00495043207365727669F8
:100A7000636520696E7374616E636520696E697465
:100A800069616C697A6174696F6E206661696C6511
:100A9000643A2025640A0052656769737465726957
:100AA0006E6720656E64706F696E74206661696C34
:100AB0006564207769746820256400495043206587
:100AC0006E64706F696E7420626F6E642074696DFD
:100AD000656F7574006E72665F7270635F697063D4
:100AE0000000000001010100000100000057455313
:100AF000545F544F504449522F6D6F64756C657349
:100B00002F68616C2F6E6F726469632F6E726678E6
:100B10002F68616C2F6E72665F647070692E68005A
:100B2000574553545F544F504449522F6D6F64756D
:100B30006C65732F68616C2F6E6F726469632F6EC2
:100B40007266782F68656C706572732F6E72667846
:100B50005F677070695F647070692E6300574553FA
:100B6000545F544F504449522F6D6F64756C6573D8
:100B70002F68616C2F6E6F726469632F6E72667876
:100B80002F647269766572732F7372632F6E72664B
:100B9000785F636C6F636B2E6300574553545F54EB
:100BA0004F504449522F6D6F64756C65732F6861A7
:100BB0006C2F6E6F726469632F6E7266782F686136
:100BC0006C2F6E72665F636C6F636B2E68004E52A3
:100BD00046585F434C4F434B004E5246585F44507B
:100BE000504900574553545F544F504449522F6D5C
:100BF0006F64756C65732F68616C2F6E6F726469BA
:100C0000632F6E7266782F647269766572732F73C4
:100C100072632F6E7266785F6770696F74652E639A
:100C200000574553545F544F504449522F6D6F64E1
:100C3000756C65732F68616C2F6E6F726469632FBA
:100C40006E7266782F68616C2F6E72665F6770696E
:100C50006F74652E68000020303030303030303016
:100C600030303030303000014E5246585F475049E6
:100C70004F544500574553545F544F504449522FE9
:100C80006D6F64756C65732F68616C2F6E6F726425
:100C900069632F6E7266782F647269766572732F3E
:100CA0007372632F6E7266785F6970632E6300756E
:100CB0006E7265676973746572656420257320625E
:100CC00075730A00574553545F544F504449522F8F
:100CD0006D6F64756C65732F68616C2F6C69626DE4
:100CE0006574616C2F6C69626D6574616C2F6C69E1
:100CF000622F6465766963652E63006D6574616C4F
:100D00003A20656D657267656E63793A20006D659E
:100D100074616C3A20616C6572743A202020202046
:100D2000006D6574616C3A20637269746963616C0B
:100D30003A2020006D6574616C3A206572726F72A2
:100D40003A2020202020006D6574616C3A20776184
:100D5000726E696E673A202020006D6574616C3A8E
:100D6000206E6F746963653A20202020006D6574E1
:100D7000616C3A20696E666F3A20202020202000A6
:100D80006D6574616C3A2064656275673A20202055
:100D900020200025733A2066726565696E67206EB3
:100DA0006F6E2D656D7074792076697274717565DA
:100DB00075650D0A00574553545F544F50444952CE
:100DC0002F6D6F64756C65732F6C69622F6F706522
:100DD0006E2D616D702F6F70656E2D616D702F6C53
:100DE00069622F72706D73672F72706D73675F76B3
:100DF000697274696F2E630072785F76710074781F
:100E00005F7671004E53005465726D696E616C00BF
:100E100000000000000054545220524547474553FB
:100E20000001020203030303574553545F544F501C
:100E30004449522F6E7266786C69622F6E72665FDB
:100E40007270632F6E72665F7270632E63005472ED
:100E5000616E73706F7274206973206E6F74206995
:100E60006E697469616C697A65640066726F6D2081
:100E700072656D6F7465006F6E207265636569766B
:100E800065006F6E2073656E6400756E6B6E6F77B4
:100E90006E004572726F72202573207265706F72DA
:100EA0007465642025642C2067726F75702025732B
:100EB0002C206964203078253032582C20747970C9
:100EC000652030782530325800556E6B6E6F776E26
:100ED00020636F6D6D616E64206F72206576656E44
:100EE00074207265636569766564005061636B6543
:100EF0007420746F6F20736D616C6C00496E766145
:100F00006C69642067726F757020696400496E7641
:100F1000616C69642074797065206F66207061630C
:100F20006B657420726563656976656400496E76E9
:100F3000616C69642063747820696420696E207232
:100F400065636569766564207061636B65740054E0
:100F50006F20736D616C6C20696E697469616C6976
:100F60007A6174696F6E207061636B657400496E9D
:100F7000697469616C697A6174696F6E207061630C
:100F80006B657420646F6573206E6F7420636F6E81
:100F90007461696E2072656D6F74652067726F751C
:100FA0007020737472696400556E737570706F721F
:100FB0007465642070726F746F636F6C20766572F5
:100FC00073696F6E2E204C6F63616C20766572734F
:100FD000696F6E3A2025642C2072656D6F746520F0
:100FE00070726F746F636F6C2076657273696F6E69
:100FF0002072616E67653A202564202D20256400EB
:1010000052656D6F74652067726F757020646F65CF
:1010100073206E6F74206D61746368206C6F636100
:101020006C2067726F7570004661696C656420742E
:101030006F20696E697469616C697A652074726188
:101040006E73706F72742C206572723A2025640082
:101050004661696C656420746F2073656E642067F7
:10106000726F757020696E6974207061636B65744E
:1010700020666F722067726F75702069643A202550
:10108000642073747269643A202573004E6F742073
:10109000616C6C2067726F7570732061726520726D
:1010A0006561647920746F207573652E0041434B30
:1010B0002073656E64206572726F72004E52465FD7
:1010C00052504300556E68616E646C656420636FB6
:1010D0006D6D616E642073656E64206572726F72EF
:1010E000202564004E52465F5250435F43424F52A8
:1010F00000574553545F544F504449522F7A6570FE
:101100006879722F6B65726E656C2F6465766963A2
:10111000652E6300556E6B6E6F776E206572726F11
:1011200072003E3E3E205A45504859522046415496
:10113000414C204552524F522025643A20257320BD
:101140006F6E20435055202564004661756C7420F5
:10115000647572696E6720696E74657272757074F9
:101160002068616E646C696E670A0043757272650F
:101170006E74207468726561643A20257020282599
:10118000732900574553545F544F504449522F7AA6
:1011900065706879722F6B65726E656C2F6661740D
:1011A000616C2E63004350552065786365707469E7
:1011B0006F6E00556E68616E646C656420696E7454
:1011C00065727275707400537461636B206F76651D
:1011D00072666C6F77004B65726E656C206F6F7016
:1011E00073004B65726E656C2070616E6963006D93
:1011F00061696E006F7300574553545F544F5044FC
:1012000049522F7A65706879722F6B65726E656CC2
:101210002F6B686561702E6300574553545F544FC0
:10122000504449522F7A65706879722F6B65726EDF
:10123000656C2F6D656D5F736C61622E6300574541
:1012400053545F544F504449522F7A6570687972F5
:101250002F6B65726E656C2F7468726561642E63A6
:1012600000574553545F544F504449522F7A65708C
:101270006879722F6B65726E656C2F69646C652E70
:101280006300574553545F544F504449522F7A6579
:10129000706879722F6B65726E656C2F6D73675F06
:1012A000712E6300574553545F544F504449522F99
:1012B0007A65706879722F6B65726E656C2F6D75CB
:1012C0007465782E6300574553545F544F5044491A
:1012D000522F7A65706879722F6B65726E656C2F0C
:1012E00073656D2E6300574553545F544F50444906
:1012F000522F7A65706879722F6B65726E656C2FEC
:10130000776F726B2E6300574553545F544F5044B0
:1013100049522F7A65706879722F6B65726E656CB1
:101320002F73636865642E6300574553545F544FB1
:10133000504449522F7A65706879722F6B65726ECE
:10134000656C2F696E636C7564652F6B736368657C
:10135000642E6800574553545F544F504449522FF0
:101360007A65706879722F6B65726E656C2F74691F
:101370006D656F75742E6300574553545F544F501D
:101380004449522F7A65706879722F6B65726E6569
:101390006C2F6576656E74732E6300574553545FEA
:1013A000544F504449522F7A65706879722F6B659B
:1013B000726E656C2F6D656D706F6F6C2E63002A99
:1013C0002A2A20426F6F74696E67206E524620434E
:1013D0006F6E6E6563742053444B2076322E352E2B
:1013E00030202A2A2A0A00737973776F726B710092
:1013F00000202020202020202020282828282820E5
:1014000020202020202020202020202020202020DC
:101410002088101010101010101010101010101044
:101420001004040404040404040404101010101034
:1014300010104141414141410101010101010101FE
:101440000101010101010101010101011010101050
:1014500010104242424242420202020202020202D0
:101460000202020202020202020202021010101024
:10147000200000000000000000000000000000004C
:10148000000000000000000000000000000000005C
:10149000000000000000000000000000000000004C
:1014A000000000000000000000000000000000003C
:1014B000000000000000000000000000000000002C
:1014C000000000000000000000000000000000001C
:1014D000000000000000000000000000000000000C
:1014E00000000000000000000000000000000000FC
:1014F00000286E756C6C29002A666C6F61742A0076
:1015000000000000000000000000000000000000DB
:101510000000000000000000FF1D0020000000008F
:1015200000000000000000000000000000000000BB
:1015300000000000000000000000000000000000AB
:10154000000000000000000000000000000000009B
:10155000000000000000000000000000000000008B
:10156000000000000000000000000000000000007B
:10157000000000000000000000000000000000006B
:10158000000000000000000000000000000000005B
:10159000000000000000000000000000000000004B
:1015A000000000000000000000000000000000003B
:1015B000000000000000000000000000000000002B
:1015C000000000000000000000000000000000001B
:1015D000FFFF00000000000000000000000000000D
:1015E0000000000000000000A8F20000ACFA0000BB
:1015F00000000000000000000000000000000000EB
:1016000000000000000000000000000000000000DA
:1016100000000000000000000000000000000000CA
:101620000000000000000000000000000000072093
:101630000000010094F200000000000094F200009D
:101640000100000002000000000000000000000097
:101650000002000003D50000300300203A00000023
:10166000440300203A0000001C0300203A00000060
:101670006C0300203A000000FFFF0000FFFF0000A5
:101680000000000000C20100000103000000002073
:1016900000000000FE1D0020FD1D002000000000D5
:1016A0000090D003FFFFFFFF0000000000000000DB
:1016B000000000000000000000000000000000002A
:1016C000000000000000000000000000000000001A
:1016D000000000000000000000000000000000000A
:1016E00000000000000000000000000000000000FA
:1016F00000000000000000000000000000000000EA
:1017000000000000000000000000000000000000D9
:101710000000000000000000FF00000000000000CA
:1017200000000000DCFE000000000000397A00002C
:1017300000000000000000000000000000000000A9
:101740000000000000000000000000000000000099
:1017500050020020500200200000000085C100005F
:101760009C020020940200208C0200200000000057
:1017700084020020B1C20000FDC1000031C200009F
:1017800079C20000101B00203A00003A141B002010
:101790003A00003A181B00203A00003A1C1B0020B7
:1017A0003A00003AAC0200207002002068020020DB
:1017B0006402002060020020000000000000000021
:1017C0000000000000000000000000000000000019
:1017D0000000000000000000000000000000000009
:1017E00000000000000000000000000000000000F9
:1017F00000000000000000000000000000000000E9
:101800000000000000000000205E00200008000032
:101810000000000000000000000000001C03002089
:101820001C03002000000000000000000E0000006B
:101830003003002030030020000000000000000002
:101840000E000000440300204403002000000000BC
:10185000000000000E000000580300205803002084
:1018600000000000000000000E0000006C030020DB
:101870006C03002000000000000000000E000000CB
:101880008003002080030020000000000100000011
:101890000000000000000000000000009C03002089
:1018A0009C03002000000000000000000000000079
:1018B000B0030020B0030020000000000000000082
:1018C00000000000C4030020C4030020000000004A
:1018D00010001000010000000000000058F6000099
:1018E00020AA00200000000000000000000000000E
:1018F000F0030020F00300200000000010001000A2
:10190000000000000000000068F60000E0EB00208E
:101910002C19010000000000AFEC000038F60000B8
:1019200001000000AFEC000044F6000000000000E1
:1019300034190100000000005C19010010190100B9
:1019400030190100D000002050F600000000000017
:1019500000000000A1FA0000000000000015E015E2
:01196000E0A6
:020000040100F9
:10000000C83F0021BD5100013DDB000191510001BD
:100010009151000191510001915100010000000037
:10002000000000000000000000000000554A000130
:100030009151000100000000E949000191510001C7
:10004000E14A0001E14A0001E14A0001E14A000100
:10005000E14A0001E14A0001E14A0001E14A0001F0
:10006000E14A0001E14A0001E14A0001E14A0001E0
:10007000E14A0001E14A0001E14A0001E14A0001D0
:10008000E14A0001E14A0001E14A0001E14A0001C0
:10009000E14A0001E14A0001E14A0001E14A0001B0
:1000A000E14A0001E14A0001E14A0001E14A0001A0
:1000B000E14A0001E14A000153B94AB9002908BFE9
:1000C00000281CBF4FF0FF314FF0FF3000F00CB89C
:1000D000ADF1080C6DE904CE00F008F8DDF804E09D
:1000E000DDE9022304B07047704700BF2DE9F047F7
:1000F00086468C460846089E154674461946002BCF
:1001000040F0C1808542B2FA82F245D94AB1C2F1CB
:10011000200300FA02FC954094402EFA03F343EAD0
:100120000C0C4FEA154EA8B2230CBCFBFEF80EFBDC
:1001300018CC08FB00F943EA0C43994528D9EB1881
:1001400008F1FF3704D2994502D9A8F102072B44E0
:10015000A3EB0903A4B2B3FBFEFC0EFB1C330CFBA8
:1001600000F044EA0344A04214D92C190CF1FF33E7
:1001700004D2A04202D9ACF102032C44241A43EA6F
:1001800007401EB1D440002334607360BDE8F0879F
:100190004746DDE76346F1E792BB431B01214FEA87
:1001A000154EAFB2200CB3FBFEFC0EFB1C330CFB58
:1001B00007F840EA0343984561D9EB180CF1FF308A
:1001C00004D2984502D9ACF102002B44A3EB0803FA
:1001D000A4B2B3FBFEFC0EFB1C330CFB07F744EA96
:1001E0000344A7424DD92C190CF1FF3304D2A74286
:1001F00002D9ACF102032C44E41B43EA0040C0E7FF
:10020000C2F120039540944020FA03F12EFA03F343
:100210004FEA154E9040AFB20343B1FBFEFC0EFB1C
:100220001C10190C0CFB07F841EA0041884522D943
:1002300069180CF1FF3004D2884502D9ACF10200F4
:100240002944A1EB08019BB2B1FBFEFC0EFB1C1183
:100250000CFB07F743EA01439F420ED9EB180CF160
:10026000FF3104D29F4202D9ACF102012B44DB1BC7
:1002700041EA004193E76046E3E76146F7E76046FD
:10028000A4E76346B8E7834206D916B900210846B9
:100290007CE7C6E900E0F9E7B3FA83F78FB9834258
